:020000040800F2
:1000000000300010890200089102000893020008E5
:1000100095020008970200089902000800000008F5
:10002000B85F0000000000AA00F80308A90100085A
:100030009D0200080000000005020008090E0008EB
:10004000A3020008A3020008A3020008A3020008FC
:1000500075040008A3020008A3020008A302000818
:10006000A3020008A3020008A3020008A3020008DC
:10007000A3020008A3020008A3020008A3020008CC
:10008000A3020008A3020008A3020008A3020008BC
:10009000A3020008A3020008A3020008A3020008AC
:1000A0008D0E0008A3020008A3020008A3020008A6
:1000B000A3020008000000000000000089040008FE
:1000C00085040008E3040008E1040008A302000816
:1000D000A3020008A3020008A3020008A30200086C
:1000E0000D040008A302000800000000000000004A
:1000F0000000000000000000000000000000000000
:1001000000000000A302000800000000A302000895
:100110000000000000000000050F0008A302000816
:10012000A3020008A3020008A3020008A30200081B
:10013000A302000800000000000000000000000012
:10014000A3020008A3020008A302000800000000A8
:10015000A3020008A3020008A3020008A3020008EB
:10016000A3020008A3020008A30200080000000088
:10017000A3020008A3020008000000000000000025
:10018000A3020008A3020008A3020008DFF814D0AD
:1001900000F0FEF800F0AEF800480047293D0008E6
:1001A00000F0D4F8003000102C4B1968086800F0FB
:1001B0005AB880F30988BFF36F8F4FF0000080F3C7
:1001C000118870470000000008480068006880F34C
:1001D00008884FF0000080F3148862B661B6BFF360
:1001E0004F8FBFF36F8F00DF00BF00BF08ED00E04F
:1001F000DFF80C00016841F470010160704700BF36
:1002000088ED00E0EFF30980BFF36F8F134B1A689E
:100210001EF0100F08BF20ED108A20E9F04F10608B
:1002200009B44FF0300080F31188BFF34F8FBFF354
:100230006F8F04F039FD4FF0000080F3118809BC86
:100240001968086800F014B81EF0100F08BF00F01D
:1002500014B880F30988BFF36F8F7047B003002094
:10026000EFF30580704730C8B0E8C04FFFF7A1BF7B
:1002700030C8B0E8C04FFFF7E7BFB0EC088AB0EC79
:1002800008CAFFF7E6BF0000064880470648004757
:10029000FEE7FEE7FEE7FEE7FEE7FEE7FEE7FEE736
:1002A000FEE7FEE73D0E00088D01000840EA01036D
:1002B0009B0703D009E008C9121F08C0042AFAD21C
:1002C00003E011F8013B00F8013B521EF9D27047E0
:1002D000D2B201E000F8012B491EFBD27047002288
:1002E000F6E710B513460A4604461946FFF7F0FF35
:1002F000204610BD70B5054C054D03E02068204434
:100300008047241DAC42F9D170BD0000445E000856
:10031000645E00082DE9F041074615460E461020A0
:1003200003F02AFD04000AD06760C4E9026500F00A
:1003300009F80168216004600020BDE8F081012017
:10034000FBE7000000487047D40400202DE9F0418D
:100350000646FFF7F7FF8046454613E016B1E06812
:10036000B0420ED120682860D4E90101D8F80070AD
:100370008847204603F0B0FCD8F80000B842EBD123
:1003800000E025462C68002CE8D1BDE8F081000093
:10039000064C074D06E0E06840F0010394E80700D2
:1003A00098471034AC42F6D3FFF7F4FE045E000821
:1003B000445E0008704770B58C1810F8015B15F0AA
:1003C000070301D110F8013B2A1106D110F8012BC7
:1003D00003E010F8016B01F8016B5B1EF9D12B07EC
:1003E00005D40023521E0DD401F8013BFAE710F8A2
:1003F000013BCB1A921C03E013F8015B01F8015B8F
:10040000521EF9D5A142D8D3002070BD10B51449B1
:10041000896C886D134909680140814201D101212D
:1004200000E00021D9B10E49896C886D0D49086042
:1004300000BF00200C4908600C48006805F001F876
:100440000948006801280AD10748006838B14FF010
:10045000805007490860BFF34F8FBFF36F8F10BD07
:10046000E88C002014040140040400204C0000200B
:1004700004ED00E002480078401C01490870704714
:100480006C0300207047000010B500BF124880695F
:10049000C0F3400010B102F089F91CE000BF0E4823
:1004A0008069C0F3800010B102F010F913E000BFC2
:1004B00009488069C0F3401028B10848007810B995
:1004C00002F03CF907E000BF03488069C0F38010E8
:1004D00008B102F097F810BD0054004088030020D6
:1004E000704770471048114908600020091D0860D6
:1004F000091D0860091D0860091D08600A48C043FD
:10050000091D086087200949203108600020091D65
:100510000860091D0860091D0860091D0860782031
:10052000091D086000207047000082FF00040140A0
:10053000024909688143014A11607047040401407F
:10054000024909688143014A11607047240401404F
:10055000024909688143014A116070470004014063
:10056000024909688143014A116070472004014033
:10057000024909680143014A1160704704040140BF
:10058000024909680143014A11607047240401408F
:10059000024909680143014A116070470C04014097
:1005A000024909680143014A116070472C04014067
:1005B000024909680143014A116070470004014083
:1005C000024909680143014A116070472004014053
:1005D000024909680143014A11607047080401405B
:1005E000024909680143014A11607047280401402B
:1005F00070B504460025207A002879D020680028AC
:100600004AD0607A20B1012809D0022815D10DE026
:100610002068FFF78DFF2068FFF7CAFF0FE0206812
:10062000FFF796FF2068FFF7A3FF08E02068FFF7B9
:10063000BFFF2068FFF79CFF01E0012500BF00BF5E
:10064000A07A48B3A07A012804D002280DD003284C
:100650001FD117E020684049096881433E4A116074
:1006600000BF2068FFF7B4FF15E020683A49091F72
:1006700009688143384A121F116000BF2068FFF7E4
:1006800087FF08E02068FFF7A3FF2068FFF780FFDF
:1006900001E0012500BF00BF6068002859D0607AE2
:1006A00020B1012809D0022815D10DE06068FFF7BC
:1006B00047FF6068FFF784FF0FE06068FFF750FFB7
:1006C0006068FFF75DFF08E06068FFF779FF60682A
:1006D000FFF756FF01E0012500BF00BFA07A58B325
:1006E000A07A012805D0022810D0032822D11AE0D0
:1006F00023E060681849203109688143164A203296
:10070000116000BF6068FFF76BFF15E06068124979
:100710001C3109688143104A1C32116000BF6068B7
:10072000FFF73EFF08E06068FFF75AFF6068FFF7D9
:1007300037FF01E0012500BF0BE02068FFF708FF4D
:100740002068FFF7F5FE6068FFF70AFF6068FFF7B3
:10075000F7FE284670BD00000C040140F0B50346CA
:100760000A4600240021106890FAA0F0B0FA80F444
:100770007FE00125A540106800EA0501002977D037
:1007800050681D6891FAA1F6B6FA86F6770003263E
:10079000BE40B54391FAA1F6B6FA86F6760000FAA5
:1007A00006F635431D6000BF5068012802D050682E
:1007B000022814D190689D6891FAA1F6B6FA86F6DF
:1007C00077000326BE40B54391FAA1F6B6FA86F645
:1007D000760000FA06F635439D6000BF00BF106941
:1007E000DD6891FAA1F6B6FA86F677000326BE40D8
:1007F000B54391FAA1F6B6FA86F6760000FA06F647
:100800003543DD6000BF5068022831D191FAA1F074
:10081000B0FA80F0082814D250691D6A91FAA1F646
:10082000B6FA86F6B7000F26BE40B54391FAA1F698
:10083000B6FA86F6B60000FA06F635431D6200BF2A
:1008400016E050695D6A0E0A96FAA6F6B6FA86F6C2
:10085000B7000F26BE40B5430E0A96FAA6F6B6FAC2
:1008600086F6B60000FA06F635435D6200BF00BFAB
:10087000641C1068E04000287FF47BAF50680128BA
:1008800002D05068022809D1D56810685E68864396
:1008900000FB05F73E435E6000BF00BF0020F0BDD7
:1008A0004FF47A71B0FBF1F2521E4FF0E0235A611F
:1008B00000229A6105221A6100BF704710B50446F4
:1008C00000F0D8F92060206800F0A0F9606060684E
:1008D00000F0ACF9A060606800F0BAF9E06010BD0B
:1008E0002DE9F04104460025032C29D1204600F0D3
:1008F00085F8B0F5403F18D06FF44031084420B17E
:10090000012806D002280FD108E000F0B3F905460F
:1009100015E000F07DF800B1374D10E000F080F8F0
:1009200008B14FF400450AE000BF00F0A3F9074604
:1009300000F06CF9064600F08BF9054600BF57E061
:100940000C2C29D1204600F059F8B0F5402F18D0D2
:10095000A0F54020001F20B1042806D008280FD1A0
:1009600008E000F087F9054615E000F051F800B105
:10097000214D10E000F054F808B14FF400450AE0B2
:1009800000BF00F077F9074600F040F9064600F096
:100990004DF9054600BF2BE0302C29D1204600F050
:1009A0002DF8B0F5401F18D0A0F54010103820B138
:1009B000102806D020280FD108E000F05BF905468A
:1009C00015E000F025F800B10B4D10E000F028F81C
:1009D00008B14FF400450AE000BF00F04BF90746AC
:1009E00000F014F9064600F021F9054600BF00BFEB
:1009F0002846BDE8F08100000024F40001460348C9
:100A00000068084040EA014070470000881002403A
:100A100002480068C0F380207047000000100240C8
:100A200002480068C0F34000704700009010024088
:100A30000248006800F0F00070470000001002401B
:100A40000248006800F47060704700009410024093
:100A500002480068C0F3C000704700000010024068
:100A60000248C06800F070007047000000100240AB
:100A70000248C06800F00300704700000010024008
:100A80000248C068C0F30620704700000010024012
:100A90000149086070470000D004002010B50246EC
:100AA00013681C48824202D0B2F1804F04D123F077
:100AB00070004C6840EA04031648824208D0B2F144
:100AC000804F05D01448824202D01448824204D19B
:100AD00023F44070CC6840EA040313608868D06255
:100AE00000BF0888906200BF0A48824205D00A48C9
:100AF000824202D00948824203D1087C106300BFC1
:100B000000BF00BF506940F00100506100BF0020ED
:100B100010BD0000002C0140004001400044014095
:100B20002DE9F04104460D4601270026204600F03D
:100B300067F8002859D1E9686868084329690843BB
:100B4000A969084321682A4A114008432060A8681F
:100B5000616821F440510143616000BF6869A16888
:100B600021F440710143A16000BF2248844204D1B6
:100B70000320FFF7B5FE06460EE01F48844204D16D
:100B80000C20FFF7ADFE064606E01C48844203D168
:100B90003020FFF7A5FE06463EB3286828B300279D
:100BA0003146AA69286800239C46B2F5004F12D14D
:100BB0004FEA410808EB5008B8FBF0F81FFA88F339
:100BC0004FF6F07803EA080CC3F342084CEA080C2D
:100BD000C4F80CC007E001EB5008B8FBF0F81FFAAE
:100BE00088F8C4F80C8000BF00BF3846BDE8F0812B
:100BF000F369FFEF00380140004400400048004026
:100C00000146086800F0010070470000014600BF7F
:100C10000448806800F0F0000009034A125C21FAE1
:100C200002F0704700100240BC5D0008014600BFA2
:100C30000548806800F4E060044A02EB1020027866
:100C400021FA02F07047000000100240CC5D00085D
:100C5000014600BF0548806800F46050044A02EB7A
:100C6000D020027821FA02F0704700000010024004
:100C7000CC5D000810B5002400BF2948806800F052
:100C80000C0030B1042822D0082822D00C2826D10C
:100C900021E0FFF7DDFE60B9FFF7DAFE10B1FFF7E4
:100CA000C7FE01E0FFF7CCFE000A1E4951F8200004
:100CB0000BE0FFF7CDFE10B1FFF7BAFE01E0FFF742
:100CC000BFFE0009174951F82000044625E0164CE4
:100CD00023E0164C21E000F02BF804461DE0FFF75E
:100CE000B7FE60B9FFF7B4FE10B1FFF7A1FE01E057
:100CF000FFF7A6FE000A0B4951F820000BE0FFF7B2
:100D0000A7FE10B1FFF794FE01E0FFF799FE00097E
:100D1000044951F82000044600BF00BF204610BD22
:100D200000100240D45D00080024F40000127A0094
:100D300070B500240025FFF79BFE0546012D04D069
:100D4000022D20D0032D22D11FE0FFF781FE60B9D4
:100D5000FFF77EFE10B1FFF76BFE01E0FFF770FEBC
:100D6000000A254951F820000BE0FFF771FE10B191
:100D7000FFF75EFE01E0FFF763FE00091E4951F830
:100D80002000044621E01D4C1FE01D4C1DE0FFF734
:100D90005FFE60B9FFF75CFE10B1FFF749FE01E0AE
:100DA000FFF74EFE000A144951F820000BE0FFF750
:100DB0004FFE10B1FFF73CFE01E0FFF741FE0009D6
:100DC0000D4951F82000044600BF00BFFFF748FE60
:100DD000012101EB1010B4FBF0F6FFF751FE464382
:100DE0000848C06800F0C060012101EB506040007D
:100DF000B6FBF0F070BD0000D45D00080024F400E4
:100E000000127A000010024010B500BF302080F3BD
:100E10001188BFF34F8FBFF36F8F00BF04F012FC38
:100E200018B14FF080500449086000BF002080F3E3
:100E3000118800BF10BD000004ED00E010480068FC
:100E400040F470000E4908600E48006840F0010050
:100E50000C49086000208860084600680A4908407C
:100E6000084908608814C8600846006820F480209B
:100E7000086000208861C803014980390860704714
:100E800088ED00E000100240FFFFF6EA10B500BF59
:100E900017480069C0F3400048B300BF1448C06859
:100EA000C0F3400018B300BF6FF0020010490861A2
:100EB00000BF104800F026FFC8B100210D4800F027
:100EC00028FF00200C4908600C48006804F0B9FABB
:100ED0000948006801280AD10748006838B14FF076
:100EE000805007490860BFF34F8FBFF36F8F10BD6D
:100EF00000400140E88C0020000400204800002051
:100F000004ED00E000BF0A48006900F0010070B184
:100F100001200849087008480078401C06490870FC
:100F200000BF6FF001000249086100BF00BF7047B9
:100F30000010004061030020600300200348406966
:100F400040F0004001494861704700000020024025
:100F50002DE9F04798B08D4B0FCB14AC0FC4082788
:100F60004FF0000800200EE014A911F81010082915
:100F700007D814A901EB40014978082901D3044698
:100F800003E0411CC8B20228EEDB14227F49103175
:100F90000FA8FFF78BF9002015E004EB84010FAADE
:100FA00002EB410111F8101008290AD804EB840162
:100FB00002EB410101EB40014978082901D30546C4
:100FC00003E0411CC8B20528E7DB14226F49243135
:100FD0000AA8FFF76BF96D49383103C9CDE908015B
:100FE00000BF0AA951F825006949096821F00701E5
:100FF0000143674A116000BF00BF1046006800F05F
:1010000007000AA951F825108842EAD108A951F829
:1010100024006049096821F4C06101435D4A116000
:1010200000BF00BF5C48006840F480305A49086047
:1010300000BF00BF00BF58480068C0F34040002810
:10104000F8D000BF5448006820F001005249086001
:1010500000BF00BF01F0ECF90128FBD100BF4E48F2
:10106000006840F008004C49086000BF7020096823
:1010700021F0F0010143484A116000BF00BF104653
:10108000006840F001001146086000BF00BF01F099
:10109000CFF90128FBD100BF3F48006840F48070C1
:1010A0003D49086000BF00BF00BF3B480068C0F377
:1010B00080200028F8D000203749896821F0F0010D
:1010C0000143354A916000BF00BF1146896821F491
:1010D000E0610143916000BF00BF1146896821F4BF
:1010E00060510143916000BF202228494031684689
:1010F000FFF7DCF802202849896821F00301014349
:10110000254A916000BF002600BF00BF22488068CA
:1011100000F00C0006460828F7D12048FFF7C0FB76
:101120000420042808D14FF0E021096941F00401AE
:101130004FF0E022116107E04FF0E021096921F052
:1011400004014FF0E022116100BF1548FFF7A0FC39
:101150004FF080700021104A926822F0FE4240EA6F
:1011600001031A430C4B9A6000BF01F08BF98246D1
:101170000022114601F065F9814649464FF0FF30E3
:1011800001F040F918B0BDE8F0870000345B0008BA
:10119000002002400070004000100240001BB70019
:1011A00000127A000548406900F0004020B1044870
:1011B00002498860034888607047000000200240B0
:1011C00023016745AB89EFCD04200C49096901F47F
:1011D0008031B1F5803F01D101200EE00749096956
:1011E00001F0100109B1022007E00449096901F08A
:1011F000200109B1032000E00420704700200240D4
:10120000ACB000BF642003F01DFC3B4801F034FE8D
:10121000394801F025FEA022384904A8FFF746F816
:10122000374802F07EFA374802F0DEF800213548F0
:1012300002F03EF9334800F00EFB324800F054FA59
:10124000304800F0B0FA2F4800F0F2FE00BF2D4801
:1012500000F0E2F804AF3D4607F1A000039046E03D
:101260002C46284901A800F0D0F8206800789DF8A5
:10127000041088423AD1606840B90020804203D10E
:10128000207A00F00100E0B1A068D0B1DDF80500DF
:10129000216848601B49A06801EB6009207A00F0D2
:1012A000010008B9606806E0D9F80000616800EB49
:1012B000010ADAF80000009048462168009A904739
:1012C00000BF1049206901EB6006207C00F001009E
:1012D00008B9E06805E03068E16800EB0108D8F87B
:1012E0000000834630462168D84703E01435039850
:1012F0008542B5D1ABE70000000500201C5D000869
:1013000010050020E88C002070B504460D461646F6
:1013100032462946204600F016F82846AA1904F15C
:101320001E0103E003780B70401C491C9042F9D168
:1013300000BF5A22B01C04F11C010A54084670BDBB
:10134000034608467047FFB504460E46174604F1AB
:101350001C05A52028702146684600F056F8DDE9F6
:101360000001CDE902019DF80800687004F11C003D
:1013700004B0F0BD03465A20187703F11C007047F3
:101380002DE9FF4F91B0054616461F4630221C49F5
:1013900005A8FEF78BFF0DF11408444608F1300054
:1013A000049026E094E8070001AB07C39DF80C0009
:1013B000B8421DD1029805EB600900F0010008B9A0
:1013C000019806E0D9F80000019900EB010ADAF86B
:1013D00000008346324648461299D84700909DF84F
:1013E0000D00304482B22846009901F0C7FF03E0A7
:1013F0000C3404988442D5D100BF15B000F002B877
:10140000905C000830BCBDE8C08FCA6AD2F80130D9
:1014100003605279027170472DE9F04105460024BE
:1014200000270026284602F0E9F800BF284602F00F
:10143000EEF8044627B1012F0CD0022F1ED113E085
:10144000A52C06D101273046711CCEB205F115013D
:101450000C5414E03046711CCEB205F115010C5449
:10146000062E00D302270AE05A2C04D105F11500FC
:101470008455032701E00027002600E000BF00BFDD
:10148000032FD3D1284601F041FFBDE8F0810000D1
:101490003EB504460D46084A07CA8DE807000023FA
:1014A0006A462946204602F0C3F8044604F11500B6
:1014B000E06220463EBD0000845C000810B5044692
:1014C000204602F0C9F80446204610BD70B5044617
:1014D0000D462946204600F0F3FD70BD70B5054667
:1014E0000C46227D032328462169FFF749FF70BD82
:1014F0002DE9F04104460D46D5ED010AB0EE600A33
:1015000005F10801204600F0FFFD85ED010AA06C01
:10151000016E204600F02EFA00235A1E19466E482E
:10152000006803F00DFD204600F078FB6B4801F0E9
:101530009CFC204600F0FEFBA16C086801F044FC16
:1015400000BFA16C086801F05DFC0128F9D000BF64
:10155000A16C086801F051FC0128F9D0A26C0021AF
:101560001068026B22F00F020A43026300BFA36CF3
:101570000620DA6819680026C70197FAA7F7B7FAB4
:1015800087F7FE4001F1300707EB86031F278740EE
:101590001E68BE43C2F3846787403E431E6000BF9F
:1015A000A36C00221968D86800F000764FF000772D
:1015B00097FAA7F7B7FA87F7FE4001F1140707EB90
:1015C000860300F0F8774FF0F87C9CFAACFCBCFA8C
:1015D0008CFC27FA0CF74FF0070C0CFA07FC1E687E
:1015E00026EA0C0600F0F8774FF0F87C9CFAACFC89
:1015F000BCFA8CFC27FA0CF702FA07F73E431E6090
:1016000000BFA26C4FF400511068C26822F400526F
:101610000A43C26000BFA26C00211068C26822F4B5
:101620007C620A43C26000BFA26C10211068C268CD
:1016300022F018020A43C26000BFA26C00211068A9
:10164000C26822F020020A43C26000BFA16C086891
:101650008168234A1140091D816000BF00210846AE
:1016600015E000BFA26C11680A68C2F38002002A6C
:10167000F8D0A26C11680A6CD2B21A490A54A26C52
:10168000116804220A6000BF411C89B20846D5EDEA
:10169000010A00EE100AB8EE400AF4EEC00AF1EEBC
:1016A00010FADEDCA16C086801F08EFB00BFA16CB3
:1016B000086801F0A7FB0128F9D000BFA16C0868F9
:1016C00001F09BFB0128F9D0204600F055FC0348AF
:1016D00001F0C6FBBDE8F0814C00002000050020B1
:1016E000C0FFFF7FB817002010B50446226CD2E976
:1016F0000A018847226CD2E904108847226CD2E99B
:101700000801022201F02CF9226CD2E90801022220
:1017100001F04EF9226CD2E90801002201F034F9FF
:10172000236C1A6BD3E9080101F0C0F9216C086839
:10173000002101F093F9216C0868002101F08CF977
:10174000216C086801F0B1FA226CD168106801F0D0
:10175000C6F9226C916810684FF4803201F0ECFAFF
:10176000226C916810684FF4801201F035F9226CF8
:1017700091681068002201F0B9F9226C9168106834
:10178000002201F0EDF9226C9168106801F085FAF1
:1017900010BD70B505460C4624B1611E6A6C106818
:1017A00001F05AF970BD10B50446626CD2E90A0125
:1017B0008847626CD2E904108847626CD2E908015C
:1017C000022201F0CDF8626CD2E90801022201F098
:1017D000EFF8626CD2E90801002201F0D5F8636CE1
:1017E0001A6BD3E9080101F061F9616C0868002106
:1017F00001F034F9616C0868002101F02DF9616C89
:101800000868016821F08001016000BF626CD16846
:10181000106801F064F9626C916810684FF48032CE
:1018200001F08AFA626C916810684FF4801201F03E
:10183000D3F8626C91681068002201F057F9626C6D
:1018400091681068002201F08BF9626C9168106851
:1018500001F023FA10BD7CB50446E26BD2E90A011F
:101860008847E26BD2E904108847E26BD2E90801AD
:10187000022201F075F8E26BD2E90801012201F0C1
:1018800097F8E26BD2E90801002201F07DF8E36BE2
:101890001A6BD3E90801436A0D0A95FAA5F5B5FA62
:1018A00085F5AE000F25B540AB430D0A95FAA5F5B9
:1018B000B5FA85F5AD0002FA05F52B43436200BF8A
:1018C000E16B0868002101F0C9F82146684600F084
:1018D000A5FABDF80210E26B106801F0BDF8E16BEB
:1018E000086801F0E2F9BDF80010E26B106801F041
:1018F000F6F8E26B91681068002201F071F9E26B72
:1019000091681068602200F0E7FFE26B9168106850
:1019100001F0D6F9BDF80410E26B106801F00AFA84
:10192000E26B9168106801F0B8F9E16B086801F0AA
:101930005AFAE16B0868C16841F00201C16000BF5A
:1019400001F03AFA06460022052101F08FF805461B
:10195000E16B91F90400294600F0AAFF182000F07D
:1019600097FFE16B086801F0B5F8E16B086801F0DA
:10197000A1F97CBDF0B589B004460D46A26CD2E950
:1019800011018847A26CD2E91A10884700BFA06CE9
:10199000006C0390002004900790A16CC86B03A911
:1019A000FEF7DCFE0028F2D1A16C486D2749C2B2D7
:1019B00051F8221001EA1041020C92FAA2F2B2FA96
:1019C00082F2D140A06C006D814216D0A26CD2E9A7
:1019D00014101E4AC3B252F8232022EA1042030C0C
:1019E00093FAA3F3B3FA83F301FA03F31A43174B01
:1019F000C6B243F8262000BF00BF00BFA06C806DB8
:101A0000009001208DF80800A06C90F85C008DF823
:101A10000900E8B28DF80A006846FEF7E9FD0028E3
:101A2000ECD101F0C9F907460022032101F01EF8AC
:101A30000646A16C91F96400314600F039FFA16CB3
:101A400091F9640000F024FF09B0F0BD08000140E6
:101A50002DE9F04104460D464FF47A770026022125
:101A60002046FFF787FF00235A1E194615480068D5
:101A700003F066FA204600F0D1F8134801F0F5F9BA
:101A8000DFF84880216C0868002100F067FF216CB6
:101A9000086801F01FF8216C086801F00BF9216C4F
:101AA000086801F01EF8204600F0B8F8064801F07A
:101AB000D7F9B00000EE100AB8EE400A85ED010A31
:101AC000BDE8F0814C00002000050020B817002080
:101AD00070B505460C460123002228462169FFF710
:101AE0004FFC94ED010ABCEEC00A10EE100A82B25F
:101AF000002328462169FFF743FC022300222846E1
:101B00002169FFF73DFC70BD2DE9F04104460D460B
:101B100095ED010ABCEEC00A10EE100A81B2204613
:101B2000FFF737FE64272C4E616C086801F05BF903
:101B3000616C086801F0B5F8616C086800F0CAFFD4
:101B4000616C0868002100F009FF616C086801F011
:101B5000A8F8616C086801F041F9012801D11F491A
:101B6000087000BF616C08680169C1F3C00151B120
:101B7000616C0868C16B1A4802880088401C184BC9
:101B8000188026F8121016480088642805DA616C5F
:101B9000086801F023F90028E4D0616C086801F0BE
:101BA0001DF9012801D10D490870616C086801F028
:101BB00078F8616C086800F094FF204600F02EF879
:101BC00007480088400000EE100AB8EE400A85ED94
:101BD000010ABDE8F0810000B81700200C040020C5
:101BE0000E04002070B505460C460123002228464D
:101BF0002169FFF7C5FB94ED010ABCEEC00A10EEA7
:101C0000100A82B2002328462169FFF7B9FB02239C
:101C1000002228462169FFF7B3FB70BD10B50446CA
:101C2000FEF760FC10BD000070B505460C46D4ED13
:101C3000010AB0EE600A04F10801284600F064FAD7
:101C400084ED010A94ED010ABCEEC00A10EE100A00
:101C50002169087094ED010ABCEEC00A10EE100A6A
:101C6000C1B20022014801F0D7FD70BD100500206F
:101C700070B505460C46D4ED010AB0EE600A04F1D9
:101C80000801284600F040FA84ED010A94ED010AAB
:101C9000BCEEC00A10EE100A2169087094ED010A2A
:101CA000BCEEC00A10EE100AC1B20222014801F0D7
:101CB000B3FD70BD1005002070B505460C46227DB1
:101CC000032328462169FFF75BFB70BD70B505460D
:101CD0000C46227D032328462169FFF751FB70BD86
:101CE00070B504460D462946204600F0E9F970BD5E
:101CF00070B505460C46227D032328462169FFF76F
:101D00003FFB70BD0146002072B691F84C0062B6F0
:101D1000704772B680F84C1062B6704701B52DED71
:101D2000020B01460098401C08B901200EBD00209E
:101D3000FCE7000010B50446A16C086800F00CFF39
:101D4000A16C08688168084A1140491C816000BF85
:101D5000A16C0868016801F0010119B1A16C086863
:101D600000F0FAFE10BD0000C0FFFF7F70B5054611
:101D70000C460123002228462169FFF701FB94ED60
:101D8000010ABCEEC00A10EE100A82B200232846F7
:101D90002169FFF7F5FA0223002228462169FFF79F
:101DA000EFFA70BD10B50446A16C086800F07BFD29
:101DB000012811D1A16C086800F062FD00BFA16C80
:101DC000086800F065FF0128F9D000BFA16C086821
:101DD00000F069FD0128F9D0A26C7F2110688268AB
:101DE0000D4B1A40CB071A43826000BF00BFA16CA5
:101DF00008688168C90F0029F9D1A26C7F20116899
:101E0000D1F8B420024090FAA0F3B3FA83F3DA4099
:101E100084F8542010BD0000C0FFFF3F30B52DED09
:101E2000048B87B005460C4600200590069001A85B
:101E3000FEF744FD4E4890ED010AB0EE408A84ED75
:101E40000C8AE06B90ED030AB8EE400AF0EE408A8F
:101E5000BCEEE80A10EE100A401C00EE100AB8EEC4
:101E6000400A20EE080ABCEEC00A84ED140A206D78
:101E70000499884211D3049820650020ADF816001B
:101E800094ED140AB8EE400AC0EE080AB7EE000A54
:101E900030EEC00AF0EE408A28E000BFBDF8161010
:101EA000491C89B2ADF816100846411C88B201469B
:101EB00000EBD172049B03EB6202B2FBF0F22265ED
:101EC00094ED140AF8EE400A80EE880AF7EE000A54
:101ED00030EE600AF0EE408AE06B90ED030AB8EE57
:101EE000400AB4EEE80AF1EE10FAD7D3B6EE000AD3
:101EF00038EE800ABCEEC00A10EE100A80B2ADF8CF
:101F000014001B4890ED070ADFED1A0A80EE209AB4
:101F100094ED140AB8EE400AC0EE080AB6EE000AC4
:101F200000EE890ABCEEC00A10EE100A80B2ADF8CD
:101F30001800BDF8180000EE100AB8EE400ADFEDF8
:101F40000D0A20EE200AD4ED0C0A60EE200A94ED72
:101F5000140AB8EE400A80EE801A84ED0D1A059836
:101F60002860BDF81800A88007B0BDEC048B30BD18
:101F7000100400200000C84210B50446A16C086897
:101F800000F03BFF01280AD1A16C086800F01CFF9B
:101F900000BFA16C086800F035FF0128F9D0A16CE2
:101FA000086800F025FF01280FD1A16C086881683E
:101FB0000F4A114041F02001816000BF00BFA16CB9
:101FC000086800F015FF0128F9D0A16C086800F03E
:101FD00057FC00BFA16C086800F065FC0128F9D02F
:101FE00000BFA16C086800F053FE0128F9D010BDB5
:101FF000C0FFFF7F70B504460D466988E26B10682C
:1020000000F02AFD2988E26B106800F068FDA988BD
:10201000E26B106800F08EFE70BD70B505460C4690
:10202000227D032328462169FFF7AAF970BD00002D
:102030002DE9F0410446A26CD2E90C018847A26C5C
:10204000D2E904108847A26CD2E908108847A26C34
:10205000D2E90A01032200F083FCA16C08688168C0
:10206000144A1140816000BFA16C08688168124A5F
:10207000114041F08051816000BF642002F0E2FC19
:10208000A36C7F22D9681868D0F8B030C1F312056C
:10209000AB43C1F3120502F02007084EBE403540A5
:1020A0002B43C0F8B03000BF2046FFF77BFEBDE8F1
:1020B000F0810000C0FFFF5FC0FFFF7FFFFF070050
:1020C0007CB505460C46D4ED010AB0EE600A04F179
:1020D0000801284600F018F884ED010A012128467D
:1020E000FFF717FE00235A1E19460648006802F043
:1020F00027FF29466846FFF791FE69462846FFF705
:1021000079FF7CBD4800002030B50546F0EE400A5E
:102110000C46B0EE600A2846FFF700FE30B994ED99
:10212000000AB4EEE00AF1EE10FA02DD94ED000AC6
:1021300030BD94ED010AB4EEE00AF1EE10FA02D2DD
:1021400094ED010AF4E7B0EE600AF1E72DE9F047FB
:1021500004460F4615461E46DDE9088939462046E5
:10216000FFF796F904469FED0E0A383404ED020A93
:102170009FED0B0A04ED010A002020706070A07032
:102180006560A660C4F80C80C4F8109020750548FE
:10219000A06100202077383C2046BDE8F087000091
:1021A00000000000A086010010B504462046FFF79D
:1021B00085F90446204610BD014608787047002185
:1021C0000170417070477047816270477CB54FF471
:1021D0007A75FA26002004210346FA22CDE9001080
:1021E00005A1094803F0E4F9044600F01FF902F0E4
:1021F000AFFD064908607CBD4C45565F47415547D9
:10220000455F544F5F50430001120008100000204A
:1022100000B587B001201249C96C0143104AD1644E
:102220001146C96C0140009100BF00BF0190002021
:102230000290059001A94FF09040FEF78FFA4FF4FD
:10224000807001900220029000200390049005907D
:10225000069001A94FF09040FEF780FA07B000BD4C
:10226000001002407047000010B5012002F02AFE65
:10227000074908600846006800F0E2F8012002F013
:1022800021FE044908600846006800F0D9F810BD36
:10229000500000205400002010B50322002101202E
:1022A00002F021FE48490446086000F0EAF80322E3
:1022B0000021012002F017FE44490446086000F0A6
:1022C000E0F803220021012002F00DFE40490446FF
:1022D000086000F0D6F803220021012002F003FE7E
:1022E0003C490446086000F0CCF80322002101209C
:1022F00002F0F9FD38490446086000F0C2F80322F4
:102300000021012002F0EFFD34490446086000F08E
:10231000B8F803220021012002F0E5FD304904460F
:10232000086000F0AEF803220021012002F0DBFD7E
:102330002C490446086000F0A4F803220021012083
:1023400002F0D1FD28490446086000F09AF8032203
:102350000021012002F0C7FD24490446086000F076
:1023600090F803220021012002F0BDFD204904461F
:10237000086000F086F803220021012002F0B3FD7E
:102380001C490446086000F07CF80322002101206B
:1023900002F0A9FD18490446086000F072F8032213
:1023A0000021012002F09FFD14490446086000F05E
:1023B00068F803220021012002F095FD104904462F
:1023C000086000F05EF810BD140000201800002026
:1023D0001C000020200000202400002028000020F5
:1023E0002C000020300000203400002038000020A5
:1023F0003C00002040000020440000204800002055
:102400004C00002010B5002807DA0A07140E054A10
:1024100000F00F031B1FD45403E00A07130E024AF7
:10242000135410BD18ED00E000E400E07047000018
:1024300002480068C0F340007047000000100240EE
:102440007047F0B503460C4603F00701C1F10700E1
:10245000042801D9042001E0C1F107000646081D47
:10246000072801D2002000E0C81E05460120B04028
:10247000401E2040A8400127AF407F1E1740384330
:10248000F0BD704702480068C0F3022070470000AA
:102490000CED00E038B501203A49096E0143394A94
:1024A00011661146096E0140009100BF00BF032074
:1024B0000246354B19684FF6FF031940334B0B4367
:1024C00043EA0221304B196000BFFFF7DBFF0546EE
:1024D00000221146FFF7B5FF044621466FF00B00BE
:1024E000FFF790FFFFF7CEFF054600221146FFF7EA
:1024F000A8FF044621466FF00A00FFF783FFFFF7AD
:10250000C1FF054600221146FFF79BFF0446214606
:102510006FF00900FFF776FFFFF7B4FF05460022D2
:102520001146FFF78EFF044621466FF00400FFF7C7
:1025300069FFFFF7A7FF054600221146FFF781FF5D
:10254000044621466FF00300FFF75CFFFFF79AFF98
:10255000054600221146FFF774FF044621466FF03E
:102560000100FFF74FFFFFF78DFF054600221146E0
:10257000FFF767FF044621464FF0FF30FFF742FFA9
:1025800038BD0000001002400CED00E00000FA052C
:10259000816170478162704708B50549C96C014384
:1025A000034AD1641146C96C0140009100BF08BDC7
:1025B0000010024008B50549896D0143034A916541
:1025C0001146896D0140009100BF08BD0010024016
:1025D00008B50549096E0143034A11661146096EA3
:1025E0000140009100BF08BD001002400449096885
:1025F00021F040510143024A883AC2F888107047DE
:102600008810024010B52A48007810B101284BD13B
:1026100028E0284800784100274800F011F94FF4DD
:102620008061254800F020F924480178224800F014
:1026300014F9214800F0FFF81F4800F0F7F800BF38
:102640001D48006840F004001B49086000BF00BF3F
:102650000846406840F00070486000BF084600F03F
:1026600009F922E000BF1448406840F48040124954
:10267000486000BF084600F0D9F800201049086003
:102680001048006802F0DDFE0D48006801280AD1FC
:102690000B48006838B14FF080500B490860BFF319
:1026A0004F8FBFF36F8F00E000BF00BF10BD000071
:1026B0008803002082030020005400408003002093
:1026C000780300201800002004ED00E01648007890
:1026D00010B1012825D123E000BF1448406AC0B2E0
:1026E00013490A780978491C114B19701149096876
:1026F0008854184600781049097888420FD100BFE5
:102700000A48006820F004000849086000BF00BFC4
:102710000846006840F02000086000BF00BF01E0EC
:1027200000E000BF00BF7047880300200054004055
:10273000810300207C0300208003002010B5164890
:1027400000F086F800BF1448006820F0200012490D
:10275000086000BF1148007810B1012818D116E0B8
:1027600000200F4908600F48006802F06AFE0C481C
:10277000006801280AD10A48006838B14FF080503B
:1027800009490860BFF34F8FBFF36F8F01E000E08E
:1027900000BF00BF10BD00000054004088030020AF
:1027A000840300201400002004ED00E010B5194857
:1027B00000F04EF81848007880B91848017815489C
:1027C00000F044F800BF1348006840F04000114991
:1027D000086000BF0120104908701AE01048007816
:1027E00010B1012814D100E012E00E480078401E1C
:1027F000C0B20C4A10700C4A1268115C054800F017
:1028000025F80848007810B9024800F014F800BF15
:1028100000BF10BD00540040750300208903002054
:10282000880300207403002070030020016821F059
:10283000400101607047016821F0020101607047AA
:1028400042686FF309020A43426070478162704731
:10285000C16941F02001C1617047426822F47F02E2
:1028600042EA014242607047426822F480620A43B1
:1028700042607047416841F4005141607047000078
:102880008168024A1140891C81607047C0FFFF7F48
:1028900000F01F02012191404209920002F1E02262
:1028A000C2F8001170470146886800F001007047C7
:1028B00010B5002807DA0A07140E054A00F00F03C6
:1028C0001B1FD45403E00A07130E024A135410BD11
:1028D00018ED00E000E400E0F0B5034614460129DD
:1028E00001D1002520E0042901D101251CE0102997
:1028F00001D1022518E0402901D1032514E0B1F5EA
:10290000807F01D104250FE0B1F5806F01D105254D
:102910000AE0B1F5805F01D1062505E0B1F5803F01
:1029200001D1072500E008252846094D2E5C03F15A
:1029300018057219074E375C074EBE401568B5433F
:10294000044E365C04FA06F635431560F0BD00000F
:10295000EC5C0008F55C0008730001004162704700
:1029600030B5036891FAA1F4B4FA84F46500032445
:10297000AC40A34391FAA1F4B4FA84F4640002FADF
:1029800004F42343036030BD30B5C36891FAA1F469
:10299000B4FA84F465000324AC40A34391FAA1F493
:1029A000B4FA84F4640002FA04F42343C36030BD33
:1029B00030B5836891FAA1F4B4FA84F46500032475
:1029C000AC40A34391FAA1F4B4FA84F4640002FA8F
:1029D00004F42343836030BDF0B503461446012957
:1029E00001D1002520E0042901D101251CE0102996
:1029F00001D1022518E0402901D1032514E0B1F5E9
:102A0000807F01D104250FE0B1F5806F01D105254C
:102A10000AE0B1F5805F01D1062505E0B1F5803F00
:102A200001D1072500E008252846094D2E5C03F159
:102A300018057219074E375CF026BE401568B5437D
:102A4000260C044F3F5CBE4035431560F0BD0000CE
:102A5000EC5C0008FE5C0008816270478268024BF3
:102A60001A400A4382607047F8FFFEFFF0B5034644
:102A70000C4603F00701C1F10700042801D9042026
:102A800001E0C1F107000646081D072801D2002019
:102A900000E0C81E05460120B040401E2040A8406E
:102AA0000127AF407F1E17403843F0BD30B5036AA1
:102AB00091FAA1F4B4FA84F4A5000F24AC40A34326
:102AC00091FAA1F4B4FA84F4A40002FA04F42343C2
:102AD000036230BD016841F0010101607047C162CD
:102AE0007047016821F001010160704770B501294C
:102AF00001D1002420E0042901D101241CE0102987
:102B000001D1022418E0402901D1032414E0B1F5D9
:102B1000807F01D104240FE0B1F5806F01D105243D
:102B20000AE0B1F5805F01D1062405E0B1F5803FF0
:102B300001D1072400E008242346046A054DEE5C19
:102B40000A25B540AC43034DED5C02FA05F52C4374
:102B5000046270BD075D000801210160704700003C
:102B6000F0B503461446012901D1002520E00429CF
:102B700001D101251CE0102901D1022518E04029CE
:102B800001D1032514E0B1F5807F01D104250FE0C8
:102B9000B1F5806F01D105250AE0B1F5805F01D163
:102BA000062505E0B1F5803F01D1072500E00825A5
:102BB0002846094D2E5C03F118057219074E375C43
:102BC0000C26BE401568B543260C044F3F5CBE4042
:102BD00035431560F0BD0000EC5C0008FE5C0008A9
:102BE000F0B51346012901D1002520E0042901D1C7
:102BF00001251CE0102901D1022518E0402901D14E
:102C0000032514E0B1F5807F01D104250FE0B1F573
:102C1000806F01D105250AE0B1F5805F01D106255D
:102C200005E0B1F5803F01D1072500E008252A46DF
:102C3000134DAE5C00F118057419124EB75C0326F3
:102C4000BE402568B5432560056A0F4EB75C022675
:102C5000BE40B54303F002060B4FBF5CBE40354398
:102C600005624568094EB75C4FF48076BE40B543B7
:102C700003F48076054FBF5CBE4035434560F0BD30
:102C8000EC5C0008F55C0008075D0008105D0008BA
:102C900001468868C0F340007047026A0A43026236
:102CA00070476FF0010101617047016841F08001D8
:102CB00001607047416C41F400414164704700007D
:102CC00070B50246012901D1002420E0042901D178
:102CD00001241CE0102901D1022418E0402901D16F
:102CE000032414E0B1F5807F01D104240FE0B1F595
:102CF000806F01D105240AE0B1F5805F01D106247F
:102D000005E0B1F5803F01D1072400E00824234607
:102D1000064CE55C02F118042819054DEE5C082507
:102D2000B54004682C43046070BD0000EC5C0008F2
:102D3000F55C000841637047F0B50346144601296D
:102D400001D1002520E0042901D101251CE0102932
:102D500001D1022518E0402901D1032514E0B1F585
:102D6000807F01D104250FE0B1F5806F01D10525E9
:102D70000AE0B1F5805F01D1062505E0B1F5803F9D
:102D800001D1072500E008252846094D2E5C03F1F6
:102D900018057219074E375C0326BE401568B54307
:102DA000260C044F3F5CBE4035431560F0BD00006B
:102DB000EC5C0008FE5C000802480068C0F30220DA
:102DC000704700000CED00E08168034A114041F0BB
:102DD0001001816070470000C0FFFF7F0146086955
:102DE00000F001007047416941F001014161704705
:102DF00001468868C0F3C000704701468868C0F388
:102E00008000704701468868C0F3001070476FF07B
:102E100001010161704770B500240025B2F5004F33
:102E20000ED14E0006EB5306B6FBF3F6B4B24FF6E6
:102E3000F07604EA0605C4F342063543C56005E0B2
:102E400001EB5306B6FBF3F6B6B2C66070BD0146A1
:102E5000888CC0B270470146C869C0F34010704703
:102E6000036806CB8A6100BF704710B5044622682C
:102E700003CAFFF7A9F910BD10B586B00446226851
:102E8000D2E902018847226803CAFFF79DF920684A
:102E900040680090012001900220029000200390E1
:102EA0000490216808686946FDF758FC06B010BD1B
:102EB00010B50160426000248460C46010BD70479A
:102EC0002DE9F04105460E46174600BFFEF77CF996
:102ED0000128FBD0002400BF0749284600F06EFD02
:102EE000054B3A463146284600F096FD0446002C34
:102EF000F2D0BDE8F081000000F80308F0B5074605
:102F00000B46084D2846861828463446194605E0E3
:102F100090F800C081F800C0401C491CA042F7D1C5
:102F200000BFF0BD00F803082DE9F04F8DB0044656
:102F300010205149896D01434F4A91651146896DB1
:102F40000140019100BF00BF04A8FDF7B7FC4FF49A
:102F5000FA666427069800F57A703146B0FBF1F006
:102F6000401E85B21320039000200290ADF820503F
:102F7000099013200A9000200B9008A96068FDF7C3
:102F80008DFD6068FFF743FF04216068026822F04E
:102F900004020A43026000BF00216068026822F058
:102FA00008020A43026000BF6068026822F07002F3
:102FB0000A43026000BF6068016821F0800101607F
:102FC00000BF00216068416200BF36212B4B1B68A7
:102FD000C3F302204FF0050C4FF000080346C3F185
:102FE000070BBBF1040F02D94FF0040B01E0C3F152
:102FF000070BDA4603F1040BBBF1070F02D24FF0C7
:10300000000B01E0A3F1030BD9464FF0010B0BFAC3
:103010000AFBABF1010B0BEA0C0B0BFA09FB4FF0AF
:10302000010E0EFA09FEAEF1010E0EEA080E4BEA91
:103030000E0200BF00290ADA10074FEA106C0F4891
:103040000C3001F00F031B1F00F803C003E0100752
:10305000030E0B48435400BF362000F01F0201212D
:1030600091404209920002F1E022C2F8001100BF33
:103070000DB000F007B80000001002400CED00E0B9
:1030800000E400E030BCBDE8C08F000010B504468D
:1030900000202070034860602046FFF745FF20466F
:1030A00010BD000000100040704773B5044604F1E5
:1030B0007805D4F8B41000235A1E0868194601F0A8
:1030C0003FFF9DF804002870D4F8B41000231A467E
:1030D0000868194602F062F800BF7CBD38B50446A6
:1030E00004F187026946204602F0F1FC9DED000ADA
:1030F00038BD38B5044604F18B026946204602F01B
:10310000E6FC9DED000A38BD70B504460D46164636
:10311000204600F058F870BD2DE9F04105460E46F6
:10312000174600244BE00A20B6FBF0F100FB1161CA
:1031300004EB440205F1300010F8220081423CD13A
:1031400004EB440105F1300000EB81004068A0B9B8
:103150000020804209D104EB440105F1300000EB6E
:103160008100007A00F00100A8B104EB440105F1F0
:10317000300000EB8100806868B104EB440205F187
:10318000300000EB8201284600F050F85521284617
:1031900000F033F810E004EB440205F1300010F8C1
:1031A00022102846FFF781FF0021284600F03EF854
:1031B0005A21284600F021F803E0601CC4B2032C19
:1031C000B1D3BDE8F08138B5044604F16E05D4F8FA
:1031D000B41000235A1E0868194601F0B1FE287881
:1031E0000090D4F8B41000231A460868194601F07C
:1031F000D5FF00BF9DF8000038BD73B5044604F14B
:103200006E05D4F8B41000235A1E0868194601F060
:1032100097FE9DF804002870D4F8B41000231A46D5
:103220000868194601F0BAFF00BF7CBDC0F87910EC
:103230007047000070B594B004460D46204600F07B
:1032400079FB04462422294904F13000FDF72EF8C9
:10325000C4F8B4503226324607A92548FFF74EFE7F
:103260009DF81E0030B9322207A904F18200FDF753
:103270001DF831E000208DF81E00FF208DF81F00A2
:103280004FF6FF70ADF81C0016221A4908A8FDF78A
:103290000DF81822184901A8FDF708F80198CDF893
:1032A00036000298CDF83A000398CDF83E00049914
:1032B000CDF842100599CDF846100699CDF84A1080
:1032C000324607A90A48FFF7FBFD322204F18201CA
:1032D0000748FFF713FE00BF632184F86E1000213A
:1032E000C4F87910204614B070BD0000AC5B000833
:1032F00064030020945B0008D05B000810B504460E
:10330000204600F059FB0446204610BD01464A689D
:103310001068026822F00402026000BF704770B5B6
:1033200004460D46164661680868816841F480418C
:10333000816000BFD4E90113324608682946FFF7CF
:103340006AFD62681F211068026822F4F81242EADE
:103350000142026000BF62681068026822F0787261
:1033600042EA4152026000BF626800211068826830
:1033700022F400420A43826000BF70BD70B503466C
:103380000C461546184600F07DF859680868016833
:1033900041F00801016000BF002108460FE000BFB6
:1033A0005A681168CA69C2F3C012002AF8D05E6870
:1033B000225C31680A8500BF411C89B20846A842D8
:1033C000EDDB00BF59680868C169C1F380110029AD
:1033D000F8D059680868016821F00801016000BF51
:1033E000184600F04FF870BD10B586B0044662680C
:1033F000D2E9080188476268D2E90D01884762680E
:10340000D2E9120188476268D2E90210884700BFFA
:103410006068C06900900220019002900020039033
:10342000049007200590616888696946FDF796F960
:103430000028EDD100BF6068006B00906168C86A29
:103440006946FDF78BF90028F5D100BF6068406C34
:1034500000906168086C6946FDF780F90028F5D195
:10346000616808690649096821EA104182B211437E
:10347000034A883AC2F8881000BF06B010BD0000A9
:10348000881002404268116801220A6200BF426847
:10349000116802220A6200BF4268116804220A62AF
:1034A00000BF4268116808220A6200BF704700002E
:1034B000F0B599B004460F464822454907A8FCF7E5
:1034C000F5FE00200690E06800EB400007A901EB44
:1034D000C001206900EB400001EB80008068019092
:1034E00000200590E06800EB400007A901EBC00157
:1034F000206900EB400051F820000390E06800EBE9
:10350000400007A901EBC001206900EB400001EB7E
:103510008000406802900020049061680868694655
:10352000FDF7FEFA61684869FDF7DAF9054661685A
:103530000868016801F400410E46626800211068C5
:10354000426822F400220A43426000BF61680868B2
:103550004021016200BF606800681E4988420ED0A9
:10356000606800681C49884209D0606800681B498F
:10357000884204D060680068194988421CD1207DC7
:1035800090B1062816D12046FEF716FE10B101288C
:1035900007D105E0324629462046FFF7C0FE01E08C
:1035A00000E000BF00BF06E032462946204600F09A
:1035B00019F800E000BF00BF61680868016841F0C9
:1035C0000101016000BF2046FFF75CFF19B0F0BDAC
:1035D0003C5C0008003801400044004000480040C6
:1035E0000080004070B504460D461646D4E901132C
:1035F000324608682946FFF70EFC70BD01464A684E
:103600001068026842F00402026000BF704710B503
:1036100004462046FFF736FF00BF61680868FFF7E1
:103620001AFC0028F9D061680868FFF710FC10BD8B
:103630002DE9F04104460D4616461F462046FEF78A
:10364000BEFD0446656096E80700C4E90312A06069
:1036500027752046BDE8F08110B504462046FEF7E8
:10366000B2FD0446204610BD816070477047024697
:1036700001F05500400001F0AA0340EA630101F0A7
:103680003300800001F0CC0340EAA3010807000EDC
:1036900040EA1111084670472DE9F04F8BB00646FD
:1036A0000C4618221C4905A8FCF700FE207800EB08
:1036B000D0714910A0EB4101C9B2049105AF3D465C
:1036C00007F1180A1EE0D5E901022968CDE90202D6
:1036D00001919DF80C100498814212D1029806EBDA
:1036E000600800F0010008B9019806E0D8F8000071
:1036F000019900EB0109D9F8000083464046D847FC
:1037000002E00C355545DED100BF20784010207016
:103710000BB000F003B800001C5B000830BCBDE833
:10372000C08F10B586B00446D4E902018847D4E9B9
:1037300007018847D4E90C018847D4E9110188477B
:10374000D4E91601884700BF60680090012001900D
:103750000320029000200390049069462068FCF743
:10376000FDFF0028F0D100BFA069009069466069A4
:10377000FCF7F4FF0028F7D100BFE06A009069462B
:10378000A06AFCF7EBFF0028F7D100BF206C009087
:103790006946E06BFCF7E2FF0028F7D100BF606DDF
:1037A00000906946206DFCF7D9FF0028F7D120462C
:1037B00000F0A7F8204600F08FF8204600F008F847
:1037C000204600F00CF8204600F017F806B010BDB7
:1037D00010B50446D4E90A01FEF7DAFE10BD10B5B3
:1037E0000446D4E90F01FEF7D5FE10BD10B504461E
:1037F000D4E90F01FEF7CCFE10BD10B50446D4E9A4
:103800001401FEF7C7FE10BD10B50446D4E914013B
:10381000FEF7BEFE10BD0000F8B507460C46154683
:103820002949084601F1100315E0024692F804C048
:10383000AC450FD100EE104AB8EE400A9FED231AB6
:10384000C0EE010A9FED221A9FED220A00EE810AC6
:1038500082ED000A08309842E7D1384600F043F87C
:10386000384600F047F80A26009509E069463846D0
:10387000FFF712FF3846FFF7B2FF3846FFF7B6FFF3
:103880003046711ECEB20828F0D821463846FFF7E0
:10389000EEFE009000BF69463846FFF7FDFE384651
:1038A000FFF79DFF3846FFF7A1FF301EA6F101018B
:1038B000CEB2F0D13846FFF7A0FF3846FFF78FFFB2
:1038C000384600F01EF8F8BD0000002000008043DC
:1038D0000050C3470000484210B50446D4E9050132
:1038E000FEF758FE10BD10B50446D4E90501FEF7F9
:1038F0004FFE10BD10B50446D4E90001FEF74AFEA4
:1039000010BD10B50446D4E90001FEF741FE10BD1C
:1039100070B504460D46642229462046FCF7C6FCD5
:103920009FED020A84ED190A204670BD00000000D8
:103930007047000015490968016015490968416030
:1039400014490968816014490968C160134909680C
:10395000016113490968416101888288891A09B2A5
:10396000018310490968C0F81A100F490968C0F8A6
:103970001E100E490968C0F822100D490968C0F8E8
:1039800026100C490968C0F82A107047C05C00086E
:10399000C45C0008C85C0008CC5C0008D05C00086F
:1039A000D45C0008D85C0008DC5C0008E05C00081F
:1039B000E45C0008E85C00087047000070B505464C
:1039C0000C46FDF7EFFB284600F040F8A4F100603C
:1039D000C60A1048406940F002000E494861084696
:1039E000406920F4FF6040EAC6004861084640692B
:1039F00040F48030486100BFFDF7E6FB0128FBD0B2
:103A00000448406920F0020002494861FDF796FA37
:103A100070BD0000002002402DE9F04707468846AF
:103A200015461C464FF00009FDF7BCFB264604EB8B
:103A3000050A534632464146384600F011F88146A1
:103A4000FDF77CFA4846BDE8F087000003490969A4
:103A50004CF2FB321143014A1161704700200240D1
:103A60002DE9F04107460D4614461E464FF0010869
:103A70002348406940F080702149486130E0384671
:103A8000FFF7E4FF71B61E48406940F001001C4991
:103A9000486101CD01C401CD01C400BFFDF794FB15
:103AA0000128FBD061B6384600F03BF800BF15484E
:103AB0000078012804D1002012490870804605E0F2
:103AC0000F48006900F001000028F0D000BF0C484A
:103AD000006940F001000A490861384600F014F816
:103AE000B442CCD30648406920F001000449486143
:103AF0000846406920F0807048614046BDE8F0818A
:103B000000200240610300204168CA6822F00102DF
:103B1000CA6000BF41680A6822F001020A6000BF63
:103B200070474168CA6842F00102CA6000BF41683C
:103B30000A6842F001020A6000BF704770B505468E
:103B40000C46224605F12A01284601F0D7FF70BD38
:103B500070B505460C46224605F12601284601F0BF
:103B6000CDFF70BD02E008C8121F08C1002AFAD1BB
:103B700070477047002001E001C1121F002AFBD1ED
:103B80007047000010B505490548FFF7C1FE04461F
:103B9000044A0549FCF7BEFB10BD00007000002080
:103BA00010050020000000083139000810B5054953
:103BB0000548FFF759FD0446044A0549FCF7AAFBEE
:103BC00010BD00004C030020E004002000000008AD
:103BD0006D36000810B50448FFF7ACFE0446034AF2
:103BE0000349FCF797FB10BD881700200000000870
:103BF000B939000810B50448FFF748FA0446034AEB
:103C00000349FCF787FB10BD640300200000000897
:103C1000A93000081CB508480849094B094ACDE9F4
:103C2000001009490948FEF791FA0446084A094973
:103C3000FCF770FB1CBD0000C401002090010020B7
:103C40005C01002028010020D4000020E88C002026
:103C500000000008A921000810B50A4A0A490B48CB
:103C6000FFF726F904460A4A0A49FCF753FB0022EB
:103C700009490A48FFF71CF90446054A0549FCF7BB
:103C800049FB10BD4400002038030020F004002050
:103C900000000008BF2E0008B00200200005002030
:103CA00010B501F055F80149086010BD1000002062
:103CB00010B505490548FFF7BDFA0446044A054911
:103CC000FCF728FB10BD0000500000207805002004
:103CD00000000008FD32000810B5002821D0114B6B
:103CE0000022001F196803E0814203D80A46496890
:103CF0000029F9D152B11368841A9C4204D100689A
:103D000018441060104602E0506000E0186039B1BD
:103D100002680B1A934203D10B681A440260496887
:103D2000416010BDD8040020FEF7B4FBFDF710F988
:103D3000FEF76EFA01F00CF80E490860FEF7ACFAD7
:103D400001F006F80B490860FEF78EFA01F000F862
:103D500008490860FEF786FA00F0FAFF0549086096
:103D6000FEF734FA00F0F4FF0249086000F04AFF61
:103D700000BFFEE710000020F0B50B30154D20F01D
:103D800007010024144A0FE003688B420BD38B42D7
:103D900005D95E1A43184768C3E9006700E0436825
:103DA000136002C004E0021D10680028ECD1204618
:103DB000002802D1286808B10020F0BD064A074853
:103DC0001060074A121A22F00702C0E900240120FD
:103DD0002860D7E7DC040020D8040020043000105D
:103DE000003200102DE9F04105460E461C480768D8
:103DF0001C480068001D00F0E5FC50B91948006837
:103E000090F82C1001208840174909688143164812
:103E10000160681C38B936B112480168091D1348A1
:103E200000F018FD1AE07C190E4800684460BC429E
:103E300007D20C480168091D0D48006800F0F0FC2D
:103E40000CE008480168091D0A48006800F0E8FC19
:103E500009480068844201D207480460BDE8F08147
:103E6000C4030020B0030020C80300204C1700202A
:103E7000B8030020B4030020E003002010B504467E
:103E800000F0F4FC24480068401C234908602348E3
:103E9000006840B9214804600846006801280DD137
:103EA00000F0BEF90AE01E48006838B91B480068F7
:103EB000C06AE16A884201D818480460194800685D
:103EC000401C1849086008460068606494F82C108B
:103ED0000120884014490968084313490860E16AD1
:103EE00001EB8101114A02EB8100211D00F0B2FCBF
:103EF00000F0E6FC0A48006868B108480068C06A3B
:103F0000E16A884207D24FF0805009490860BFF348
:103F10004F8FBFF36F8F10BDC0030020B003002090
:103F2000CC030020DC030020C80300207016002012
:103F300004ED00E010B500F099FC10480068D0B91D
:103F40000F4800F05DFC0F4800F05AFC0C480E4989
:103F500008600C480D49086000220C210A2000F07E
:103F6000C2FF064908600846006820B108A103485E
:103F7000006800F02BFD00F0A3FC10BDF40300204E
:103F80006017002074170020EC030020F0030020CD
:103F9000546D72510000000070B523E000F07CFE0B
:103FA0001348006808B9012000E00020054601F030
:103FB0009DFCBDB900F05AFC0D48C068C468201DC6
:103FC00000F000FC0B480068401E0A4908600A48DF
:103FD0000068401E0849086000F072FC204600F0AE
:103FE00060F800BF044800680028D7D170BD000009
:103FF00038170020C0030020BC03002070B5044621
:104000000D46206C70B1216CE0680844E060616886
:10401000E068884201D32068E0602846226CE168AD
:10402000FCF744F970BD2DE9F04104460F461546F2
:104030004FF00008A66B206C40B9206860BB606838
:1040400001F0A4FB80460020606025E07DB9394680
:10405000226CA068FCF72AF9216CA0680844A060D3
:10406000D4E90110884217D32068A06014E03946D3
:10407000226CE068FCF71AF9216CE068401AE060F5
:104080002168E068884203D2216C6068401AE060D1
:10409000022D01D106B1761E701CA0634046BDE81A
:1040A000F08110B50446206B00F028FC204600F09B
:1040B00025FC10BD0146084A126812680AB901229F
:1040C00000E000220A600A6822B9034A1268D26836
:1040D000106800E000207047EC0300200A4A22F03C
:1040E00007000A4A10600022084B5A6040F6F87236
:1040F000074B5A6000221A60014640F6F8724A6087
:104100001A460A6070470000380600208C03002021
:104110009403002000BFFFF73FFF00F067FBFAE7C2
:1041200010B504464CB1002060602060E0600023C0
:104130001A461946204601F031F810BD2DE9F0412C
:1041400006460D4617469846069C0DB9246000E0C9
:104150002760E66325640121204600F0D3FF84F840
:104160004C80BDE8F0812DE9F05F82460F46904615
:104170009B460A9E0C9C4FEA8801A522206BFCF707
:10418000A7F8A8F10100216B01EB800929F00709CC
:1041900009F0070008B9012000E0002050B900BF75
:1041A000302080F31188BFF34F8FBFF36F8F00BFB4
:1041B00000BFFEE7002507E0795D04F134004155BA
:1041C000785D00B902E06D1C102DF5D300BF002111
:1041D00043200155072E00D30626E662E664002040
:1041E0002065201D00F019FB04F1180000F015FBFC
:1041F0002461C6F10700A06164620020606584F854
:1042000058005A465146484600F0C6FA20600B98BE
:1042100008B10B98046000F000B830BCBDE8C09F46
:1042200010B5002407E004EB84010F4A02EB810083
:1042300000F0E6FA641C072CF5D30C4800F0E0FA15
:104240000B4800F0DDFA0B4800F0DAFA0A4800F0FB
:10425000D7FA0A4800F0D4FA04480949086004482B
:104260000849086010BD000070160020FC160020F0
:104270001017002024170020381700204C170020AA
:10428000B4030020B80300202DE9F04104460D4698
:1042900016461F464FF0000865602461B5420CD8F1
:1042A000F01BA169884202D34FF0010811E0211DE3
:1042B0000948006800F0B4FA0BE0BE4204D2BD42E7
:1042C00002D34FF0010804E0211D0448006800F00B
:1042D000A7FA4046BDE8F081F0030020EC0300207F
:1042E00070B5054600F0C2FAA86B08B9012400E0D9
:1042F000002400F0E5FA204670BD70B5054600F0D8
:10430000B5FAA86BE96B884201D1012400E00024D2
:1043100000F0D6FA204670BDF8B505460F4616489F
:104320000068C068C468201D00F04CFAE0690128EC
:104330001DD1A06941192B463A462046FFF7A4FF3C
:10434000A8B1002003462A4601460090204601F00D
:1043500079FB064656B900BF302080F31188BFF3C1
:104360004F8FBFF36F8F00BF00BFFEE700BF204637
:10437000616A8847F8BD0000EC03002070B586B084
:104380006AE00398002867DB059C606908B9012092
:1043900000E0002010B9201D00F014FA02A800F07F
:1043A000BDF8054603980A2854D2DFE800F0090555
:1043B0000731334F0608323400BF00BF00BF00BFD3
:1043C0000498A269811803462A462046FFF75CFF3D
:1043D000E8B12046616A8847E069012817D10020CA
:1043E00000900498A169421800231946204601F064
:1043F00029FB064656B900BF302080F31188BFF371
:104400004F8FBFF36F8F00BF00BFFEE700BF22E0FA
:1044100000BF20E000BF0498A061A06908B101209E
:1044200000E0002050B900BF302080F31188BFF3B6
:104430004F8FBFF36F8F00BF00BFFEE7A069411928
:104440002B462A462046FFF71FFF04E0204600F0D7
:1044500055FA00E000BF00BF00231A4603A9044834
:10446000006800F06DFD00288BD106B070BD000023
:10447000F4030020F8B505460C4600F00DFC684634
:1044800000F04CF80646009820BB44B9B54206D867
:1044900001F02CFA31462846FFF73EFF1CE03CB104
:1044A0000E480068006808B9012000E000200446BA
:1044B000A91B22460A48006800F09EFA01F016FA8D
:1044C00050B94FF0805007490860BFF34F8FBFF3DA
:1044D0006F8F01E001F00AFAF8BD0000F003002040
:1044E000F403002004ED00E00A490968096809B9ED
:1044F000012100E0002121B14FF0FF31064A116097
:1045000006E004490968C968C868034A416811603F
:1045100070470000B4030020E003002070B504469B
:1045200001F08AF8054607480068854204D200F089
:104530000BF80120206001E00020206001480560A8
:10454000284670BDFC0300202DE9F84332E02448E2
:104550000068C068056822480068C068C468201DFB
:1045600000F030F92046616A8847E069012821D1CE
:10457000A0694619AE4207D966602461211D18481A
:10458000006800F04DF915E0002003462A46014678
:104590000090204601F056FA074657B900BF302078
:1045A00080F31188BFF34F8FBFF36F8F00BF00BF41
:1045B000FEE700BF0A480068006808B9012000E073
:1045C00000200028C3D00648D0F8008005480068C5
:1045D000034908600348C0F80080BDE8F883000084
:1045E000EC030020F00300200E480068401C08B9CE
:1045F000012000E0002050B900BF302080F3118876
:10460000BFF34F8FBFF36F8F00BF00BFFEE700BF48
:10461000302080F31188BFF34F8FBFF36F8F00BF3F
:1046200000BFFEE7A403002008B500BF6846FFF7FF
:1046300041FD044620460099FFF71CFFFFF79EFE50
:10464000F4E770B5044600F011F994F9455010E014
:10465000606A08B9012000E0002038B904F12400A4
:1046600001F0F8F818B100F01BFA00E003E0681E52
:1046700045B2002DECDC00BFFF2084F8450000F0BF
:104680001FF900F0F3F894F9445010E0206908B9DC
:10469000012000E0002048B904F1100001F0DAF830
:1046A00008B100F0FDF9681E45B200E001E0002D00
:1046B000ECDC00BFFF2084F8440000F001F970BD7D
:1046C0002DE9F04104464FF0000800F0E5FA2648D5
:1046D000006820B9FFF702FD01202349086044B1BA
:1046E000083404F0070020B104F00700C0F108000E
:1046F0000444002C32D040F6F87084422ED21B4F76
:104700003846056801E02F462D686868A04202D24D
:1047100028680028F7D1164885421FD0386800F174
:104720000808286838606868001B102810D92E19FE
:104730006868001B70606C6071680C4800E000687D
:10474000026852688A42FAD302683260066000BF8B
:10475000084968680968081A0649086001F0C6F83F
:104760004046BDE8F0810000A00300208C0300203B
:10477000940300209C0300200648006830B10549DE
:10478000096801F15000096D491C01600148006889
:1047900070470000B0030020001F4FF080730360DB
:1047A000001F21F001030360001F054B0360143854
:1047B0000260001F6FF002030360203870470000A2
:1047C000E945000801460A69D1E901309860D1E95C
:1047D000010358605068884201D188685060002009
:1047E00008611068401E1060106870477047000034
:1047F000024A1268521C014B1A6070476800002080
:1048000000F1080141604FF0FF31816000F10801C3
:10481000C1600161002101607047002101617047A2
:1048200010B502460B685C1C0CB9106907E002F178
:10483000080000E04068446824689C42FAD9446853
:104840004C604C68A160886041600A611468641C17
:10485000146010BD42684A6093688B609368596029
:104860009160086103685B1C0360704700BF3020E3
:1048700080F31188BFF34F8FBFF36F8F00BF0E48D7
:104880000068401C0C49086008460068012812D1E5
:104890000A480068C0B208B9012000E0002050B901
:1048A00000BF302080F31188BFF34F8FBFF36F8FAD
:1048B00000BF00BFFEE77047A403002004ED00E046
:1048C0000D48006850B900BF302080F31188BFF355
:1048D0004F8FBFF36F8F00BF00BFFEE70648006831
:1048E000401E054908600846006820B9002080F392
:1048F000118800BF00BF7047A403002070B50646B2
:104900003546B6B1083D2C4600F0C6F96168094845
:1049100000E00068026852688A42FAD302682260A6
:10492000046005496068096808440349086000F0AC
:10493000DDFF70BD8C0300209C03002000204FF0A1
:10494000E0210861886141F63F70486107200861F5
:104950007047000070B5FBF783FC0446102C16D39B
:1049600004F1E02090F8F05315480078854201DB0F
:10497000012000E0002050B900BF302080F31188F2
:10498000BFF34F8FBFF36F8F00BF00BFFEE70D482F
:10499000006800F4E0600C490968884201D80120F1
:1049A00000E0002050B900BF302080F31188BFF331
:1049B0004F8FBFF36F8F00BF00BFFEE770BD0000D9
:1049C000A80300200CED00E0AC030020024600200C
:1049D0000BE0084B53F8303033B9064B43F8301036
:1049E00003EBC0035A6002E0401C0828F1D300BF6B
:1049F00070470000301600202DE9F04105460E46B4
:104A000017462C46FFF732FF94F94400401C10B9BA
:104A1000002084F8440094F94500401C10B900209F
:104A200084F84500FFF74CFFA06B28B93A463146A1
:104A300004F1240000F056F82046FFF702FEBDE81E
:104A4000F081000070B504460025D4B1124800681A
:104A500008B9012000E0002050B900BF302080F3E9
:104A60001188BFF34F8FBFF36F8F00BF00BFFEE70A
:104A700000F012F900212046FFF7B4F900F036FFEC
:104A800005463DB94FF0805004490860BFF34F8F91
:104A9000BFF36F8F70BD0000E803002004ED00E05D
:104AA0000120014908607047D403002070B5044616
:104AB0000D4654B900BF302080F31188BFF34F8FEB
:104AC000BFF36F8F00BF00BFFEE7054801681831D4
:104AD0002046FFF7A5FE01212846FFF783F970BDA8
:104AE000B003002070B505460E46144655B900BF08
:104AF000302080F31188BFF34F8FBFF36F8F00BF5B
:104B000000BFFEE70648016818312846FFF7A2FEFD
:104B10000CB14FF0FF3621463046FFF763F970BD08
:104B2000B003002070B505462C46002D4BD0264919
:104B3000E06A0968C96A884245D2A06900F000406D
:104B400028B921480068C06AC0F10700A061E16A85
:104B500001EB81011D4A02EB81016069884201D1AC
:104B6000012000E0002050B3201DFFF72BFE78B994
:104B7000E06A00EB8000154951F8200040B994F834
:104B80002C100120884012490968814310480160B7
:104B90000D480068C06AE06294F82C10012088403B
:104BA0000B49096808430A490860E16A01EB810181
:104BB000064A02EB8100211DFFF74CFE03E002488C
:104BC0000068C06AE06270BDB0030020701600206B
:104BD000C803002050B900BF302181F31188BFF312
:104BE0004F8FBFF36F8F00BF00BFFEE70349096817
:104BF000016003490968416070470000D803002044
:104C0000C40300201CB51D4800210B464022CDE9FD
:104C100000101BA11C4800F0CBFC0446012C02D163
:104C200000F0E6FE0446012C15D100BF302080F3D1
:104C30001188BFF34F8FBFF36F8F00BF4FF0FF306E
:104C400012490860012012490860002011490860DB
:104C500000F084F810E0601C08B1012000E00020A2
:104C600050B900BF302080F31188BFF34F8FBFF3DE
:104C70006F8F00BF00BFFEE71CBD0000E4030020F3
:104C800049444C450000000015410008E0030020A5
:104C9000CC030020C403002002480068401C0149E6
:104CA00008607047E803002010B52448006818B178
:104CB00001202349086040E0002021490860214884
:104CC000006800681F490968096B884205D81D48BB
:104CD000016834310068FFF78BFD1B480068B0FAAB
:104CE00080F0C0F11F0101EB8100184A52F820004A
:104CF00008B1012000E0002050B900BF302080F34F
:104D00001188BFF34F8FBFF36F8F00BF00BFFEE767
:104D100001EB81020D4B03EB820042685268426056
:104D200000F108024368934202D14268526842602F
:104D30004268D268034B1A6000BF10BDE803002030
:104D4000D4030020B0030020C80300207016002008
:104D500001480068704700009C0300201CB55248C1
:104D600000685249884201D0012000E0002050B97B
:104D700000BF302080F31188BFF34F8FBFF36F8FD8
:104D800000BF00BFFEE7484800684849491E884206
:104D900001D0012000E0002050B900BF302080F396
:104DA0001188BFF34F8FBFF36F8F00BF00BFFEE7C7
:104DB0003F49084600780190FF200A4610700846D7
:104DC000007800909DF8000000F0F0009DF80020B1
:104DD000904201D1012000E0002050B900BF3020F6
:104DE00080F31188BFF34F8FBFF36F8F00BF00BFF9
:104DF000FEE79DF8000000F030002E4A10700720FA
:104E00002D4A106009E02C480068401E2A4A1060B4
:104E10009DF800004006000E00909DF8000000F094
:104E200080008028EFD024480068C0F107000428E3
:104E300001D1012000E0002050B900BF302080F3F4
:104E40001188BFF34F8FBFF36F8F00BF00BFFEE726
:104E5000194800680002184A10601046008800F4E3
:104E6000E0601060124A019810700F48203000680E
:104E700040F470000C49203108600846006840F09A
:104E800070400860FFF75AFD00200C490860FBF7EE
:104E9000AFF90B48006840F0404009490860FBF753
:104EA00093F900201CBD000000ED00E071C20F412D
:104EB00000E400E0A8030020AC030020A4030020CD
:104EC00034EF00E02DE9F041044601260027224698
:104ED0000021012000F007F805462846FFF720F9D9
:104EE0002846BDE8F0812DE9F84305460E46904678
:104EF0000DB1012000E0002050B900BF302080F348
:104F00001188BFF34F8FBFF36F8F00BF00BFFEE765
:104F10000EB9002701E005FB06F707F15000FFF787
:104F2000CFFB044644B104F1500943464A4631469A
:104F300028460094FFF702F92046BDE8F8830000F8
:104F40002DE9FF4782B005460E461F464FF0000A86
:104F50002C4654B900BF302080F31188BFF34F8F27
:104F6000BFF36F8F00BF00BFFEE70EB9206C08B91A
:104F7000012000E0002050B900BF302080F31188EC
:104F8000BFF34F8FBFF36F8F00BF00BFFEE700F08E
:104F900043FB08B9049808B9012000E0002050B98B
:104FA00000BF302080F31188BFF34F8FBFF36F8FA6
:104FB00000BF00BFFEE700BFFFF758FCD4F83890F1
:104FC000B9F1000F3DD0D4F80C8031462046FFF7F0
:104FD00015F8DFB9A9F10100A063206810B9FFF747
:104FE000CBFB6060206908B9012000E0002010BB05
:104FF00004F1100000F02EFCE8B14FF08050404961
:105000000860BFF34F8FBFF36F8F14E0C4F80C80BC
:10501000606A08B9012000E0002060B904F12400B2
:1050200000F018FC38B14FF0805035490860BFF3EC
:105030004F8FBFF36F8FFFF743FC012006B0BDE831
:10504000F087049818B9FFF73BFC0020F6E7BAF1A7
:10505000000F04D16846FFF7BDFD4FF0010AFFF7CE
:105060002FFCFFF719FEFFF701FC94F94400401CE8
:1050700010B9002084F8440094F94500401C10B990
:10508000002084F84500FFF71BFC04A9684600F0E7
:1050900049FA40BB2046FFF723F9F0B1206830B948
:1050A000FFF7E4FB6068FFF73DFDFFF709FC04F143
:1050B00024000499FFF7FAFC2046FFF7C2FA00F03B
:1050C00015FC00287FF478AF4FF080500C49086041
:1050D000BFF34F8FBFF36F8F6EE72046FFF7B1FA34
:1050E00000F004FC68E72046FFF7ABFA00F0FEFB97
:1050F0002046FFF7F5F80028EED000209EE70000DC
:1051000004ED00E070B505460E462C4654B900BFCC
:10511000302080F31188BFF34F8FBFF36F8F00BF34
:1051200000BFFEE7FFF7A2FBD4E90F12206801FBE6
:10513000020060600020A0632068A060E06B401E59
:10514000226C216800FB0210E060FF2084F844001C
:1051500084F845009EB9206908B9012000E00020CC
:10516000A8B904F1100000F075FB80B14FF0805039
:1051700009490860BFF34F8FBFF36F8F07E004F159
:105180001000FFF73DFB04F12400FFF739FBFFF7A8
:1051900097FB012070BD000004ED00E02DE9FF4306
:1051A00083B0064688461D464FF00009344654B980
:1051B00000BF302080F31188BFF34F8FBFF36F8F94
:1051C00000BF00BFFEE7B8F1000F01D1206C08B9A5
:1051D000012000E0002050B900BF302080F311888A
:1051E000BFF34F8FBFF36F8F00BF00BFFEE7022DED
:1051F00002D1E06B012801D1012000E0002050B96C
:1052000000BF302080F31188BFF34F8FBFF36F8F43
:1052100000BF00BFFEE700F0FFF908B9059808B924
:10522000012000E0002050B900BF302080F3118839
:10523000BFF34F8FBFF36F8F00BF00BFFEE700BF0C
:10524000FFF714FBA06BE16B884201D3022D28D13C
:105250002A4641462046FEF7E6FE0746606A08B940
:10526000012000E0002068B904F1240000F0F2FA07
:1052700088B14FF0805032490860BFF34F8FBFF3C1
:105280006F8F08E03FB14FF080502D490860BFF3A9
:105290004F8FBFF36F8FFFF713FB012007B0BDE8FF
:1052A000F083059818B9FFF70BFB0020F6E7B9F17A
:1052B000000F04D101A8FFF78DFC4FF00109FFF7A3
:1052C000FFFAFFF7E9FCFFF7D1FA94F94400401C1C
:1052D00010B9002084F8440094F94500401C10B92E
:1052E000002084F84500FFF7EBFA05A901A800F0BB
:1052F00019F9F0B92046FFF700F8A0B104F1100049
:105300000599FFF7D3FB2046FFF79BF900F0EEFA73
:10531000002895D14FF0805009490860BFF34F8FA6
:10532000BFF36F8F8CE72046FFF78BF900F0DEFAB2
:1053300086E72046FFF785F900F0D8FA0020ADE7B0
:1053400004ED00E02DE9F05F07468A4690461E46D0
:105350003C4654B900BF302080F31188BFF34F8F13
:10536000BFF36F8F00BF00BFFEE7BAF1000F01D19E
:10537000206C08B9012000E0002050B900BF3020A7
:1053800080F31188BFF34F8FBFF36F8F00BF00BF53
:10539000FEE7022E02D1E06B012801D1012000E0DE
:1053A000002050B900BF302080F31188BFF34F8F29
:1053B000BFF36F8F00BF00BFFEE7FFF7CBFA00BF60
:1053C0003021EFF3118081F31188BFF34F8FBFF3CA
:1053D0006F8F00BF0546A06BE16B884201D3022EA0
:1053E00023D194F945B0324651462046FEF71BFEC4
:1053F0000BF1010088B9606A08B9012000E00020C3
:1054000080B904F1240000F025FA58B1B8F1000F7A
:1054100008D00120C8F8000004E00BF1010040B200
:1054200084F845004FF0010901E04FF0000900BF8A
:1054300085F3118800BF484600F000B830BCBDE8D5
:10544000C09F2DE9F04706460F46344654B900BFC9
:10545000302080F31188BFF34F8FBFF36F8F00BFF1
:1054600000BFFEE7206C08B9012000E0002050B921
:1054700000BF302080F31188BFF34F8FBFF36F8FD1
:1054800000BF00BFFEE7206808B9606808B90120C6
:1054900000E0002050B900BF302080F31188BFF336
:1054A0004F8FBFF36F8F00BF00BFFEE7FFF752FAC9
:1054B00000BF3021EFF3118081F31188BFF34F8FCC
:1054C000BFF36F8F00BF0546D4F83890E06B4845B6
:1054D0001ED994F945A009F10100A0630AF1010069
:1054E00070B9606A08B9012000E0002068B904F1D1
:1054F000240000F0AFF940B13FB10120386004E072
:105500000AF1010040B284F845004FF0010801E0C3
:105510004FF0000800BF85F3118800BF4046BDE88A
:10552000F087000070B504460D4654B900BF302026
:1055300080F31188BFF34F8FBFF36F8F00BF00BFA1
:10554000FEE755B900BF302080F31188BFF34F8FBD
:10555000BFF36F8F00BF00BFFEE7FFF787F9124868
:1055600003682868401C08B9002619E00F49206824
:105570000968884204D06068984201D801260FE08B
:105580006068181A2968884209D228686168591A1F
:10559000401A28602046FFF71DFB002600E0012688
:1055A000FFF78EF9304670BDC4030020D8030020F9
:1055B0002DE9FF4F85B0804689461746DDE912ABDD
:1055C000B800FFF77DF8064656B15C20FFF778F883
:1055D00004460CB1266304E03046FFF78FF900E083
:1055E00000247CB10020CDE900ABCDE902403A4671
:1055F00049464046089BFEF7B6FD2046FEF73EFCB6
:10560000012501E04FF0FF35284609B000F000B851
:1056100030BCBDE8C08F00000549096809B9012008
:1056200005E00449096809B9022000E0002070473C
:10563000CC030020E80300200149086870470000FF
:10564000C40300202DE9F0414FF0000844480068F1
:10565000002877D143480068451C4248056015BBC7
:1056600041480068006808B9012000E0002050B9F6
:1056700000BF302080F31188BFF34F8FBFF36F8FCF
:1056800000BF00BFFEE73848076838480068364961
:1056900008603648076036480068401C3449086096
:1056A000FEF722FF00BF3348006885423CD300BFAD
:1056B0002D480068006808B9012000E0002020B1F2
:1056C0004FF0FF302B4908602DE027480068C06884
:1056D000C4686668B54202D22648066023E0201DF1
:1056E000FFF770F8A06A18B104F11800FFF76AF824
:1056F00094F82C10012088401F49096808431E496E
:105700000860E16A01EB81011C4A02EB8100211D66
:10571000FFF7A0F81A49E06A0968C96A8842C7D346
:105720004FF00108C4E700BF15480068C06A00EBED
:105730008000124951F82000012801D94FF00108DA
:1057400005E0FFE70F480068401C0E4908600E485E
:10575000006808B14FF001084046BDE8F081000044
:10576000E8030020C4030020B4030020B803002095
:10577000D8030020E0030020C8030020701600209A
:10578000B0030020D0030020D403002070B50546EC
:105790002C460026002D55D02B480068844201D1AC
:1057A000012000E0002050B900BF302080F31188B4
:1057B000BFF34F8FBFF36F8F00BF00BFFEE7206DB9
:1057C00050B900BF302080F31188BFF34F8FBFF373
:1057D0006F8F00BF00BFFEE7206D401E2065E16CAB
:1057E000E06A88422ED0206D60BB201DFEF7EAFFE4
:1057F00078B9E06A00EB8000144951F8200040B904
:1058000094F82C1001208840114909688143104800
:105810000160E06CE062E06AC0F10700A06194F80A
:105820002C10012088400A4909680843084908608B
:10583000E16A01EB8101054A02EB8100211DFFF7BE
:1058400009F80126304670BDB00300207016002014
:10585000C803002070B50646F068C46854B900BF9C
:10586000302080F31188BFF34F8FBFF36F8F00BFDD
:1058700000BFFEE704F11800FEF7A4FF154800681A
:10588000A8B9201DFEF79EFF94F82C100120884037
:1058900011490968084310490860E16A01EB810178
:1058A0000E4A02EB8100211DFEF7D4FF04E004F153
:1058B00018010B48FEF7CEFF0A49E06A0968C96A79
:1058C000884204D9012501200749086000E000252D
:1058D000284670BDE8030020C80300207016002091
:1058E00024170020B0030020D403002070B500244A
:1058F00000263648006850B900BF302080F3118878
:10590000BFF34F8FBFF36F8F00BF00BFFEE7FEF7FF
:10591000ADFF2E480068401E2C490860084600680C
:1059200000284FD12A48006800284BD024E029489D
:10593000C068C46804F11800FEF744FF201DFEF79C
:1059400041FF94F82C10012088402349096808433E
:1059500021490860E16A01EB8101204A02EB8100E4
:10596000211DFEF777FF1E49E06A0968C96A88426F
:1059700002D301201B4908601648006808B90120BD
:1059800000E000200028D2D00CB1FEF7ADFD164893
:10599000056865B100BFFFF755FE10B10120114940
:1059A00008606D1E002DF6D100200F4908600D48DB
:1059B000006838B1012630070C490860BFF34F8FEB
:1059C000BFF36F8FFEF77CFF304670BDE803002009
:1059D000C003002024170020C803002070160020F8
:1059E000B0030020D4030020D003002004ED00E029
:1059F0001CB50024FEF79EFA0D48006850B10D4812
:105A0000022100234022CDE900100BA10C48FFF732
:105A1000CFFD044654B900BF302080F31188BFF396
:105A20004F8FBFF36F8F00BF00BFFEE720461CBD46
:105A3000F4030020F8030020546D722053766300B5
:105A4000294600082DE9FE4304460D4616461F462A
:105A5000DDF828804FF0000954B900BF302080F3F2
:105A60001188BFF34F8FBFF36F8F00BF00BFFEE7FA
:105A70001448006810B3009501960294062D15DABB
:105A8000FFF7CAFD022808D10023424669460D48A7
:105A90000068FFF783FB814610E000231A46694641
:105AA00008480068FFF77AFB814607E000233A4682
:105AB000694604480068FFF745FC8146484600F007
:105AC00003B80000F403002006BCBDE8F88370B5FD
:105AD00004460D461646D4F8B41000235A1E086832
