:020000040800F2
:10000000204D002089020008910200089302000898
:1000100095020008970200089902000800000008F5
:10002000284C0000000077A700F80308A901000889
:100030009D02000800000000050200083D0E0008B7
:10004000A3020008A3020008A3020008A3020008FC
:1000500041050008A3020008A3020008A30200084B
:10006000A3020008A3020008A3020008A3020008DC
:10007000A3020008A3020008A3020008A3020008CC
:10008000A3020008A3020008A3020008A3020008BC
:10009000A3020008A3020008A30200083D04000810
:1000A000A3020008A3020008A3020008A30200089C
:1000B000A302000800000000000000005505000831
:1000C00051050008AF050008AD050008A3020008AF
:1000D000A3020008A3020008A3020008A30200086C
:1000E000A3020008A30200080000000000000000B6
:1000F0000000000000000000000000000000000000
:1001000000000000A302000800000000A302000895
:100110000000000000000000C10E0008A30200085B
:10012000A3020008A3020008A3020008A30200081B
:10013000A302000800000000000000000000000012
:10014000A3020008A3020008A302000800000000A8
:10015000A3020008A3020008A3020008A3020008EB
:10016000A3020008A3020008A30200080000000088
:10017000A3020008A3020008000000000000000025
:10018000A3020008A3020008A3020008DFF814D0AD
:1001900000F0FEF800F0AEF800480047B52900086E
:1001A00000F0D4F8204D00202C4B1968086800F0AE
:1001B0005AB880F30988BFF36F8F4FF0000080F3C7
:1001C000118870470000000008480068006880F34C
:1001D00008884FF0000080F3148862B661B6BFF360
:1001E0004F8FBFF36F8F00DF00BF00BF08ED00E04F
:1001F000DFF80C00016841F470010160704700BF36
:1002000088ED00E0EFF30980BFF36F8F134B1A689E
:100210001EF0100F08BF20ED108A20E9F04F10608B
:1002200009B44FF0300080F31188BFF34F8FBFF354
:100230006F8F03F085FB4FF0000080F3118809BC3D
:100240001968086800F014B81EF0100F08BF00F01D
:1002500014B880F30988BFF36F8F7047900C0020AB
:10026000EFF30580704730C8B0E8C04FFFF7A1BF7B
:1002700030C8B0E8C04FFFF7E7BFB0EC088AB0EC79
:1002800008CAFFF7E6BF0000064880470648004757
:10029000FEE7FEE7FEE7FEE7FEE7FEE7FEE7FEE736
:1002A000FEE7FEE7710E00088D01000840EA010339
:1002B0009B0703D009E008C9121F08C0042AFAD21C
:1002C00003E011F8013B00F8013B521EF9D27047E0
:1002D000D2B201E000F8012B491EFBD27047002288
:1002E000F6E710B513460A4604461946FFF7F0FF35
:1002F000204610BD70B5054C054D03E02068204434
:100300008047241DAC42F9D170BD0000304B00087D
:100310004C4B00082DE9F041074615460E461020CB
:1003200002F076FB04000AD06760C4E9026500F0C1
:1003300009F80168216004600020BDE8F081012017
:10034000FBE7000000487047540D00202DE9F04104
:100350000646FFF7F7FF8046454613E016B1E06812
:10036000B0420ED120682860D4E90101D8F80070AD
:100370008847204602F0F6FAD8F80000B842EBD1E0
:1003800000E025462C68002CE8D1BDE8F081000093
:10039000064C074D06E0E06840F0010394E80700D2
:1003A00098471034AC42F6D3FFF7F4FE104B000828
:1003B000304B0008704770B58C1810F8015B15F0D1
:1003C000070301D110F8013B2A1106D110F8012BC7
:1003D00003E010F8016B01F8016B5B1EF9D12B07EC
:1003E00005D40023521E0DD401F8013BFAE710F8A2
:1003F000013BCB1A921C03E013F8015B01F8015B8F
:10040000521EF9D5A142D8D3002070BD10B50446C4
:100410004FF08040406B20444FF080414863022100
:10042000480700F069FD01220221480700F088FD1D
:1004300010BD10B5172000F013FB10BD10B5402003
:1004400000F068F8002852D0402000F057F8FFF77D
:10045000F0FF2748007818B3242840D0272835D04B
:10046000402843D10006406A4FF08041486321484C
:1004700000781F2805DA1F480078401C1D490870C5
:100480000BE01C4800781F2807D11A480078401C50
:100490001849087001201849087000F009FC25E08F
:1004A0004FF08040406A14304FF08041C86308210B
:1004B000C80600F021FD00220221480700F040FD9F
:1004C00001220821C80600F03BFD0FE04FF08040FC
:1004D000406A4FF08041486300F0EAFB06E01020DC
:1004E00000F0D5FA30200249087000BF00BF10BDEF
:1004F000180D0020220D0020230D0020034A52F881
:100500002010034A116000BF70470000A449000892
:10051000140401400146044A52F82100034A1268BB
:100520000240D0B270470000A44900081404014002
:1005300010B54020FFF7E2FF172000F09DFA10BD34
:1005400002480078401C0149087070474C0C00209C
:100550007047000010B500BF12488069C0F340002A
:1005600010B101F0A9FA1CE000BF0E488069C0F389
:10057000800010B101F030FA13E000BF0948806933
:10058000C0F3401028B10848007810B901F05CFAB7
:1005900007E000BF03488069C0F3801008B101F094
:1005A000B7F910BD00540040680C00207047704738
:1005B000F0B503460A4600240021106890FAA0F026
:1005C000B0FA80F47FE00125A540106800EA05013B
:1005D000002977D050681D6891FAA1F6B6FA86F620
:1005E00077000326BE40B54391FAA1F6B6FA86F627
:1005F000760000FA06F635431D6000BF50680128FA
:1006000002D05068022814D190689D6891FAA1F632
:10061000B6FA86F677000326BE40B54391FAA1F6F6
:10062000B6FA86F6760000FA06F635439D6000BFFE
:1006300000BF1069DD6891FAA1F6B6FA86F6770078
:100640000326BE40B54391FAA1F6B6FA86F67600C7
:1006500000FA06F63543DD6000BF5068022831D14C
:1006600091FAA1F0B0FA80F0082814D250691D6AFE
:1006700091FAA1F6B6FA86F6B7000F26BE40B5434A
:1006800091FAA1F6B6FA86F6B60000FA06F63543F8
:100690001D6200BF16E050695D6A0E0A96FAA6F662
:1006A000B6FA86F6B7000F26BE40B5430E0A96FA94
:1006B000A6F6B6FA86F6B60000FA06F635435D628F
:1006C00000BF00BF641C1068E04000287FF47BAFCF
:1006D0005068012802D05068022809D1D5681068F6
:1006E0005E68864300FB05F73E435E6000BF00BFC7
:1006F0000020F0BD4FF47A71B0FBF1F2521E4FF0C2
:10070000E0235A6100229A6105221A6100BF7047F6
:1007100010B5044600F002FA2060206800F0CAF923
:100720006060606800F0D6F9A060606800F0E4F9ED
:10073000E06010BD2DE9F04104460025032C29D1CD
:10074000204600F085F8B0F5403F18D06FF44031F6
:10075000084420B1012806D002280FD108E000F09B
:10076000DDF9054615E000F07DF800B1374D10E0E9
:1007700000F080F808B14FF400450AE000BF00F037
:10078000CDF9074600F096F9064600F0B5F90546A2
:1007900000BF57E00C2C29D1204600F059F8B0F5E5
:1007A000402F18D0A0F54020001F20B1042806D00B
:1007B00008280FD108E000F0B1F9054615E000F077
:1007C00051F800B1214D10E000F054F808B14FF499
:1007D00000450AE000BF00F0A1F9074600F06AF901
:1007E000064600F077F9054600BF2BE0302C29D1F2
:1007F000204600F02DF8B0F5401F18D0A0F54010AD
:10080000103820B1102806D020280FD108E000F0C1
:1008100085F9054615E000F025F800B10B4D10E014
:1008200000F028F808B14FF400450AE000BF00F0DE
:1008300075F9074600F03EF9064600F04BF905460B
:1008400000BF00BF2846BDE8F08100000024F4008E
:10085000014603480068084040EA01407047000034
:100860008810024002480068C0F3802070470000F2
:100870000010024002480068C0F3400070470000CA
:10088000901002400248006800F0F000704700003D
:10089000001002400248006800F4706070470000D9
:1008A0009410024002480068C0F3C0007047000086
:1008B000001002400248C06800F07000704700005D
:1008C000001002400248C06800F0030070470000BA
:1008D000001002400248C068C0F3062070470000C4
:1008E000001002400149086070470000500D0020D0
:1008F00010B5024613681C48824202D0B2F1804F04
:1009000004D123F070004C6840EA04031648824288
:1009100008D0B2F1804F05D01448824202D014486A
:10092000824204D123F44070CC6840EA040313608F
:100930008868D06200BF0888906200BF0A4882427F
:1009400005D00A48824202D00948824203D1087C7D
:10095000106300BF00BF00BF506940F0010050614C
:1009600000BF002010BD0000002C014000400140ED
:10097000004401402DE9F04104460D4601270026C0
:10098000204600F067F8002859D1E96868680843F4
:1009900029690843A969084321682A4A1140084384
:1009A0002060A868616821F440510143616000BF84
:1009B0006869A16821F440710143A16000BF224829
:1009C000844204D10320FFF7B5FE06460EE01F481F
:1009D000844204D10C20FFF7ADFE064606E01C4819
:1009E000844203D13020FFF7A5FE06463EB32868B7
:1009F00028B300273146AA69286800239C46B2F52F
:100A0000004F12D14FEA410808EB5008B8FBF0F84C
:100A10001FFA88F34FF6F07803EA080CC3F3420894
:100A20004CEA080CC4F80CC007E001EB5008B8FB16
:100A3000F0F81FFA88F8C4F80C8000BF00BF3846F1
:100A4000BDE8F081F369FFEF003801400044004049
:100A5000004800400146086800F0010070470000AF
:100A600000F01F0201219140024A430942F823107D
:100A70007047000080E100E000F01F02012191407A
:100A80004209920002F1E022C2F80011704710B54D
:100A900004464FF08040406A20444FF08041486354
:100AA0000221480700F028FA01220221480700F03D
:100AB00047FA10BD014600BF0448806800F0F0000E
:100AC0000009034A125C21FA02F07047001002404C
:100AD000C84A0008014600BF0548806800F4E0608D
:100AE000044A02EB1020027821FA02F0704700005D
:100AF00000100240D84A0008014600BF054880683F
:100B000000F46050044A02EBD020027821FA02F08F
:100B10007047000000100240D84A000810B50024B9
:100B200000BF2948806800F00C0030B1042822D0B2
:100B3000082822D00C2826D121E0FFF7B3FE60B9A7
:100B4000FFF7B0FE10B1FFF79DFE01E0FFF7A2FE38
:100B5000000A1E4951F820000BE0FFF7A3FE10B178
:100B6000FFF790FE01E0FFF795FE0009174951F8E5
:100B70002000044625E0164C23E0164C21E000F04E
:100B80002BF804461DE0FFF78DFE60B9FFF78AFEE3
:100B900010B1FFF777FE01E0FFF77CFE000A0B497A
:100BA00051F820000BE0FFF77DFE10B1FFF76AFE61
:100BB00001E0FFF76FFE0009044951F820000446E8
:100BC00000BF00BF204610BD00100240E04A0008F0
:100BD0000024F40000127A0070B500240025FFF70D
:100BE00071FE0546012D04D0022D20D0032D22D107
:100BF0001FE0FFF757FE60B9FFF754FE10B1FFF793
:100C000041FE01E0FFF746FE000A254951F82000A9
:100C10000BE0FFF747FE10B1FFF734FE01E0FFF7EE
:100C200039FE00091E4951F82000044621E01D4C00
:100C30001FE01D4C1DE0FFF735FE60B9FFF732FEE7
:100C400010B1FFF71FFE01E0FFF724FE000A144970
:100C500051F820000BE0FFF725FE10B1FFF712FE60
:100C600001E0FFF717FE00090D4951F82000044686
:100C700000BF00BFFFF71EFE012101EB1010B4FB07
:100C8000F0F6FFF727FE46430848C06800F0C06052
:100C9000012101EB50604000B6FBF0F070BD000098
:100CA000E04A00080024F40000127A00001002401C
:100CB00010B5FFF73DFC30480078202809DB4FF4E1
:100CC0004870FFF7A3FB00202C4908702C490870DE
:100CD00050E00020294908702A4800682A4909681C
:100CE000884219D02748006800782349097888424B
:100CF00007D024480068007818B1214800780228FD
:100D00000AD12248007820F00200204908701D48CE
:100D1000006800F049F810BD1D480068B0B11B48DC
:100D2000007800F0040088B919480068007812497A
:100D3000097888420AD11548007840F0020013492A
:100D400008701348006800F02FF8E4E70F480078B7
:100D500000F0800038B14FF41670FFF757FB012008
:100D60000749087006E04FF44870FFF74FFB00207A
:100D70000349087000BFCEE7220D0020180D0020A7
:100D8000200D00202C0D0020300D0020210D002012
:100D9000280D0020010C034A1170010E5170010A48
:100DA00091707047A80A002070B50446A01C1C4929
:100DB00008601C48007800F0020050B9084601683D
:100DC0001948814205D316480068A0F5807014497F
:100DD000086000201549087015490870104800681F
:100DE0000078401C13490870032013490870641CE4
:100DF0000C48007800F0020020B90B48844201D36F
:100E0000A4F580742578032D03DC7820FFF7FEFA23
:100E100005E005EB8501C904080CFFF7F7FA70BD82
:100E2000340D0020210D0020203A00203A0D002032
:100E30003C0D0020380D0020200D002010B500BF13
:100E4000302080F31188BFF34F8FBFF36F8F00BF47
:100E500003F044FA18B14FF080500449086000BF15
:100E6000002080F3118800BF10BD000004ED00E0F9
:100E70001048006840F470000E4908600E48006891
:100E800040F001000C4908600020886008460068B6
:100E90000A490840084908608814C8600846006884
:100EA00020F48020086000208861C803014980394F
:100EB0000860704788ED00E000100240FFFFF6EA8E
:100EC00000BF0A48006900F0010070B10120084924
:100ED000087008480078401C0649087000BF6FF091
:100EE00001000249086100BF00BF704700100040C8
:100EF000410C0020400C00202DE9F04188B007464D
:100F00000D4618220D4902A8FFF7D0F902AE34466B
:100F100006F118080DE0D4E90001CDE900010098C0
:100F2000A84205D138460199884708B0BDE8F0814C
:100F300008344445EFD100BFF7E70000344A000809
:100F40002DE9F0438FB080460D46164630220F49FA
:100F500003A8FFF7ABF903AF3C4607F130090FE0F8
:100F6000D4E90001CDE90101BDF80400A84206D191
:100F70009DF80600B04202D14046029988470834E5
:100F80004C45EDD10FB0BDE8F08300004C4A00089D
:100F90000348406940F00040014948617047000043
:100FA000002002402DE9F04798B08D4B0FCB14ACD8
:100FB0000FC408274FF0000800200EE014A911F814
:100FC0001010082907D814A901EB40014978082915
:100FD00001D3044603E0411CC8B20228EEDB142210
:100FE0007F4910310FA8FFF761F9002015E004EBED
:100FF00084010FAA02EB410111F8101008290AD848
:1010000004EB840102EB410101EB4001497808291E
:1010100001D3054603E0411CC8B20528E7DB1422D2
:101020006F4924310AA8FFF741F96D49383103C9E6
:10103000CDE9080100BF0AA951F8250069490968EE
:1010400021F007010143674A116000BF00BF10464D
:10105000006800F007000AA951F825108842EAD17B
:1010600008A951F824006049096821F4C0610143CE
:101070005D4A116000BF00BF5C48006840F48030EA
:101080005A49086000BF00BF00BF58480068C0F35D
:1010900040400028F8D000BF5448006820F001000C
:1010A0005249086000BF00BF00F082FB0128FBD15D
:1010B00000BF4E48006840F008004C49086000BF7F
:1010C0007020096821F0F0010143484A116000BF17
:1010D00000BF1046006840F001001146086000BFE4
:1010E00000BF00F065FB0128FBD100BF3F4800684E
:1010F00040F480703D49086000BF00BF00BF3B481E
:101100000068C0F380200028F8D0002037498968A3
:1011100021F0F0010143354A916000BF00BF114644
:10112000896821F4E0610143916000BF00BF11466E
:10113000896821F460510143916000BF2022284951
:1011400040316846FFF7B2F802202849896821F04B
:1011500003010143254A916000BF002600BF00BF84
:101160002248806800F00C0006460828F7D1204885
:10117000FFF7C0FA0420042808D14FF0E0210969E4
:1011800041F004014FF0E022116107E04FF0E0214F
:10119000096921F004014FF0E022116100BF1548F8
:1011A000FFF7A0FB4FF080700021104A926822F0F8
:1011B000FE4240EA01031A430C4B9A6000BF00F064
:1011C00021FB82460022114600F0FBFA8146494687
:1011D0004FF0FF3000F0D6FA18B0BDE8F0870000FD
:1011E000B04700080020024000700040001002409C
:1011F000001BB70000127A000548406900F000406B
:1012000020B10448024988600348886070470000A4
:101210000020024023016745AB89EFCD04200C4933
:10122000096901F48031B1F5803F01D101200EE060
:101230000749096901F0100109B1022007E00449DA
:10124000096901F0200109B1032000E00420704782
:10125000002002400EB500BF642002F03FFA1D4896
:1012600001F0C6F800211B4801F010F900BF194831
:1012700000F07BF8174901A800F06FF816480199B3
:1012800001609DF808100171144D2C4605F13006DF
:1012900019E094E807008DE807009DF800000E496A
:1012A000097888420ED10C48401C019988479DF866
:1012B00008100948D0F8010000EE100A054800F0B7
:1012C0000FF802E00C34B442E3D100BF022002F078
:1012D00005FACCE700380020100D0020E00C0020BB
:1012E00070B52DED028B0446B0EE408A0D46002607
:1012F000012D02D0042D25D114E0042604F11C0098
:10130000A5210170D4F81C1149784170B6EE000A8D
:1013100038EE000ABCEEC00A10EE101A8170A5214A
:10132000C17010E0072604F11C00A5210170D4F85B
:101330001C114978417018EE101AC0F80210A5214E
:10134000817100E000BF00BF324604F11C0120465D
:1013500000F0ADFFBDEC028B70BDD1F81C21D2F8BE
:101360000130036052790271704710B504460722BC
:1013700004F11501204600F053FFD4F81C01007859
:10138000A52806D1D4F81C018079A52801D1012017
:1013900010BD0020FCE700003EB504460D46084A9B
:1013A00007CA8DE8070006236A462946204601F051
:1013B00017F9044604F11500C4F81C0120463EBD8F
:1013C0002849000810B50446204601F01DF90446DE
:1013D000204610BD01460878704700210170417019
:1013E000704770477CB54FF47A75FA2600200421C7
:1013F0000346FA22CDE9001005A1094802F024FFB6
:10140000044600F0D3F902F0EFFA064908607CBD0B
:101410004C45565F47415547455F544F5F50430029
:1014200055120008000A002000B587B001201249BB
:10143000C96C0143104AD1641146C96C0140009146
:1014400000BF00BF019000200290059001A94FF05D
:101450009040FFF7ADF84FF48070019002200290A9
:101460000020039004900590069001A94FF0904051
:10147000FFF79EF807B000BD001002407047000063
:1014800010B5012002F06AFB0749086008460068B1
:1014900000F096F9012002F061FB0449086008465B
:1014A000006800F08DF910BD7C0A0020800A002041
:1014B00010B503220021012002F061FB934904468C
:1014C000086000F09EF903220021012002F057FB82
:1014D0008F490446086000F094F90322002101209E
:1014E00002F04DFB8B490446086000F08AF90322A4
:1014F0000021012002F043FB87490446086000F008
:1015000080F903220021012002F039FB83490446BF
:10151000086000F076F903220021012002F02FFB81
:101520007F490446086000F06CF903220021012085
:1015300002F025FB7B490446086000F062F90322B3
:101540000021012002F01BFB77490446086000F0EF
:1015500058F903220021012002F011FB73490446CF
:10156000086000F04EF903220021012002F007FB81
:101570006F490446086000F044F90322002101206D
:1015800002F0FDFA6B490446086000F03AF90322C4
:101590000021012002F0F3FA67490446086000F0D8
:1015A00030F903220021012002F0E9FA63490446E0
:1015B000086000F026F903220021012002F0DFFA82
:1015C0005F490446086000F01CF903220021012055
:1015D00002F0D5FA5B490446086000F012F90322D4
:1015E0000021012002F0CBFA57490446086000F0C0
:1015F00008F903220021012002F0C1FA53490446F0
:10160000086000F0FEF803220021012002F0B7FA82
:101610004F490446086000F0F4F80322002101203D
:1016200002F0ADFA4B490446086000F0EAF80322E4
:101630000021012002F0A3FA47490446086000F0A7
:10164000E0F803220021012002F099FA4349044600
:10165000086000F0D6F803220021012002F08FFA82
:101660003F490446086000F0CCF803220021012025
:1016700002F085FA3B490446086000F0C2F80322F4
:101680000021012002F07BFA37490446086000F08F
:10169000B8F803220021012002F071FA3349044610
:1016A000086000F0AEF803220021012002F067FA82
:1016B0002F490446086000F0A4F80322002101200D
:1016C00002F05DFA2B490446086000F09AF8032204
:1016D0000021012002F053FA27490446086000F077
:1016E00090F803220021012002F049FA2349044620
:1016F000086000F086F803220021012002F03FFA82
:101700001F490446086000F07CF810BD040A002060
:10171000080A00200C0A0020100A0020140A0020E9
:10172000180A00201C0A0020200A0020240A002099
:10173000280A0020300A0020340A0020380A00203D
:101740003C0A0020400A0020440A0020480A0020E9
:101750004C0A0020500A00205C0A0020600A002089
:10176000640A0020680A00206C0A0020700A002029
:10177000740A0020780A00202C0A0020540A002055
:10178000580A002010B5002807DA0A07140E054A87
:1017900000F00F031B1FD45403E00A07130E024A84
:1017A000135410BD18ED00E000E400E070470000A5
:1017B00002480068C0F3400070470000001002407B
:1017C0007047F0B503460C4603F00701C1F107006E
:1017D000042801D9042001E0C1F107000646081DD4
:1017E000072801D2002000E0C81E05460120B040B5
:1017F000401E2040A8400127AF407F1E17403843BD
:10180000F0BD704702480068C0F302207047000036
:101810000CED00E038B501203A49096E0143394A20
:1018200011661146096E0140009100BF00BF032000
:101830000246354B19684FF6FF031940334B0B43F3
:1018400043EA0221304B196000BFFFF7DBFF05467A
:1018500000221146FFF7B5FF044621466FF00B004A
:10186000FFF790FFFFF7CEFF054600221146FFF776
:10187000A8FF044621466FF00A00FFF783FFFFF739
:10188000C1FF054600221146FFF79BFF0446214693
:101890006FF00900FFF776FFFFF7B4FF054600225F
:1018A0001146FFF78EFF044621466FF00400FFF754
:1018B00069FFFFF7A7FF054600221146FFF781FFEA
:1018C000044621466FF00300FFF75CFFFFF79AFF25
:1018D000054600221146FFF774FF044621466FF0CB
:1018E0000100FFF74FFFFFF78DFF0546002211466D
:1018F000FFF767FF044621464FF0FF30FFF742FF36
:1019000038BD0000001002400CED00E00000FA05B8
:1019100010B52A48007810B101284BD128E028489A
:1019200000784100274800F011F94FF48061254804
:1019300000F020F924480178224800F014F92148E9
:1019400000F0FFF81F4800F0F7F800BF1D480068DE
:1019500040F004001B49086000BF00BF0846406813
:1019600040F00070486000BF084600F009F922E02E
:1019700000BF1448406840F480401249486000BFEE
:10198000084600F0D9F800201049086010480068A7
:1019900002F0A3FB0D48006801280AD10B4800683B
:1019A00038B14FF080500B490860BFF34F8FBFF341
:1019B0006F8F00E000BF00BF10BD0000680C00206A
:1019C000620C002000540040600C0020580C0020E5
:1019D000080A002004ED00E01648007810B1012844
:1019E00025D123E000BF1448406AC0B213490A78E9
:1019F0000978491C114B1970114909688854184617
:101A000000781049097888420FD100BF0A48006861
:101A100020F004000849086000BF00BF08460068C5
:101A200040F02000086000BF00BF01E000E000BF00
:101A300000BF7047680C002000540040610C00207B
:101A40005C0C0020600C002010B5164800F086F8F1
:101A500000BF1448006820F020001249086000BF51
:101A60001148007810B1012818D116E000200F4964
:101A700008600F48006802F030FB0C48006801283D
:101A80000AD10A48006838B14FF08050094908600F
:101A9000BFF34F8FBFF36F8F01E000E000BF00BFC7
:101AA00010BD000000540040680C0020640C0020B1
:101AB000040A002004ED00E010B5194800F04EF8CB
:101AC0001848007880B918480178154800F044F8A3
:101AD00000BF1348006840F040001149086000BF93
:101AE0000120104908701AE01048007810B1012850
:101AF00014D100E012E00E480078401EC0B20C4A3B
:101B000010700C4A1268115C054800F025F808486E
:101B1000007810B9024800F014F800BF00BF10BDF3
:101B200000540040550C0020690C0020680C002077
:101B3000540C0020500C0020016821F0400101608D
:101B40007047016821F002010160704742686FF33D
:101B500009020A434260704781627047C16941F0DF
:101B60002001C1617047426822F47F0242EA0142CB
:101B700042607047426822F480620A4342607047C4
:101B8000416841F4005141607047000008B50549C3
:101B9000C96C0143034AD1641146C96C01400091EC
:101BA00000BF08BD0010024008B50549896D01431A
:101BB000034A91651146896D0140009100BF08BD3F
:101BC0000010024008B50549096E0143034A116639
:101BD0001146096E0140009100BF08BD001002408F
:101BE0006FF001010161704770B500240025B2F566
:101BF000004F0ED14E0006EB5306B6FBF3F6B4B21F
:101C00004FF6F07604EA0605C4F342063543C56094
:101C100005E001EB5306B6FBF3F6B6B2C66070BD45
:101C20004FF40061016270471CB50446054903C9C1
:101C3000CDE900016946204600F036F810EE100AA2
:101C400020601CBD684900081CB50446054903C94D
:101C5000CDE900016946204600F026F810EE100A92
:101C600020601CBD704900081CB50446054903C925
:101C7000CDE900016946204600F016F810EE100A82
:101C800020601CBD784900081CB50446054903C9FD
:101C9000CDE900016946204600F006F810EE100A72
:101CA00020601CBD60490008026800EE102AD1EDDA
:101CB000000AB4EEE00AF1EE10FA02D291ED000A49
:101CC0007047026800EE102AD1ED010AB4EEE00A76
:101CD000F1EE10FA02DD91ED010AF1E7026800EE83
:101CE000102AEDE7C16841F00201C1607047C16888
:101CF00041F00401C1607047C16841F00801C16052
:101D000070476FF00201016170476FF004010161DB
:101D100070476FF0080101617047C16821F002014E
:101D2000C1607047C16821F00401C1607047C1689B
:101D300021F00801C160704710B5016042600024C5
:101D40008460C46010BD70472DE9F04105460E4621
:101D5000174600BFFFF762FA0128FBD0002400BF3E
:101D60000749284600F0A0FC054B3A463146284674
:101D700000F0C8FC0446002CF2D0BDE8F081000061
:101D800000F80308F0B507460B46084D28468618AC
:101D900028463446194605E090F800C081F800C096
:101DA000401C491CA042F7D100BFF0BD00F8030859
:101DB0002DE9F04F8DB0044610205149896D014343
:101DC0004F4A91651146896D0140019100BF00BFE6
:101DD00004A8FEF79DFC4FF4FA666427069800F508
:101DE0007A703146B0FBF1F0401E85B213200390AB
:101DF00000200290ADF82050099013200A90002096
:101E00000B9008A96068FEF773FD6068FFF7E8FEB5
:101E100004216068026822F004020A43026000BFE5
:101E200000216068026822F008020A43026000BFD5
:101E30006068026822F070020A43026000BF6068B6
:101E4000016821F08001016000BF002160684162EB
:101E500000BF36212B4B1B68C3F302204FF0050C4B
:101E60004FF000080346C3F1070BBBF1040F02D982
:101E70004FF0040B01E0C3F1070BDA4603F1040B4A
:101E8000BBF1070F02D24FF0000B01E0A3F1030BEF
:101E9000D9464FF0010B0BFA0AFBABF1010B0BEA31
:101EA0000C0B0BFA09FB4FF0010E0EFA09FEAEF116
:101EB000010E0EEA080E4BEA0E0200BF00290ADAF4
:101EC00010074FEA106C0F480C3001F00F031B1F76
:101ED00000F803C003E01007030E0B48435400BF93
:101EE000362000F01F02012191404209920002F1C8
:101EF000E022C2F8001100BF0DB000F007B80000EA
:101F0000001002400CED00E000E400E030BCBDE851
:101F1000C08F000010B504460020207003486060A8
:101F20002046FFF745FF204610BD0000001000408E
:101F3000704738B5044604F1B805D4F8F41000230E
:101F40005A1E0868194601F047FE28780090D4F818
:101F5000F41000231A460868194601F06BFF00BF11
:101F60009DF8000038BD73B5044604F1B805D4F8F7
:101F7000F41000235A1E0868194601F02DFE9DF842
:101F800004002870D4F8F41000231A460868194693
:101F900001F050FF00BF7CBD38B5044604F1C70214
:101FA0006946204602F0DFFB9DED000A38BD38B5DA
:101FB000044604F1CB026946204602F0D4FB9DEDB5
:101FC000000A38BD70B504460D461646204600F09E
:101FD00077F855281CD02046FFF7ABFF04F16001CD
:101FE00001EBC5010979884210DB5521204600F03C
:101FF00081F80120307004F1600151F835100023A0
:102000001A460868194601F015FF01E000203070FB
:1020100070BD2DE9F04105460E46174600244BE001
:102020000A20B6FBF0F100FB116104EB440205F15C
:10203000700010F8220081423CD104EB440105F10C
:10204000700000EB81004068A0B90020804209D1F7
:1020500004EB440105F1700000EB8100007A00F010
:102060000100A8B104EB440105F1700000EB810010
:10207000806868B104EB440205F1700000EB820156
:10208000284600F050F85521284600F033F810E0BB
:1020900004EB440205F1700010F822102846FFF707
:1020A00062FF0021284600F03EF85A21284600F041
:1020B00021F803E0601CC4B2032CB1D3BDE8F08169
:1020C00038B5044604F1AE05D4F8F41000235A1EC6
:1020D0000868194601F080FD28780090D4F8F410C3
:1020E00000231A460868194601F0A4FE00BF9DF8B7
:1020F000000038BD73B5044604F1AE05D4F8F41001
:1021000000235A1E0868194601F066FD9DF8040078
:102110002870D4F8F41000231A460868194601F014
:1021200089FE00BF7CBDC0F8B910704770B594B08F
:1021300004460D46204600F073FA044630222E492C
:1021400004F13000FEF7B2F82C4B0FCB04F160061F
:102150000FC624222A493046FEF7A8F8C4F8F450E6
:102160003226324607A92748FFF70CFE9DF81E00CD
:1021700030B9322207A904F1C200FEF797F831E026
:1021800000208DF81E00FF208DF81F004FF6FF7015
:10219000ADF81C0016221C4908A8FEF787F8182283
:1021A0001A4901A8FEF782F80198CDF83600029886
:1021B000CDF83A000398CDF83E000499CDF84210CE
:1021C0000599CDF846100699CDF84A10324607A970
:1021D0000C48FFF7B9FD322204F1C2010948FFF7AC
:1021E000D1FD00BF632184F8AE100021C4F8B910FE
:1021F000204614B070BD0000104800084048000898
:1022000050480008440C0020B04A000874480008F8
:1022100010B50446204600F045FA0446204610BD9D
:1022200030B50B46002421460FE000BF45682C68FE
:10223000E569C5F34015002DF8D045682C68A58CDC
:10224000EDB25D544C1CE4B221469142EDDB30BD51
:1022500070B504460D46164661680868816841F409
:102260008041816000BFD4E90113324608682946E5
:10227000FFF7BAFC62681F211068026822F4F812A6
:1022800042EA0142026000BF62681068026822F000
:10229000787242EA4152026000BF62680021106811
:1022A000826822F400420A43826000BF70BD70B5AC
:1022B0000B46002421460FE000BF45682C68E56905
:1022C000C5F3C015002DF8D046685C5C35682C85D8
:1022D00000BF4C1CE4B221469142EDDB70BD70B5ED
:1022E00004460D4661680868416841F40001416098
:1022F00000BF61680868416901F07F41294341617D
:1023000000BF61680868FFF78BFC616808680168B6
:1023100041F08061016000BF61680868016841F4B4
:102320008071016000BF61680868816841F0010147
:10233000816000BF70BD00002DE9F0430446606875
:1023400090F90410284B1B68C3F3022005250026D2
:102350000346C3F10708B8F1040F02D94FF004088F
:1023600001E0C3F10708C44603F10408B8F1070F00
:1023700002D24FF0000801E0A3F1030847464FF0F6
:10238000010808FA0CF8A8F1010808EA050808FA9B
:1023900007F84FF0010909FA07F9A9F1010909EA5B
:1023A000060948EA090200BF002908DA1007050EED
:1023B0000D480C3001F00F031B1FC55403E010073C
:1023C000030E0A48435400BF616891F9040000F00D
:1023D0001F02012191404209920002F1E022C2F85D
:1023E000001100BFBDE8F0830CED00E000E400E068
:1023F00010B586B004466268D2E908018847626871
:10240000D2E90C0188476268D2E910018847626806
:10241000D2E90210884700BF6068C06900900220BE
:1024200001900290002003900490072005906168BD
:1024300088696946FEF7BCF80028EDD100BF6068E6
:10244000C06A00906168886A6946FEF7B1F80028A2
:10245000F5D100BF6068C06B00906168886B694609
:10246000FEF7A6F80028F5D16168086906490968F1
:1024700021EA104182B21143034A883AC2F8881017
:1024800000BF06B010BD000088100240F0B599B042
:1024900004460D464822474907A8FDF707FF0020DC
:1024A0000690E06800EB400007A901EBC00120693D
:1024B00000EB400001EB8000806801900020059057
:1024C000E06800EB400007A901EBC001206900EBC8
:1024D000400051F820000390E06800EB400007A99D
:1024E00001EBC001206900EB400001EB8000406877
:1024F00002900C200490616808686946FEF73AFA79
:1025000061684869FEF716F907466168086801685E
:1025100001F400410E46626800211068426822F40E
:1025200000220A43426000BF6168086840210162DE
:1025300000BF29462046FFF7D2FE2046FFF7FCFEEB
:10254000606800681C4988420ED0606800681B49BA
:10255000884209D0606800681949884204D06068E0
:102560000068184988421CD1207D90B1062816D1F8
:102570002046FEF72FFF10B1012807D105E03246B3
:1025800039462046FFF764FE01E000E000BF00BFCF
:1025900006E032463946204600F016F800E000BF5B
:1025A00000BF61680868016841F00101016000BF77
:1025B00019B0F0BDE0480008003801400044004078
:1025C000004800400080004070B504460D461646A5
:1025D000D4E90113324608682946FFF705FB70BDB0
:1025E0002DE9F04104460D4616461F462046FEF7EB
:1025F000F4FE0446656096E80700C4E90312A06093
:1026000027752046BDE8F08110B504462046FEF748
:10261000E8FE0446204610BD816070477047000008
:10262000154909680160154909684160144909683C
:10263000816014490968C16013490968016113493F
:102640000968416101888288891A09B201831049A9
:102650000968C0F81A100F490968C0F81E100E4921
:102660000968C0F822100D490968C0F826100C4905
:102670000968C0F82A107047344900083849000832
:102680003C490008404900084449000848490008FE
:102690004C490008504900085449000858490008AE
:1026A0005C4900087047000070B505460C46FEF70F
:1026B000A3FD284600F040F8A4F10060C60A1048C7
:1026C000406940F002000E4948610846406920F424
:1026D000FF6040EAC60048610846406940F4803027
:1026E000486100BFFEF79AFD0128FBD0044840690D
:1026F00020F0020002494861FEF74AFC70BD00006C
:10270000002002402DE9F0470746884615461C4642
:102710004FF00009FEF770FD264604EB050A53460C
:1027200032464146384600F011F88146FEF730FC4B
:102730004846BDE8F0870000034909694CF2FB32C6
:102740001143014A11617047002002402DE9F04118
:1027500007460D4614461E464FF0010823484069BF
:1027600040F080702149486130E03846FFF7E4FFCF
:1027700071B61E48406940F001001C49486101CD16
:1027800001C401CD01C400BFFEF748FD0128FBD004
:1027900061B6384600F03BF800BF154800780128C4
:1027A00004D1002012490870804605E00F480069F6
:1027B00000F001000028F0D000BF0C48006940F094
:1027C00001000A490861384600F014F8B442CCD33D
:1027D0000648406920F00100044948610846406904
:1027E00020F0807048614046BDE8F0810020024042
:1027F000410C00204168CA6822F00102CA6000BF93
:1028000041680A6822F001020A6000BF704741680F
:10281000CA6842F00102CA6000BF41680A6842F01B
:1028200001020A6000BF704770B505460C4622469B
:1028300005F12A01284601F0ADFF70BD70B50546CF
:102840000C46224605F12601284601F0A3FF70BD83
:1028500002E008C8121F08C1002AFAD17047704769
:10286000002001E001C1121F002AFBD170470000C7
:1028700010B505490548FFF7CFFE0446044A05494F
:10288000FDF748FD10BD0000300C0020600D002059
:10289000000000081D26000810B50448FFF7C0FE20
:1028A0000446034A0349FDF735FD10BDD03700202B
:1028B00000000008A526000810B50448FFF72AFB11
:1028C0000446034A0349FDF725FD10BD440C0020D2
:1028D00000000008311F000810B505490548FEF743
:1028E0005BFD0446044A0549FDF714FD10BD0000D8
:1028F000B00A00200038002000000008C5130008BE
:1029000010B5054A05490648FFF716FA0446054A78
:102910000549FDF7FFFC10BD580A0020200C0020DF
:10292000700D002000000008471D000810B501F0E0
:102930005BF80149086010BD000A002010B5054988
:102940000548FFF7F3FB0446044A0549FDF7E2FC9E
:1029500010BD00007C0A0020800D0020000000084F
:102960001122000810B5002821D0114B0022001FB1
:10297000196803E0814203D80A4649680029F9D161
:1029800052B11368841A9C4204D100681844106044
:10299000104602E0506000E0186039B102680B1A7E
:1029A000934203D10B681A4402604968416010BD2C
:1029B000580D00201448FEF7EDF9FEF72BFFFEF747
:1029C000F1FAFEF731FD01F00FF810490860FEF74B
:1029D0006FFD01F009F80D490860FEF751FD01F0A7
:1029E00003F80A490860FEF749FD00F0FDFF0749BA
:1029F0000860FEF7F7FC00F0F7FF0449086000F0FC
:102A00004DFF00BFFEE70000000077A7000A00208E
:102A1000F0B50B30154D20F007010024144A0FE0EB
:102A200003688B420BD38B4205D95E1A4318476863
:102A3000C3E9006700E04368136002C004E0021DC0
:102A400010680028ECD12046002802D1286808B17F
:102A50000020F0BD064A07481060074A121A22F00B
:102A60000702C0E9002401202860D7E75C0D0020A0
:102A7000580D0020243B0020203D00202DE9F0418E
:102A800005460E461C4807681C480068001D00F0FB
:102A9000E5FC50B91948006890F82C1001208840D6
:102AA00017490968814316480160681C38B936B176
:102AB00012480168091D134800F018FD1AE07C193E
:102AC0000E4800684460BC4207D20C480168091DEA
:102AD0000D48006800F0F0FC0CE008480168091D92
:102AE0000A48006800F0E8FC09480068844201D206
:102AF00007480460BDE8F081A40C0020900C002081
:102B0000A80C002094370020980C0020940C002082
:102B1000C00C002010B5044600F0F4FC2448006806
:102B2000401C234908602348006840B921480460DC
:102B30000846006801280DD100F0BEF90AE01E48E1
:102B4000006838B91B480068C06AE16A884201D849
:102B50001848046019480068401C18490860084675
:102B60000068606494F82C100120884014490968BA
:102B7000084313490860E16A01EB8101114A02EB45
:102B80008100211D00F0B2FC00F0E6FC0A4800685C
:102B900068B108480068C06AE16A884207D24FF00D
:102BA000805009490860BFF34F8FBFF36F8F10BD8E
:102BB000A00C0020900C0020AC0C0020BC0C0020CD
:102BC000A80C0020B836002004ED00E010B500F09D
:102BD00099FC10480068D0B90F4800F05DFC0F4820
:102BE00000F05AFC0C480E4908600C480D4908607A
:102BF00000220C210A2000F0C2FF064908600846A6
:102C0000006820B108A10348006800F02BFD00F027
:102C1000A3FC10BDD40C0020A8370020BC37002036
:102C2000CC0C0020D00C0020546D7251000000002C
:102C300070B523E000F07CFE1348006808B901205D
:102C400000E00020054601F09DFCBDB900F05AFCF3
:102C50000D48C068C468201D00F000FC0B480068E7
:102C6000401E0A4908600A480068401E084908607A
:102C700000F072FC204600F060F800BF04480068D5
:102C80000028D7D170BD000080370020A00C0020A4
:102C90009C0C002070B504460D46206C70B1216C70
:102CA000E0680844E0606168E068884201D3206819
:102CB000E0602846226CE168FDF7F8FA70BD2DE966
:102CC000F04104460F4615464FF00008A66B206CF5
:102CD00040B9206860BB606801F0A4FB804600201A
:102CE000606025E07DB93946226CA068FDF7DEFA08
:102CF000216CA0680844A060D4E90110884217D371
:102D00002068A06014E03946226CE068FDF7CEFA36
:102D1000216CE068401AE0602168E068884203D2D4
:102D2000216C6068401AE060022D01D106B1761E68
:102D3000701CA0634046BDE8F08110B50446206BCE
:102D400000F028FC204600F025FC10BD0146084A92
:102D5000126812680AB9012200E000220A600A68BB
:102D600022B9034A1268D268106800E00020704758
:102D7000CC0C00200A4A22F007000A4A1060002208
:102D8000084B5A6042F2F872074B5A6000221A60F0
:102D9000014642F2F8724A601A460A607047000023
:102DA000800E00206C0C0020740C002000BFFFF788
:102DB0003FFF00F067FBFAE710B504464CB1002076
:102DC00060602060E06000231A461946204601F04A
:102DD00031F810BD2DE9F04106460D4617469846DC
:102DE000069C0DB9246000E02760E663256401219C
:102DF000204600F0D3FF84F84C80BDE8F0812DE937
:102E0000F05F82460F4690469B460A9E0C9C4FEA16
:102E10008801A522206BFDF75BFAA8F10100216B68
:102E200001EB800929F0070909F0070008B9012022
:102E300000E0002050B900BF302080F31188BFF3BC
:102E40004F8FBFF36F8F00BF00BFFEE7002507E085
:102E5000795D04F134004155785D00B902E06D1CE4
:102E6000102DF5D300BF002143200155072E00D3BC
:102E70000626E662E66400202065201D00F019FBAE
:102E800004F1180000F015FB2461C6F10700A061F1
:102E900064620020606584F858005A4651464846EE
:102EA00000F0C6FA20600B9808B10B98046000F09F
:102EB00000B830BCBDE8C09F10B5002407E004EBAB
:102EC00084010F4A02EB810000F0E6FA641C072C33
:102ED000F5D30C4800F0E0FA0B4800F0DDFA0B489F
:102EE00000F0DAFA0A4800F0D7FA0A4800F0D4FAFB
:102EF00004480949086004480849086010BD0000FA
:102F0000B836002044370020583700206C370020A6
:102F10008037002094370020940C0020980C00206B
:102F20002DE9F04104460D4616461F464FF00008B5
:102F300065602461B5420CD8F01BA169884202D3B8
:102F40004FF0010811E0211D0948006800F0B4FAB3
:102F50000BE0BE4204D2BD4202D34FF0010804E0B0
:102F6000211D0448006800F0A7FA4046BDE8F08142
:102F7000D00C0020CC0C002070B5054600F0C2FA41
:102F8000A86B08B9012400E0002400F0E5FA20460F
:102F900070BD70B5054600F0B5FAA86BE96B8842C4
:102FA00001D1012400E0002400F0D6FA204670BDD3
:102FB000F8B505460F4616480068C068C468201D6D
:102FC00000F04CFAE06901281DD1A06941192B4697
:102FD0003A462046FFF7A4FFA8B1002003462A4640
:102FE00001460090204601F079FB064656B900BF25
:102FF000302080F31188BFF34F8FBFF36F8F00BF76
:1030000000BFFEE700BF2046616A8847F8BD0000A8
:10301000CC0C002070B586B06AE00398002867DB0E
:10302000059C606908B9012000E0002010B9201D4E
:1030300000F014FA02A800F0BDF8054603980A282B
:1030400054D2DFE800F009050731334F0608323467
:1030500000BF00BF00BF00BF0498A26981180346EB
:103060002A462046FFF75CFFE8B12046616A8847A0
:10307000E069012817D1002000900498A169421846
:1030800000231946204601F029FB064656B900BF29
:10309000302080F31188BFF34F8FBFF36F8F00BFD5
:1030A00000BFFEE700BF22E000BF20E000BF0498A1
:1030B000A061A06908B1012000E0002050B900BF64
:1030C000302080F31188BFF34F8FBFF36F8F00BFA5
:1030D00000BFFEE7A06941192B462A462046FFF7AC
:1030E0001FFF04E0204600F055FA00E000BF00BFDB
:1030F00000231A4603A90448006800F06DFD00286B
:103100008BD106B070BD0000D40C0020F8B5054688
:103110000C4600F00DFC684600F04CF8064600989E
:1031200020BB44B9B54206D801F02CFA31462846F6
:10313000FFF73EFF1CE03CB10E480068006808B98C
:10314000012000E000200446A91B22460A4800682E
:1031500000F09EFA01F016FA50B94FF0805007497E
:103160000860BFF34F8FBFF36F8F01E001F00AFAE1
:10317000F8BD0000D00C0020D40C002004ED00E0CD
:103180000A490968096809B9012100E0002121B153
:103190004FF0FF31064A116006E004490968C9682A
:1031A000C868034A4168116070470000940C002011
:1031B000C00C002070B5044601F08AF805460748A7
:1031C0000068854204D200F00BF80120206001E085
:1031D0000020206001480560284670BDDC0C0020FE
:1031E0002DE9F84332E024480068C06805682248A9
:1031F0000068C068C468201D00F030F92046616A8C
:103200008847E069012821D1A0694619AE4207D953
:1032100066602461211D1848006800F04DF915E032
:10322000002003462A4601460090204601F056FA47
:10323000074657B900BF302080F31188BFF34F8F86
:10324000BFF36F8F00BF00BFFEE700BF0A480068F2
:10325000006808B9012000E000200028C3D006481B
:10326000D0F8008005480068034908600348C0F8AA
:103270000080BDE8F8830000CC0C0020D00C0020BA
:103280000E480068401C08B9012000E0002050B939
:1032900000BF302080F31188BFF34F8FBFF36F8FD3
:1032A00000BF00BFFEE700BF302080F31188BFF3EE
:1032B0004F8FBFF36F8F00BF00BFFEE7840C00206D
:1032C00008B500BF6846FFF741FD04462046009957
:1032D000FFF71CFFFFF79EFEF4E770B5044600F011
:1032E00011F994F9455010E0606A08B9012000E036
:1032F000002038B904F1240001F0F8F818B100F00A
:103300001BFA00E003E0681E45B2002DECDC00BFB4
:10331000FF2084F8450000F01FF900F0F3F894F95D
:10332000445010E0206908B9012000E0002048B9AD
:1033300004F1100001F0DAF808B100F0FDF9681EA0
:1033400045B200E001E0002DECDC00BFFF2084F876
:10335000440000F001F970BD2DE9F04104464FF042
:10336000000800F0E5FA2648006820B9FFF702FDE2
:1033700001202349086044B1083404F0070020B15B
:1033800004F00700C0F108000444002C32D042F2DF
:10339000F87084422ED21B4F3846056801E02F4654
:1033A0002D686868A04202D228680028F7D1164824
:1033B00085421FD0386800F10808286838606868BE
:1033C000001B102810D92E196868001B70606C60F3
:1033D00071680C4800E00068026852688A42FAD3BB
:1033E00002683260066000BF084968680968081A08
:1033F0000649086001F0C6F84046BDE8F0810000CB
:10340000800C00206C0C0020740C00207C0C002030
:103410000648006830B10549096801F15000096D9E
:10342000491C01600148006870470000900C0020B2
:10343000001F4FF080730360001F21F00103036041
:10344000001F054B036014380260001F6FF0020379
:1034500003602038704700008132000801460A6985
:10346000D1E901309860D1E9010358605068884281
:1034700001D188685060002008611068401E10600B
:103480001068704770470000024A1268521C014BD6
:103490001A607047940A002000F1080141604FF063
:1034A000FF31816000F10801C1600161002101600C
:1034B000704700210161704710B502460B685C1C23
:1034C0000CB9106907E002F1080000E040684468A8
:1034D00024689C42FAD944684C604C68A1608860BA
:1034E00041600A611468641C146010BD42684A603F
:1034F00093688B60936859609160086103685B1CF6
:103500000360704700BF302080F31188BFF34F8FF6
:10351000BFF36F8F00BF0E480068401C0C49086065
:1035200008460068012812D10A480068C0B208B9EC
:10353000012000E0002050B900BF302080F3118846
:10354000BFF34F8FBFF36F8F00BF00BFFEE7704721
:10355000840C002004ED00E00D48006850B900BF65
:10356000302080F31188BFF34F8FBFF36F8F00BF00
:1035700000BFFEE706480068401E0549086008468F
:10358000006820B9002080F3118800BF00BF704799
:10359000840C002070B506463546B6B1083D2C4671
:1035A00000F0C6F96168094800E0006802685268E6
:1035B0008A42FAD30268226004600549606809689B
:1035C00008440349086000F0DDFF70BD6C0C00206A
:1035D0007C0C002000204FF0E0210861886141F65A
:1035E0003F704861072008617047000070B5FCF724
:1035F00037FE0446102C16D304F1E02090F8F05367
:1036000015480078854201DB012000E0002050B918
:1036100000BF302080F31188BFF34F8FBFF36F8F4F
:1036200000BF00BFFEE70D48006800F4E0600C49F1
:103630000968884201D8012000E0002050B900BF8D
:10364000302080F31188BFF34F8FBFF36F8F00BF1F
:1036500000BFFEE770BD0000880C00200CED00E00C
:103660008C0C0020024600200BE0084B53F8303051
:1036700033B9064B43F8301003EBC0035A6002E045
:10368000401C0828F1D300BF7047000078360020A6
:103690002DE9F04105460E4617462C46FFF732FF4E
:1036A00094F94400401C10B9002084F8440094F9B7
:1036B0004500401C10B9002084F84500FFF74CFF7E
:1036C000A06B28B93A46314604F1240000F056F8C0
:1036D0002046FFF702FEBDE8F081000070B5044609
:1036E0000025D4B11248006808B9012000E000208C
:1036F00050B900BF302080F31188BFF34F8FBFF364
:103700006F8F00BF00BFFEE700F012F900212046D6
:10371000FFF7B4F900F036FF05463DB94FF0805091
:1037200004490860BFF34F8FBFF36F8F70BD000077
:10373000C80C002004ED00E001200149086070473A
:10374000B40C002070B504460D4654B900BF3020BB
:1037500080F31188BFF34F8FBFF36F8F00BF00BF9F
:10376000FEE70548016818312046FFF7A5FE012154
:103770002846FFF783F970BD900C002070B5054610
:103780000E46144655B900BF302080F31188BFF3B0
:103790004F8FBFF36F8F00BF00BFFEE70648016881
:1037A00018312846FFF7A2FE0CB14FF0FF36214634
:1037B0003046FFF763F970BD900C002070B50546E8
:1037C0002C46002D4BD02649E06A0968C96A884218
:1037D00045D2A06900F0004028B921480068C06ABD
:1037E000C0F10700A061E16A01EB81011D4A02EB13
:1037F00081016069884201D1012000E0002050B3BE
:10380000201DFFF72BFE78B9E06A00EB8000154918
:1038100051F8200040B994F82C100120884012493A
:1038200009688143104801600D480068C06AE06281
:1038300094F82C10012088400B49096808430A4974
:103840000860E16A01EB8101064A02EB8100211D5B
:10385000FFF74CFE03E002480068C06AE06270BDFA
:10386000900C0020B8360020A80C002050B900BFF2
:10387000302181F31188BFF34F8FBFF36F8F00BFEB
:1038800000BFFEE703490968016003490968416018
:1038900070470000B80C0020A40C00201CB51D4887
:1038A00000210B464022CDE900101BA11C4800F06E
:1038B000CBFC0446012C02D100F0E6FE0446012CAC
:1038C00015D100BF302080F31188BFF34F8FBFF3B5
:1038D0006F8F00BF4FF0FF3012490860012012497E
:1038E000086000201149086000F084F810E0601CB6
:1038F00008B1012000E0002050B900BF302080F363
:103900001188BFF34F8FBFF36F8F00BF00BFFEE77B
:103910001CBD0000C40C002049444C4500000000C0
:10392000AD2D0008C00C0020AC0C0020A40C002021
:1039300002480068401C014908607047C80C00201C
:1039400010B52448006818B101202349086040E000
:103950000020214908602148006800681F49096863
:10396000096B884205D81D48016834310068FFF7AB
:103970008BFD1B480068B0FA80F0C0F11F0101EB1D
:103980008100184A52F8200008B1012000E0002010
:1039900050B900BF302080F31188BFF34F8FBFF3C1
:1039A0006F8F00BF00BFFEE701EB81020D4B03EB01
:1039B000820042685268426000F108024368934204
:1039C00002D14268526842604268D268034B1A6072
:1039D00000BF10BDC80C0020B40C0020900C0020CB
:1039E000A80C0020B836002001480068704700008D
:1039F0007C0C00201CB5524800685249884201D016
:103A0000012000E0002050B900BF302080F3118871
:103A1000BFF34F8FBFF36F8F00BF00BFFEE7484873
:103A200000684849491E884201D0012000E000207A
:103A300050B900BF302080F31188BFF34F8FBFF320
:103A40006F8F00BF00BFFEE73F4908460078019036
:103A5000FF200A4610700846007800909DF800008C
:103A600000F0F0009DF80020904201D1012000E01C
:103A7000002050B900BF302080F31188BFF34F8F72
:103A8000BFF36F8F00BF00BFFEE79DF8000000F09E
:103A900030002E4A107007202D4A106009E02C4893
:103AA0000068401E2A4A10609DF800004006000E83
:103AB00000909DF8000000F080008028EFD024489E
:103AC0000068C0F10700042801D1012000E00020B7
:103AD00050B900BF302080F31188BFF34F8FBFF380
:103AE0006F8F00BF00BFFEE7194800680002184A48
:103AF00010601046008800F4E0601060124A0198DF
:103B000010700F482030006840F470000C492031DC
:103B100008600846006840F070400860FFF75AFDF2
:103B200000200C490860FCF763FB0B48006840F07C
:103B3000404009490860FCF747FB00201CBD00001D
:103B400000ED00E071C20F4100E400E0880C0020AD
:103B50008C0C0020840C002034EF00E02DE9F041B3
:103B600004460126002722460021012000F007F824
:103B700005462846FFF720F92846BDE8F0812DE9E3
:103B8000F84305460E4690460DB1012000E00020A6
:103B900050B900BF302080F31188BFF34F8FBFF3BF
:103BA0006F8F00BF00BFFEE70EB9002701E005FBE5
:103BB00006F707F15000FFF7CFFB044644B104F1CC
:103BC000500943464A46314628460094FFF702F919
:103BD0002046BDE8F88300002DE9FF4782B0054686
:103BE0000E461F464FF0000A2C4654B900BF302045
:103BF00080F31188BFF34F8FBFF36F8F00BF00BFFB
:103C0000FEE70EB9206C08B9012000E0002050B991
:103C100000BF302080F31188BFF34F8FBFF36F8F49
:103C200000BF00BFFEE700F043FB08B9049808B9E5
:103C3000012000E0002050B900BF302080F311883F
:103C4000BFF34F8FBFF36F8F00BF00BFFEE700BF12
:103C5000FFF758FCD4F83890B9F1000F3DD0D4F8F4
:103C60000C8031462046FFF715F8DFB9A9F10100B5
:103C7000A063206810B9FFF7CBFB6060206908B92A
:103C8000012000E0002010BB04F1100000F02EFC29
:103C9000E8B14FF0805040490860BFF34F8FBFF349
:103CA0006F8F14E0C4F80C80606A08B9012000E04E
:103CB000002060B904F1240000F018FC38B14FF086
:103CC000805035490860BFF34F8FBFF36F8FFFF708
:103CD00043FC012006B0BDE8F087049818B9FFF74F
:103CE0003BFC0020F6E7BAF1000F04D16846FFF76D
:103CF000BDFD4FF0010AFFF72FFCFFF719FEFFF79C
:103D000001FC94F94400401C10B9002084F84400E0
:103D100094F94500401C10B9002084F84500FFF7D5
:103D20001BFC04A9684600F049FA40BB2046FFF797
:103D300023F9F0B1206830B9FFF7E4FB6068FFF7C2
:103D40003DFDFFF709FC04F124000499FFF7FAFC9C
:103D50002046FFF7C2FA00F015FC00287FF478AF88
:103D60004FF080500C490860BFF34F8FBFF36F8F47
:103D70006EE72046FFF7B1FA00F004FC68E7204642
:103D8000FFF7ABFA00F0FEFB2046FFF7F5F800283E
:103D9000EED000209EE7000004ED00E070B505467F
:103DA0000E462C4654B900BF302080F31188BFF373
:103DB0004F8FBFF36F8F00BF00BFFEE7FFF7A2FB7F
:103DC000D4E90F12206801FB020060600020A063AC
:103DD0002068A060E06B401E226C216800FB02108E
:103DE000E060FF2084F8440084F845009EB9206913
:103DF00008B9012000E00020A8B904F1100000F08B
:103E000075FB80B14FF0805009490860BFF34F8FB8
:103E1000BFF36F8F07E004F11000FFF73DFB04F1E3
:103E20002400FFF739FBFFF797FB012070BD00006E
:103E300004ED00E02DE9FF4383B0064688461D46A9
:103E40004FF00009344654B900BF302080F3118888
:103E5000BFF34F8FBFF36F8F00BF00BFFEE7B8F116
:103E6000000F01D1206C08B9012000E0002050B9FA
:103E700000BF302080F31188BFF34F8FBFF36F8FE7
:103E800000BF00BFFEE7022D02D1E06B012801D187
:103E9000012000E0002050B900BF302080F31188DD
:103EA000BFF34F8FBFF36F8F00BF00BFFEE700F07F
:103EB000FFF908B9059808B9012000E0002050B9C1
:103EC00000BF302080F31188BFF34F8FBFF36F8F97
:103ED00000BF00BFFEE700BFFFF714FBA06BE16B64
:103EE000884201D3022D28D12A4641462046FEF7BA
:103EF000E6FE0746606A08B9012000E0002068B9C4
:103F000004F1240000F0F2FA88B14FF080503249F9
:103F10000860BFF34F8FBFF36F8F08E03FB14FF0E2
:103F200080502D490860BFF34F8FBFF36F8FFFF7AD
:103F300013FB012007B0BDE8F083059818B9FFF71F
:103F40000BFB0020F6E7B9F1000F04D101A8FFF741
:103F50008DFC4FF00109FFF7FFFAFFF7E9FCFFF7CF
:103F6000D1FA94F94400401C10B9002084F84400B0
:103F700094F94500401C10B9002084F84500FFF773
:103F8000EBFA05A901A800F019F9F0B92046FFF7EE
:103F900000F8A0B104F110000599FFF7D3FB20460B
:103FA000FFF79BF900F0EEFA002895D14FF0805012
:103FB00009490860BFF34F8FBFF36F8F8CE720462E
:103FC000FFF78BF900F0DEFA86E72046FFF785F968
:103FD00000F0D8FA0020ADE704ED00E02DE9F05F35
:103FE00007468A4690461E463C4654B900BF3020DC
:103FF00080F31188BFF34F8FBFF36F8F00BF00BFF7
:10400000FEE7BAF1000F01D1206C08B9012000E0F1
:10401000002050B900BF302080F31188BFF34F8FCC
:10402000BFF36F8F00BF00BFFEE7022E02D1E06B2F
:10403000012801D1012000E0002050B900BF30204C
:1040400080F31188BFF34F8FBFF36F8F00BF00BFA6
:10405000FEE7FFF7CBFA00BF3021EFF3118081F3C9
:104060001188BFF34F8FBFF36F8F00BF0546A06B62
:10407000E16B884201D3022E23D194F945B0324638
:1040800051462046FEF71BFE0BF1010088B9606A1D
:1040900008B9012000E0002080B904F1240000F0FC
:1040A00025FA58B1B8F1000F08D00120C8F8000077
:1040B00004E00BF1010040B284F845004FF0010923
:1040C00001E04FF0000900BF85F3118800BF4846AA
:1040D00000F000B830BCBDE8C09F2DE9F0470646AF
:1040E0000F46344654B900BF302080F31188BFF327
:1040F0004F8FBFF36F8F00BF00BFFEE7206C08B982
:10410000012000E0002050B900BF302080F311886A
:10411000BFF34F8FBFF36F8F00BF00BFFEE7206874
:1041200008B9606808B9012000E0002050B900BF5C
:10413000302080F31188BFF34F8FBFF36F8F00BF24
:1041400000BFFEE7FFF752FA00BF3021EFF3118006
:1041500081F31188BFF34F8FBFF36F8F00BF054608
:10416000D4F83890E06B48451ED994F945A009F180
:104170000100A0630AF1010070B9606A08B901206A
:1041800000E0002068B904F1240000F0AFF940B16C
:104190003FB10120386004E00AF1010040B284F828
:1041A00045004FF0010801E04FF0000800BF85F323
:1041B000118800BF4046BDE8F087000070B5044696
:1041C0000D4654B900BF302080F31188BFF34F8FE4
:1041D000BFF36F8F00BF00BFFEE755B900BF3020AF
:1041E00080F31188BFF34F8FBFF36F8F00BF00BF05
:1041F000FEE7FFF787F9124803682868401C08B9F2
:10420000002619E00F4920680968884204D06068D8
:10421000984201D801260FE06068181A2968884280
:1042200009D228686168591A401A28602046FFF7A9
:104230001DFB002600E00126FFF78EF9304670BD19
:10424000A40C0020B80C00202DE9FF4F85B080465B
:1042500089461746DDE912ABB800FFF77DF8064640
:1042600056B15C20FFF778F804460CB1266304E0F1
:104270003046FFF78FF900E000247CB10020CDE943
:1042800000ABCDE902403A4649464046089BFEF75E
:10429000B6FD2046FEF73EFC012501E04FF0FF355C
:1042A000284609B000F000B830BCBDE8C08F00005F
:1042B0000549096809B9012005E00449096809B9F7
:1042C000022000E000207047AC0C0020C80C002049
:1042D0000149086870470000A40C00202DE9F04156
:1042E0004FF0000844480068002877D14348006830
:1042F000451C4248056015BB41480068006808B984
:10430000012000E0002050B900BF302080F3118868
:10431000BFF34F8FBFF36F8F00BF00BFFEE738487A
:1043200007683848006836490860364807603648EC
:104330000068401C34490860FEF722FF00BF334884
:10434000006885423CD300BF2D480068006808B96A
:10435000012000E0002020B14FF0FF302B49086021
:104360002DE027480068C068C4686668B54202D27C
:104370002648066023E0201DFFF770F8A06A18B1F8
:1043800004F11800FFF76AF894F82C100120884017
:104390001F49096808431E490860E16A01EB810171
:1043A0001C4A02EB8100211DFFF7A0F81A49E06AC0
:1043B0000968C96A8842C7D34FF00108C4E700BF43
:1043C00015480068C06A00EB8000124951F82000CF
:1043D000012801D94FF0010805E0FFE70F48006808
:1043E000401C0E4908600E48006808B14FF00108F3
:1043F0004046BDE8F0810000C80C0020A40C00205D
:10440000940C0020980C0020B80C0020C00C002058
:10441000A80C0020B8360020900C0020B00C002022
:10442000B40C002070B505462C460026002D55D052
:104430002B480068844201D1012000E0002050B9DF
:1044400000BF302080F31188BFF34F8FBFF36F8F11
:1044500000BF00BFFEE7206D50B900BF302080F3E1
:104460001188BFF34F8FBFF36F8F00BF00BFFEE710
:10447000206D401E2065E16CE06A88422ED0206DE0
:1044800060BB201DFEF7EAFF78B9E06A00EB800010
:10449000144951F8200040B994F82C1001208840AC
:1044A00011490968814310480160E06CE062E06AEC
:1044B000C0F10700A06194F82C10012088400A493F
:1044C0000968084308490860E16A01EB8101054A6F
:1044D00002EB8100211DFFF709F80126304670BD6F
:1044E000900C0020B8360020A80C002070B50646BD
:1044F000F068C46854B900BF302080F31188BFF35E
:104500004F8FBFF36F8F00BF00BFFEE704F11800AD
:10451000FEF7A4FF15480068A8B9201DFEF79EFF0E
:1045200094F82C100120884011490968084310496B
:104530000860E16A01EB81010E4A02EB8100211D56
:10454000FEF7D4FF04E004F118010B48FEF7CEFF9C
:104550000A49E06A0968C96A884204D9012501202C
:104560000749086000E00025284670BDC80C0020FF
:10457000A80C0020B83600206C370020900C0020DA
:10458000B40C002070B5002400263648006850B9ED
:1045900000BF302080F31188BFF34F8FBFF36F8FC0
:1045A00000BF00BFFEE7FEF7ADFF2E480068401ECB
:1045B0002C4908600846006800284FD12A48006846
:1045C00000284BD024E02948C068C46804F11800D2
:1045D000FEF744FF201DFEF741FF94F82C10012048
:1045E000884023490968084321490860E16A01EBD2
:1045F0008101204A02EB8100211DFEF777FF1E4951
:10460000E06A0968C96A884202D301201B49086030
:104610001648006808B9012000E000200028D2D028
:104620000CB1FEF7ADFD1648056865B100BFFFF798
:1046300055FE10B10120114908606D1E002DF6D104
:1046400000200F4908600D48006838B10126300786
:104650000C490860BFF34F8FBFF36F8FFEF77CFFED
:10466000304670BDC80C0020A00C00206C37002024
:10467000A80C0020B8360020900C0020B40C0020BC
:10468000B00C002004ED00E01CB50024FEF79EFAFB
:104690000D48006850B10D48022100234022CDE9A9
:1046A00000100BA10C48FFF7CFFD044654B900BF22
:1046B000302080F31188BFF34F8FBFF36F8F00BF9F
:1046C00000BFFEE720461CBDD40C0020D80C002003
:1046D000546D722053766300C13200082DE9FE4309
:1046E00004460D4616461F46DDF828804FF00009A7
:1046F00054B900BF302080F31188BFF34F8FBFF350
:104700006F8F00BF00BFFEE71448006810B300952C
:1047100001960294062D15DAFFF7CAFD022808D18A
:104720000023424669460D480068FFF783FB814637
:1047300010E000231A46694608480068FFF77AFB34
:10474000814607E000233A46694604480068FFF7BF
:1047500045FC8146484600F003B80000D40C002018
:1047600006BCBDE8F88370B504460D461646D4F87D
:10477000F41000235A1E08681946FFF72DFA306816
:104780002860D4F8F41000231A4608681946FFF789
:1047900051FB70BD0346B1F90000904205DCB1F950
:1047A0000200904201DB012070470020FCE700007E
:1047B0001A30001A00100010183000181A50001A91
:1047C00006100C2012301A401A500006000C00127D
:1047D000001A001A000000000100000002000000A2
:1047E00003000000040000000002000000040000BC
:1047F00002000000080000000100000004000000AA
:104800000000000000000000030000000C00000099
:104810005C0A002000000000600A00200100000087
:10482000640A002002000000680A00200300000063
:104830006C0A002004000000700A0020050000003F
:10484000740A002001000000780A00200200000025
:104850000000000000000000000000000100000057
:10486000991F00080000000002000000AF1F0008B0
:104870000000000000000000000000000000000038
:104880000000803F0000803F0000803F3D2800087E
:1048900000000000C51F00080000000029280008D3
:1048A000000000001320000800000000B004000019
:1048B00060090000C01200008025000040380000A0
:1048C000004B000000960000C0DA000000E100008C
:1048D00000C20100004B00000100000000000000C9
:1048E00000000000000000000000000000000000C8
:1048F0000020000000000000000400000000000094
:104900000010000000040000002000000000000073
:10491000000600000000000000100000000600007B
:104920000020000000000000404B4C000000000090
:10493000000000000F00320005002800F1FF0F000A
:1049400000000300F9FF0700F9FF07000100F7006E
:10495000000009000000030000000100E600E8007C
:104960000000204100007A44000000000000C8421E
:104970000000000000007F430000000000007F43B3
:10498000000000000404043C3C0000080000000893
:1049900000080000080000000800000002040608EB
:1049A0000A0C1014010000000200000004000000C6
:1049B000080000001000000020000000400000007F
:1049C0008000000000010000000200000004000060
:1049D000000800000010000000200000004000005F
:1049E000008000000000010000000400000008003A
:1049F0000000100000000F000000F0000000000F99
:104A0000000000F001000F000100F0000100000FA5
:104A1000010000F002000F000200F0000200000F91
:104A2000020000F003000F000300F0000300000F7D
:104A3000030000F002000000031D00080400000055
:104A40000B1D000808000000131D000802000000F4
:104A50001B1D000802000100E51C00080400000006
:104A6000251D000804000100EF1C000808000000DC
:104A70002F1D000808000100F91C0008081C304424
:104A8000586C80000000000404043C3C0000080056
:104A900000000800080000080000000800000002F4
:104AA0000406080A0C101400010203040506080A93
:104AB0000100409A44AE47FB41190A000000000083
:104AC00000FF0001050300000000000000000000DE
:104AD00001020304060708090000000001020304A4
:104AE000A0860100400D0300801A060000350C006E
:104AF00040420F0080841E0000093D0000127A0031
:104B00000024F40000366E010048E801006CDC026D
:104B10004C4B0008000A002060030000B6030008A8
:104B2000284C0008600D0020C03F000060280008ED
:104B300041DDFFFFCDDDFFFFF5DDFFFF01DEFFFF04
:104B400079DDFFFF55DDFFFF91DDFFFF019C52077F
:104B500053404072FC353801402513C51B1208191B
:104B60001A12011A03025112482A0210212A8D1C1E
:104B700012043348801913491029209A10206D30EF
:104B8000014023481918B12A482E792819102948BC
:104B9000A910DA2010290C791012541B401F213A59
:104BA000A91C1A2018620C199029C97990E9A0193A
:104BB000102988691029501203220F599C29105A74
:104BC00028482913A938291C7938290D19142910C6
:104BD00069145A02149A04145A041429C169143924
:104BE00075191429E07960E9E0191029209910015C
:104BF0003963F8271AAA01015832661B891CF03163
:104C000032445A290C32501A490C29C832705A6958
:104C10000C011C1320392A200409131C1A3A1C19F0
:084C20000411D3093D0000005E
:040000050800018D61
:00000001FF
