:020000040800F2
:10000000109C002089020008910200089302000859
:1000100095020008970200089902000800000008F5
:10002000ECD10000000001FC00F80308A901000861
:100030009D02000800000000050200089D1700084E
:10004000A3020008A3020008A3020008A3020008FC
:100050003D0B0008A3020008A3020008A302000849
:10006000A3020008A3020008A3020008A3020008DC
:10007000A3020008A30200082D090008A30200083B
:10008000A302000861090008A3020008A3020008F7
:10009000A3020008A3020008A3020008390A00080E
:1000A000A3020008A3020008A3020008A30200089C
:1000B000A30200080000000000000000510B00082F
:1000C0004D0B0008AB0B0008A90B0008A3020008A9
:1000D000A30200081919000835190008A302000836
:1000E000D5090008A302000800000000000000007D
:1000F0000000000000000000000000000000000000
:1001000000000000A302000800000000A302000895
:100110000000000000000000211800085918000825
:10012000A3020008A3020008A3020008A30200081B
:10013000A302000800000000000000000000000012
:10014000A3020008A3020008A302000800000000A8
:1001500095090008A3020008A3020008A3020008F2
:10016000A3020008A3020008A30200080000000088
:10017000A3020008A3020008000000000000000025
:10018000A3020008A3020008A3020008DFF814D0AD
:1001900000F066FA00F0B6F800480047A9A0000891
:1001A00000F088F9109C00202C4B1968086800F0BA
:1001B0005AB880F30988BFF36F8F4FF0000080F3C7
:1001C000118870470000000008480068006880F34C
:1001D00008884FF0000080F3148862B661B6BFF360
:1001E0004F8FBFF36F8F00DF00BF00BF08ED00E04F
:1001F000DFF80C00016841F470010160704700BF36
:1002000088ED00E0EFF30980BFF36F8F134B1A689E
:100210001EF0100F08BF20ED108A20E9F04F10608B
:1002200009B44FF0300080F31188BFF34F8FBFF354
:100230006F8F0AF033FF4FF0000080F3118809BC84
:100240001968086800F014B81EF0100F08BF00F01D
:1002500014B880F30988BFF36F8F7047EC0C00204F
:10026000EFF30580704730C8B0E8C04FFFF7A1BF7B
:1002700030C8B0E8C04FFFF7E7BFB0EC088AB0EC79
:1002800008CAFFF7E6BF0000064880470648004757
:10029000FEE7FEE7FEE7FEE7FEE7FEE7FEE7FEE736
:1002A000FEE7FEE7D11700088D01000840EA0103D0
:1002B0009B0703D009E008C9121F08C0042AFAD21C
:1002C00003E011F8013B00F8013B521EF9D27047E0
:1002D000D2B201E000F8012B491EFBD27047002288
:1002E000F6E710B513460A4604461946FFF7F0FF35
:1002F000204610BD421C10F8011B0029FBD1801ABA
:100300007047000070B5054C054D03E0206820449F
:100310008047241DAC42F9D170BD0000D4CC000848
:1003200014CD00082DE9F041074615460E46102071
:1003300009F0F4FE04000AD06760C4E9026500F029
:10034000B5F80168216004600020BDE8F08101205B
:10035000FBE72DE9F04D81EA030404F0004B21F0A6
:10036000004514464FF0000A23F0004150EA050210
:1003700020D054EA01021DD0C5F30A570246C5F346
:100380001303C1F31300C1F30A5640F4801543F47C
:100390008013A7EB0608101BD64608F2FD3873EB56
:1003A000050002D308F1010801E092185B41B8F1A1
:1003B000000F03DA00200146BDE8F08D00204FF465
:1003C0008011064684460EE0171B73EB050705D324
:1003D000121B63EB050306434CEA010C49084FEA84
:1003E000300092185B4150EA0107EDD152EA030058
:1003F00012D082EA040083EA0501084305D0101BED
:10040000AB4106D20122002306E000224FF0004358
:1004100002E06FF0010253101AEB06004CEB08519A
:1004200010EB0A0041EB0B01BDE8F04D00F0B8B84D
:1004300000F0004230F000400AD0C10D01F56071BB
:10044000C0F3160042EA0151C20840071143704749
:1004500000200146704701F0004330B421F0004114
:1004600050EA010206D00A0DA2F56072C1F3130131
:10047000002A02DC30BC00207047440F44EAC1046B
:10048000C100E01830BC00EBC25000F034B8202AA4
:1004900004DB203A00FA02F1002070479140C2F1DB
:1004A000200320FA03F31943904070470048704737
:1004B000781900202DE9F0410646FFF7F7FF804646
:1004C000454613E016B1E068B0420ED120682860BE
:1004D000D4E90101D8F800708847204609F0BCFD36
:1004E000D8F80000B842EBD100E025462C68002C7B
:1004F000E8D1BDE8F0810029A8BF7047401C490041
:1005000008BF20F00100704710B4B0FA80FC00FA78
:100510000CF050EA010404BF10BC704749B1CCF1A3
:10052000200421FA04F411FA0CF118BF012121432F
:100530000843A3EB0C01CB1D4FEA00614FEA1020EA
:1005400042BF002010BC704700EBC350104400298C
:10055000A4BF10BC7047401C490008BF20F0010038
:1005600010BC704710B541000CD0C0F3C75196299C
:1005700008DC7E2909DC06DB410204D000F00040E3
:1005800040F07E5010BD002010BDC1F19604C4F1B2
:10059000200100FA01F1E040FFF7ADFFA04010BDDF
:1005A00010B5141E73F1000408DA401C41F100017B
:1005B00092185B411A4301D120F0010010BD2DE9D2
:1005C000F04D92469B4611B1B1FA81F202E0B0FAC9
:1005D00080F220329046FFF75AFF04460F4640EA69
:1005E0000A0041EA0B0153465A46084313D011460C
:1005F00053EA010019D0C8F14002504600F042F819
:1006000005460E46504659464246FFF740FF08430E
:1006100005D0012004E020463946BDE8F08D0020D9
:10062000054346EAE0762C4337430A986305E40A1B
:10063000A0EB08000022FD0A44EA47540A3002D524
:1006400000200146E9E7010510196941DDE9084587
:1006500000196941BDE8F04DA2E700207047000095
:10066000064C074D06E0E06840F0010394E80700FF
:1006700098471034AC42F6D3FFF78CFDB4CC000899
:10068000D4CC0008202A04DB203A21FA02F0002111
:10069000704721FA02F3D040C2F120029140084392
:1006A00019467047704770B58D1810F8014B14F05B
:1006B000030201D110F8012B231106D110F8013BE0
:1006C00003E010F8016B01F8016B521EF9D1ABB1D8
:1006D00010F8012B04F00C048A1A0C2C03D0A2EBA6
:1006E00084129B1C08E010F8014BA2EB0422F8E7EF
:1006F00012F8014B01F8014B5B1EF9D5A942D4D386
:10070000002070BD0F4B1B780BB91846704770B4B2
:100710000D4E05460FCE8BB001AC0FC4336824F8E4
:10072000023B1B0C237001AC0FCC2688EB60A47835
:100730002860122318466960AA602E82AC740BB040
:1007400070BC7047D089002090CC00081149124A33
:100750000B68012023F001030B6011461060642335
:1007600001E0013B09D00A68002AFAD10B4B0C4A80
:100770001A601A680B4B9A4207D00B4B0B4A1B6846
:100780001B0C1B04934200D0FEE7094B01221A7098
:10079000704700BF002000E00830024000300240F7
:1007A000C2A507F4CDB5E8B5F8070010000055AABA
:1007B000D0890020444B1A7802B970470022C3E95F
:1007C00001221A730278A2F1420182B0172998BF60
:1007D00020328DF804204278A2F14201172998BFF7
:1007E00020328DF805208278A2F14201172998BFA6
:1007F00020328DF806209DF80420643A132A0DD883
:10080000DFE802F00A5E0C0C0C0C0C0C0C0C5B0C00
:100810000C0C0C580C550C52FF229A729DF80520B6
:10082000643A132A0DD8DFE802F00A3C0C0C0C0CD9
:100830000C0C0C0C390C0C0C0C360C330C30FF224D
:10084000DA729DF80620643A132A0DD8DFE802F028
:100850000A1A0C0C0C0C0C0C0C0C170C0C0C0C14B9
:100860000C110C0EFF221A7302B07047FF229A710E
:10087000FAE701221A73F7E7FF225A72F4E701221E
:100880005A72F1E701229A71EEE7FF225A71D8E716
:100890000122DA72D5E7FF221A72D2E701221A7218
:1008A000CFE701225A71CCE7FF221A71B6E7012285
:1008B0009A72B3E7FF22DA71B0E70122DA71ADE78D
:1008C00001221A71AAE700BFD089002010B50446A2
:1008D0004FF08040406B20444FF08041486302213C
:1008E000480700F0CDFF01220221480700F0ECFF8D
:1008F00010BD000070B502460C46FF25FF2309E03D
:1009000012F8010B80EA03010648405C80EA050307
:100910000548455C201EA4F10106B4B2F0D143EABB
:10092000052070BD741700207418002010B500BF9A
:100930000A480068C0F3403048B100BF4FF400508F
:100940000649486000BF0421044804F047FD002226
:100950000421024804F05EFD10BD000000000240CA
:1009600010B500BF0A480068C0F3406048B100BF3E
:100970004FF000700649486000BF0721044804F0AA
:100980002DFD00220721024804F044FD10BD0000A7
:100990000000024010B500BF0A480068C0F3405094
:1009A00048B100BF4FF400100649486000BF06215F
:1009B000044804F013FD00220621024804F02AFD39
:1009C00010BD00000004024010B5172000F0F8FC34
:1009D00010BD000010B51349086D134909680140A6
:1009E000814201D1012100E00021D1B10D49086D02
:1009F0000D49086000BF00200C4908600C480068E1
:100A00000AF019FF0948006801280AD10748006860
:100A100038B14FF0805007490860BFF34F8FBFF3E4
:100A20006F8F10BDA80B002014040140000A0020A5
:100A3000240A002004ED00E010B5402000F068F822
:100A4000002852D0402000F057F8FFF7BDFF27489C
:100A5000007818B3242840D0272835D0402843D127
:100A60000006406A4FF080414863214800781F2803
:100A700005DA1F480078401C1D4908700BE01C482F
:100A800000781F2807D11A480078401C18490870C0
:100A900001201849087000F0BBFD25E04FF08040B0
:100AA000406A14304FF08041C8630821C80600F046
:100AB000E7FE00220221480700F006FF012208217C
:100AC000C80600F001FF0FE04FF08040406A4FF091
:100AD0008041486300F09CFD06E0102000F087FC98
:100AE00030200249087000BF00BF10BD3817002039
:100AF0004217002043170020034A52F82010034AEF
:100B0000116000BF70470000ACC900081404014028
:100B10000146044A52F82100034A12680240D0B24A
:100B200070470000ACC900081404014010B5402013
:100B3000FFF7E2FF172000F04FFC10BD02480078DD
:100B4000401C014908707047A80C00207047000045
:100B500010B500BF12488069C0F3400010B105F025
:100B600087F81CE000BF0E488069C0F3800010B118
:100B700005F00EF813E000BF09488069C0F340108B
:100B800028B10848007810B905F03AF807E000BF2E
:100B900003488069C0F3801008B104F08FFF10BDD6
:100BA00000540040C40C00207047704770B50446E4
:100BB0000D461646D6E90212114332691143726995
:100BC0001143B2691143F2691143B26A41EA02006A
:100BD000691E164A515C615847F6F0729143014311
:100BE0006A1E124B9A5CA15000BF7068691E1A46BB
:100BF000515C2144C86000BF3068691E515C2144CB
:100C0000886000BF306A691E515C214449686FF3F7
:100C10000F0101436A1E9A5C2244516000BF2946BD
:100C20002046726A00F004F8002070BD18CB00085E
:100C300030B5D0F8A8304C1EA5000F24AC40A3431B
:100C40004C1EA5000F24AC4094FAA4F4B4FA84F42A
:100C500002FA04F42343C0F8A83030BD0249096801
:100C60008143014A11607047040401400249096848
:100C70008143014A11607047240401400249096818
:100C80008143014A1160704700040140024909682C
:100C90008143014A116070472004014002490968FC
:100CA0000143014A11607047040401400249096888
:100CB0000143014A11607047240401400249096858
:100CC0000143014A116070470C0401400249096860
:100CD0000143014A116070472C0401400249096830
:100CE0000143014A1160704700040140024909684C
:100CF0000143014A1160704720040140024909681C
:100D00000143014A11607047080401400249096823
:100D10000143014A116070472804014070B5044640
:100D20000025207A002879D0206800284AD0607AEF
:100D300020B1012809D0022815D10DE02068FFF765
:100D40008DFF2068FFF7CAFF0FE02068FFF796FFCE
:100D50002068FFF7A3FF08E02068FFF7BFFF2068C7
:100D6000FFF79CFF01E0012500BF00BFA07A48B358
:100D7000A07A012804D002280DD003281FD117E043
:100D800020684049096881433E4A116000BF2068DD
:100D9000FFF7B4FF15E020683A49091F096881434D
:100DA000384A121F116000BF2068FFF787FF08E074
:100DB0002068FFF7A3FF2068FFF780FF01E001250F
:100DC00000BF00BF6068002859D0607A20B10128B8
:100DD00009D0022815D10DE06068FFF747FF606871
:100DE000FFF784FF0FE06068FFF750FF6068FFF7D0
:100DF0005DFF08E06068FFF779FF6068FFF756FF66
:100E000001E0012500BF00BFA07A58B3A07A0128F5
:100E100005D0022810D0032822D11AE023E0606810
:100E20001849203109688143164A2032116000BFF9
:100E30006068FFF76BFF15E0606812491C310968B4
:100E40008143104A1C32116000BF6068FFF73EFF0B
:100E500008E06068FFF75AFF6068FFF737FF01E0BE
:100E6000012500BF0BE02068FFF708FF2068FFF7AF
:100E7000F5FE6068FFF70AFF6068FFF7F7FE284697
:100E800070BD00000C040140F0B503460A46002482
:100E90000021106890FAA0F0B0FA80F47FE00125FC
:100EA000A540106800EA0501002977D050681D6848
:100EB00091FAA1F6B6FA86F677000326BE40B5434E
:100EC00091FAA1F6B6FA86F6760000FA06F63543F0
:100ED0001D6000BF5068012802D05068022814D15C
:100EE00090689D6891FAA1F6B6FA86F67700032617
:100EF000BE40B54391FAA1F6B6FA86F6760000FA3E
:100F000006F635439D6000BF00BF1069DD6891FAA9
:100F1000A1F6B6FA86F677000326BE40B54391FAED
:100F2000A1F6B6FA86F6760000FA06F63543DD60DD
:100F300000BF5068022831D191FAA1F0B0FA80F0D8
:100F4000082814D250691D6A91FAA1F6B6FA86F6FD
:100F5000B7000F26BE40B54391FAA1F6B6FA86F661
:100F6000B60000FA06F635431D6200BF16E0506970
:100F70005D6A0E0A96FAA6F6B6FA86F6B7000F264E
:100F8000BE40B5430E0A96FAA6F6B6FA86F6B60045
:100F900000FA06F635435D6200BF00BF641C1068AE
:100FA000E04000287FF47BAF5068012802D05068F1
:100FB000022809D1D56810685E68864300FB05F7F2
:100FC0003E435E6000BF00BF0020F0BD30B502466A
:100FD00000BF106820F00100106000BFD1E90203DB
:100FE000146824F4F85440EA03252C43146000BF2D
:100FF0004868106100BF00BF106840F00100106039
:1010000000BF00BF906820F40040906000BF8B6973
:10101000086994686FF30A0440EA03052C4394605E
:1010200000BF086930B100BF906840F40040906094
:1010300000BF00BF0868136823F440130343136024
:1010400000BF4869536823F400430343536000BF63
:10105000002030BD4FF47A71B0FBF1F2521E4FF018
:10106000E0235A6100229A6105221A6100BF70478D
:1010700010B5044600F002FA2060206800F0CAF9BA
:101080006060606800F0D6F9A060606800F0E4F984
:10109000E06010BD2DE9F04104460025032C29D164
:1010A000204600F085F8B0F5403F18D06FF440318D
:1010B000084420B1012806D002280FD108E000F032
:1010C000DDF9054615E000F07DF800B1374D10E080
:1010D00000F080F808B14FF400450AE000BF00F0CE
:1010E000CDF9074600F096F9064600F0B5F9054639
:1010F00000BF57E00C2C29D1204600F059F8B0F57C
:10110000402F18D0A0F54020001F20B1042806D0A1
:1011100008280FD108E000F0B1F9054615E000F00D
:1011200051F800B1214D10E000F054F808B14FF42F
:1011300000450AE000BF00F0A1F9074600F06AF997
:10114000064600F077F9054600BF2BE0302C29D188
:10115000204600F02DF8B0F5401F18D0A0F5401043
:10116000103820B1102806D020280FD108E000F058
:1011700085F9054615E000F025F800B10B4D10E0AB
:1011800000F028F808B14FF400450AE000BF00F075
:1011900075F9074600F03EF9064600F04BF90546A2
:1011A00000BF00BF2846BDE8F08100000024F40025
:1011B000014603480068084040EA014070470000CB
:1011C0008810024002480068C0F380207047000089
:1011D0000010024002480068C0F340007047000061
:1011E000901002400248006800F0F00070470000D4
:1011F000001002400248006800F470607047000070
:101200009410024002480068C0F3C000704700001C
:10121000001002400248C06800F0700070470000F3
:10122000001002400248C06800F003007047000050
:10123000001002400248C068C0F30620704700005A
:10124000001002400149086070470000701700203C
:1012500010B5024613681C48824202D0B2F1804F9A
:1012600004D123F070004C6840EA0403164882421F
:1012700008D0B2F1804F05D01448824202D0144801
:10128000824204D123F44070CC6840EA0403136026
:101290008868D06200BF0888906200BF0A48824216
:1012A00005D00A48824202D00948824203D1087C14
:1012B000106300BF00BF00BF506940F001005061E3
:1012C00000BF002010BD0000002C01400040014084
:1012D000004401402DE9F04104460D460127002657
:1012E000204600F067F8002859D1E968686808438B
:1012F00029690843A969084321682A4A114008431B
:101300002060A868616821F440510143616000BF1A
:101310006869A16821F440710143A16000BF2248BF
:10132000844204D10320FFF7B5FE06460EE01F48B5
:10133000844204D10C20FFF7ADFE064606E01C48AF
:10134000844203D13020FFF7A5FE06463EB328684D
:1013500028B300273146AA69286800239C46B2F5C5
:10136000004F12D14FEA410808EB5008B8FBF0F8E3
:101370001FFA88F34FF6F07803EA080CC3F342082B
:101380004CEA080CC4F80CC007E001EB5008B8FBAD
:10139000F0F81FFA88F8C4F80C8000BF00BF384688
:1013A000BDE8F081F369FFEF0038014000440040E0
:1013B000004800400146086800F001007047000046
:1013C00000F01F0201219140024A430942F8231014
:1013D0007047000080E100E000F01F020121914011
:1013E0004209920002F1E022C2F80011704710B5E4
:1013F00004464FF08040406A20444FF080414863EB
:101400000221480700F03CFA01220221480700F0BF
:101410005BFA10BD014600BF0448806800F0F00090
:101420000009034A125C21FA02F0704700100240E2
:10143000D0CA0008014600BF0548806800F4E0609B
:10144000044A02EB1020027821FA02F070470000F3
:1014500000100240E0CA0008014600BF054880684D
:1014600000F46050044A02EBD020027821FA02F026
:101470007047000000100240E0CA000810B50024C8
:1014800000BF2948806800F00C0030B1042822D049
:10149000082822D00C2826D121E0FFF7B3FE60B93E
:1014A000FFF7B0FE10B1FFF79DFE01E0FFF7A2FECF
:1014B000000A1E4951F820000BE0FFF7A3FE10B10F
:1014C000FFF790FE01E0FFF795FE0009174951F87C
:1014D0002000044625E0164C23E0164C21E000F0E5
:1014E0002BF804461DE0FFF78DFE60B9FFF78AFE7A
:1014F00010B1FFF777FE01E0FFF77CFE000A0B4911
:1015000051F820000BE0FFF77DFE10B1FFF76AFEF7
:1015100001E0FFF76FFE0009044951F8200004467E
:1015200000BF00BF204610BD00100240E8CA0008FE
:101530000024F40000127A0070B500240025FFF7A3
:1015400071FE0546012D04D0022D20D0032D22D19D
:101550001FE0FFF757FE60B9FFF754FE10B1FFF729
:1015600041FE01E0FFF746FE000A254951F8200040
:101570000BE0FFF747FE10B1FFF734FE01E0FFF785
:1015800039FE00091E4951F82000044621E01D4C97
:101590001FE01D4C1DE0FFF735FE60B9FFF732FE7E
:1015A00010B1FFF71FFE01E0FFF724FE000A144907
:1015B00051F820000BE0FFF725FE10B1FFF712FEF7
:1015C00001E0FFF717FE00090D4951F8200004461D
:1015D00000BF00BFFFF71EFE012101EB1010B4FB9E
:1015E000F0F6FFF727FE46430848C06800F0C060E9
:1015F000012101EB50604000B6FBF0F070BD00002F
:10160000E8CA00080024F40000127A00001002402A
:1016100010B5FFF78BFA30480078202809DB4FF42B
:101620004870FFF753F900202C4908702C490870C6
:1016300050E00020294908702A4800682A490968B2
:10164000884219D0274800680078234909788842E1
:1016500007D024480068007818B121480078022893
:101660000AD12248007820F00200204908701D4865
:10167000006800F049F810BD1D480068B0B11B4873
:10168000007800F0040088B9194800680078124911
:10169000097888420AD11548007840F002001349C1
:1016A00008701348006800F02FF8E4E70F4800784E
:1016B00000F0800038B14FF41670FFF707F90120F1
:1016C0000749087006E04FF44870FFF7FFF8002064
:1016D0000349087000BFCEE74217002038170020EA
:1016E000401700204C170020501700204117002001
:1016F00048170020010C034A1170010E5170010AB5
:1017000091707047B80A002070B50446A01C1C49AF
:1017100008601C48007800F0020050B908460168D3
:101720001948814205D316480068A0F58070144915
:1017300008600020154908701549087010480068B5
:101740000078401C13490870032013490870641C7A
:101750000C48007800F0020020B90B48844201D305
:10176000A4F580742578032D03DC7820FFF7AEF80C
:1017700005E005EB8501C904080CFFF7A7F870BD6B
:101780005417002041170020CF8800205A1700204E
:101790005C170020581700204017002010B500BF2C
:1017A000302080F31188BFF34F8FBFF36F8F00BFDE
:1017B0000AF042F918B14FF080500449086000BFA8
:1017C000002080F3118800BF10BD000004ED00E090
:1017D0001048006840F470000E4908600E48006828
:1017E00040F001000C49086000208860084600684D
:1017F0000A490840084908608814C860084600681B
:1018000020F48020086000208861C80301498039E5
:101810000860704788ED00E000100240FFFFF6EA24
:1018200000BF0A48006900F0010070B101200849BA
:10183000087008480078401C0649087000BF6FF027
:1018400001000249086100BF00BF7047001000405E
:101850009D0C00209C0C002000BF0748006900F090
:10186000010040B101200549087000BFC01E0249B7
:10187000086100BF00BF704700140040980C0020B2
:101880002DE9F04188B007460D4618220D4902A8FF
:10189000FEF70CFD02AE344606F118080DE0D4E95F
:1018A0000001CDE900010098A84205D13846019910
:1018B000884708B0BDE8F08108344445EFD100BF47
:1018C000F7E700003CCA00082DE9F0438FB08046DE
:1018D0000D46164630220F4903A8FEF7E7FC03AF7A
:1018E0003C4607F130090FE0D4E90001CDE90101E0
:1018F000BDF80400A84206D19DF80600B04202D10E
:1019000040460299884708344C45EDD10FB0BDE8F8
:10191000F083000054CA000800B585B014220449C1
:101920006846FEF7C3FC684603F0CCFC05B000BD7A
:1019300040C8000800B585B0142204496846FEF787
:10194000B5FC684603F0BEFC05B000BD54C80008F5
:101950000348406940F00040014948617047000079
:101960000020024000BF00BF00BF1448007828B12B
:1019700000BF4FF47A7009F05FFAFAE7FA2009F035
:101980005BFA0F4805F010FB0E4981F82702084664
:1019900006F0D2FA11210B4806F026FB094801F0A7
:1019A00037FF00BF064805F05BFA044621460548AC
:1019B00002F07EF8034801F0CDFAF3E77C1B00202B
:1019C000881B0020547800202DE9F04798B08D4BFB
:1019D0000FCB14AC0FC408274FF0000800200EE016
:1019E00014A911F81010082907D814A901EB400117
:1019F0004978082901D3044603E0411CC8B20228F3
:101A0000EEDB14227F4910310FA8FEF74FFC0020B7
:101A100015E004EB84010FAA02EB410111F810104C
:101A200008290AD804EB840102EB410101EB4001D3
:101A30004978082901D3054603E0411CC8B20528AE
:101A4000E7DB14226F4924310AA8FEF72FFC6D4909
:101A5000383103C9CDE9080100BF0AA951F82500B2
:101A60006949096821F007010143674A116000BF15
:101A700000BF1046006800F007000AA951F82510C1
:101A80008842EAD108A951F824006049096821F484
:101A9000C06101435D4A116000BF00BF5C4800683F
:101AA00040F480305A49086000BF00BF00BF58486A
:101AB0000068C0F340400028F8D000BF54480068D8
:101AC00020F001005249086000BF00BF03F046FB50
:101AD0000128FBD100BF4E48006840F008004C4987
:101AE000086000BF7020096821F0F0010143484AF6
:101AF000116000BF00BF1046006840F001001146B1
:101B0000086000BF00BF03F029FB0128FBD100BF24
:101B10003F48006840F480703D49086000BF00BF46
:101B200000BF3B480068C0F380200028F8D00020A8
:101B30003749896821F0F0010143354A916000BFBF
:101B400000BF1146896821F4E0610143916000BF44
:101B500000BF1146896821F460510143916000BFC4
:101B60002022284940316846FEF7A0FB0220284980
:101B7000896821F003010143254A916000BF0026D6
:101B800000BF00BF2248806800F00C00064608280D
:101B9000F7D12048FFF75EFA0420042808D14FF05F
:101BA000E021096941F004014FF0E022116107E0F2
:101BB0004FF0E021096921F004014FF0E0221161AA
:101BC00000BF1548FFF73EFB4FF080700021104A20
:101BD000926822F0FE4240EA01031A430C4B9A60DD
:101BE00000BF03F0E7FA82460022114603F0C0FA74
:101BF000814649464FF0FF3003F09AFA18B0BDE82D
:101C0000F087000010C5000800200240007000406E
:101C100000100240001BB70000127A0010B5044605
:101C200000231A4619460248006809F0B1FC10BDAD
:101C30001C0A002000BF234805F0B6F928B100BFF8
:101C40004FF47A7009F0F8F8FAE701211D4805F021
:101C500051FA00BF1B4805F080F904282ED100215D
:101C6000184805F0FBF90221164805F043FA00BFB9
:101C700000231A4619461448006809F05BFB012846
:101C800009D11049114804F0ECF84FF400621049F2
:101C90000E4804F08FF80B4805F05FF9042808D1CE
:101CA0000021084805F0DAF90121064805F022FA7A
:101CB00003E00A2009F0C0F8DAE700BF0A2009F0C3
:101CC000BBF8C7E7881B00203C0A0020C48700201F
:101CD000C47F00201FB52E4806F04CFD09F0A6FE7B
:101CE000024600200346012100902A4800680AF0BD
:101CF000BFF829480068039003AD04AE00BF00237D
:101D00005A1E19462548006809F014FB204807F0C0
:101D100035FA08BB1E48D0E90010491C40F100000C
:101D20001B4AC2E900102C46374611E0206800909B
:101D3000BDF800000021164AD2E90032C01A9141D4
:101D400004D29DF80210164805F088F900BF241D42
:101D5000BC42EBD100BFD2E72C46374610E02068EA
:101D600000900F4805F0F9F89DF80210884205D15F
:101D70009DF803100A4805F071F900E000BF241D2A
:101D8000BC42ECD100BF0021014A11605160B6E7AE
:101D9000581A0020A00A002084C90008640A002004
:101DA000881B00200548406900F0004020B104482D
:101DB00002498860034888607047000000200240A4
:101DC00023016745AB89EFCD8EB000BF304805F0E9
:101DD000EBF828B100BF4FF47A7009F02DF8FAE75C
:101DE0002B4805F0E1F82B4981F82702084606F058
:101DF000A3F88F21274801F05BFE274AD2E90010A3
:101E00009268CDE90C020B910BA9224806F0A6F9C5
:101E1000204801F0FDFC09F009FE044600200346BD
:101E20002246012100901D4800680AF021F800BFF9
:101E3000202219490C3103A8FEF738FA03AD2C46CD
:101E400005F120061DE0D4E90001CDE90101019969
:101E500000231A460868194609F06CFA01280FD1C8
:101E60000298804700200B4981F8300200BF0948E2
:101E700001F070F8074890F830020028F7D102E02E
:101E80000834B442DFD100BF052008F0D5FFCFE70A
:101E9000881B0020B47A0020DCC800089C0A0020BF
:101EA00000BF00BF0A2008F0C7FFFBE786B022484A
:101EB00002F0BAFB214BD3E901211868DB68CDE9B8
:101EC0000413CDE9020209F0B1FD044600200346E7
:101ED0002246012100901A48006809F0C9FF00BF9E
:101EE00000235A1E19461748006809F023FA1248C1
:101EF000007F02A901EBC00040680F4901EB6004BC
:101F00000846007F02A901EBC000007900F0010043
:101F100020B90948007F51F8300007E00649097FE1
:101F200002AA52F83110206845182868064604496C
:101F30002046B047D4E70000D869002098C80008C0
:101F4000940A00201C0A002010B5044600231A46FB
:101F500019460248006809F01BFB10BD200A00204A
:101F600000BF00BF00BF12480078012805D000BFA5
:101F70004FF47A7008F060FFFAE7FA2008F05CFF8F
:101F80000C4805F011F80C4981F82702084605F0C5
:101F9000D3FF1121084806F027F8074801F038FC64
:101FA00000BF04F07BFB044800F0D4FFF9E7000019
:101FB0007C1B0020881B0020647D002010B5044697
:101FC00000231A4619460648006809F0E1FA002382
:101FD0001A4619460348006809F0DAFA10BD0000F5
:101FE000640A0020680A002004200C49096901F4F1
:101FF0008031B1F5803F01D101200EE00749096928
:1020000001F0100109B1022007E00449096901F05B
:10201000200109B1032000E00420704700200240A5
:102020008AB000BF00BF164806F037FD144806F01E
:1020300093FD134806F044FE114806F072FD002897
:10204000F1D04FF480500F49896C01430D4A9164DF
:102050001146896C0140009100BF00BFFEF776FB7E
:1020600000BF09A0FEF7A6FB00BF242101A8FEF7D0
:1020700036F901A8FEF746FB00BF02F0FBFBFCE7C8
:102080008419002000100240656E75007047000042
:1020900010B50246002072B602EB4203044C04EB7A
:1020A000C30301EB410403EB8403187A62B610BD4D
:1020B000580D002010B572B600EB4003044C04EB41
:1020C000C30301EB410403EB84031A7262B610BD33
:1020D000580D00201CB5084903C9CDE90001074887
:1020E00004F062FF044600BF204603F043FA5DF8A7
:1020F00024008047F8E7000008C90008881B00207A
:1021000090B01B4804F03CFB18221A490AA8FEF7BD
:10211000CDF800BF00235A1E19461748006809F081
:1021200009F9164804F06AFF0AA901EBC00103C9C6
:10213000CDE90801CDE9000108460D4901EB600435
:10214000DDE90801CDE9020101F0010020B9DDE976
:102150000801CDE9040106E0DDE90801CDE9060149
:1021600021684518286806462046B047D2E7000097
:10217000681A00206CC90008680A0020881B00202B
:102180002DE9FF4701468868C36843F00103C36037
:1021900000BF8868036843F00103036000BFC826DE
:1021A0003248006803903148001D0068029003A87F
:1021B000009002A8019000220A274FF0140C2CE096
:1021C0002B480078012828D10020294B1870501C7A
:1021D000C2B26D46284605F108091CE00346D1F855
:1021E00004A0DAE90084D8F810A00AEA040AA2459B
:1021F00002D14FF0010A01E04FF0000A1C68A478F8
:10220000A24507D11C682478641CE4B2D3F800808E
:1022100088F80040001D4845E0D1142AD0D19DF82F
:102220000C00142801D1002006E09DF8080090421F
:1022300001D1012000E0022008700B780D4890F8D1
:10224000940063F301000B4B83F894008868C36823
:1022500023F00103C36000BF8868036823F0010313
:10226000036000BF087804B0BDE8F08770C50008BF
:10227000980C0020881B00202DE9F04F8DB00446FB
:102280005449A06888427DD120205349896D01437B
:10229000514A91651146896D0140019100BF00BF0F
:1022A00004A8FEF7E5FE4FF4FA666427069800F5E9
:1022B0007A703146B0FBF1F0401E85B213200390D6
:1022C00000200290ADF82050099013200A900020C1
:1022D0000B9008A9A068FEF7BBFFA06803F03CFDC7
:1022E0000421A068026822F004020A43026000BFD1
:1022F0000021A068026822F008020A43026000BFC1
:10230000A068026822F070020A43026000BFA06861
:10231000016821F08001016000BF0021A0684162D6
:1023200000BF37212D4B1B68C3F302204FF0050C73
:102330004FF000080346C3F1070BBBF1040F02D9AD
:102340004FF0040B01E0C3F1070BDA4603F1040B75
:10235000BBF1070F02D24FF0000B01E0A3F1030B1A
:10236000D9464FF0010B0BFA0AFBABF1010B0BEA5C
:102370000C0B0BFA09FB4FF0010E0EFA09FEAEF141
:10238000010E00E023E00EEA080E4BEA0E0200BF49
:1023900000290ADA10074FEA106C10480C3001F0DF
:1023A0000F031B1F00F803C003E01007030E0C48C7
:1023B000435400BF372000F01F0201219140420921
:1023C000920002F1E022C2F8001100BF00BF0DB080
:1023D00000F008B800140040001002400CED00E0CE
:1023E00000E400E030BCBDE8C08F70B586B00446A4
:1023F0000D461646002020706560A6606268D2E92E
:1024000002018847606840680090002001900290B7
:1024100001200490616808686946FEF735FD204692
:1024200006B070BD704708B5034600200090052A2D
:1024300004D0062A15D0102A38D125E00020ADF8A6
:1024400000004FF47F40ADF80200BDF80000884264
:1024500003D0BDF80200884201D1012008BD002050
:10246000FCE70020ADF800004FF6FF70ADF8020069
:10247000BDF80000884205DCBDF80200884201DB9F
:102480000120EBE70020E9E70120ADF800007B2008
:10249000ADF80200BDF80000884205DCBDF802007E
:1024A000884201DB0120D9E70020D7E70020D5E7EB
:1024B0002DE9F04704460D4692462E46F71C06F1DC
:1024C0000C0804F50F794A464146384609F074FE77
:1024D00040B31D480088401C00B21B4908804AF2E6
:1024E0005A511A4805F084F900BF00BF00BF00BF71
:1024F00000BFBFF34F8F00BF00BF00BF144800688C
:1025000000F4E06013490843001D1149086000BF52
:1025100000BF00BFBFF34F8F00BF00BF00BF00BFB1
:1025200000BFFDE708480088401E00B20649088049
:1025300094F8341294F827020022FFF7BBFD002024
:1025400084F83002BDE8F087440D0020881B00208D
:102550000CED00E00000FA0570B504460D46164685
:10256000012332462946204600F054FD70BD00008C
:102570002DE9F04F8BB005460C4616469846D5F827
:10258000380200680990D5F838020068D5F838128A
:10259000898800EB011008902746F878B97800EB9D
:1025A000012080B207907879397900EB01200FFA89
:1025B00080FB1FFA8BF142462846FFF734FF60B9D3
:1025C000607840F0800060700320A07021462846AB
:1025D00000F02AFC0BB000F061B80020069006A8BD
:1025E0002D49039003C9CDE9008002912846DDE919
:1025F0000732099900F055F850B9607840F0800032
:1026000060700220A0702146284600F00DFCE1E732
:102610002168C5F814116168C5F81811CDF814B017
:102620000698C16805F50E7000EB61090698007BFD
:1026300000F0010010B90698806807E0D9F80000A2
:102640000699896800EB010ADAF8000005A90A90EA
:1026500048460A9A9047012811D1B01E81B205F56B
:102660008A70FEF747F9B11E05F58A725052F1B231
:10267000284601F057F8002085F830020AE060781B
:1026800040F0800060700420A0702146284600F0D1
:10269000CBFB9FE700BF9DE790C6000830BCBDE8BC
:1026A000C08F2DE9F04F89B00746884615469946F8
:1026B000DDF854A044462FE0608848452BD12178AE
:1026C0001298814227D1DDE91301CDE9000107F518
:1026D0000E7000EB61061398CDE9020101F00100D4
:1026E00020B9DDE91301CDE9040108E0DDE91301BA
:1026F000CDE90601316800EB010BDBF80000089022
:1027000030466168089A904728B1CAF80040012015
:1027100009B000F007B81034AC42CDD3CAF800506D
:102720000020F5E730BCBDE8C08F00002DE9F04F78
:1027300095B005460E4691463C22204905A8FDF776
:10274000B5FD052004900DF1140A14AF504639462A
:102750001496039600E00C3088420ED090E80C10DE
:102760008DE80C109DF80020039B5B789A4201D104
:10277000012200E00022002AEDD00446A74203D146
:10278000002085F8300216E0A06805EB6008207A8A
:1027900000F0010008B9606806E0D8F80000616840
:1027A00000EB010BDBF800004A463146039040463F
:1027B000039B984700BF15B000F002B800C700089F
:1027C00030BCBDE8C08F00002DE9FF410446204623
:1027D00000F0F6FFC1B240F233200155005D94F8DD
:1027E0003212884204D152480078401C5049087087
:1027F00040F23320005D4F49087094F8321240F2E5
:102800003320005D814219DC40F23320005D94F8F2
:102810003212401A4849087094F8321204F1150037
:102820000D1840F23320015D04F115000E1804F577
:1028300094723146284609F0AAFC2BE094F8320243
:10284000C0F1FF0140F23320005D08443A490870AE
:1028500094F8321204F115000D1804F58A7604F587
:1028600094723146284609F092FC04F1150540F2B5
:102870003320015D28460E1840F23320005D2E49BA
:102880000978091A04F594700A183146284609F0A7
:102890007EFC00BF94F83202401C04F11501085C74
:1028A000062804D925480078401C2449087022488D
:1028B000027804F59471204600F0B2FE38B3204B44
:1028C0000FCB8DE80F0094F83402694601EBC0008D
:1028D000406804EB600594F8340201EBC000007915
:1028E00000F0010020B994F834025DF8300006E0F1
:1028F00094F834125DF8311028684618306807469D
:102900000D48027804F594712846B84702E000208B
:1029100084F83002204600F0DDFE94F8300220B149
:1029200008480078401C0749087000F00DB8000006
:102930003F0D00203E0D00203C0D0020400D0020EA
:102940003CC70008410D002003BCBDE8FC812DE917
:10295000F04704460F46914604F580703988A4F884
:10296000141104F50E7001F06DFD804605214FF441
:102970008B70015504F2171500BF18F8011B05F8FC
:10298000011B0029F9D1FF21681E054601706D1C4D
:10299000042604F50E7001F055FD8246FDF7AAFCF1
:1029A0000644B1B204F58A70FDF7A4FF2880B01C7C
:1029B000C1B2204600F0B6FE002084F83002BDE827
:1029C000F0872DE9F04F87B004460E46D4F8380260
:1029D000D0F800A0D4F838020068D4F838128988FA
:1029E00000EB0117B04698F803008DF8140098F832
:1029F00002008DF8150050463946059A0692049259
:102A000000E01030884212D090E80C10D0F80C9002
:102A10008DE80C10CDF80C90BDF80220BDF81030F8
:102A20009A4201D1012200E00022002AE9D00546A5
:102A3000BD421AD04AF25A50039004F50E70E9686C
:102A400000EB6109287B00F0010008B9A86806E0E6
:102A5000D9F80000A96800EB010BDBF8000003A91E
:102A600004904846049A904700BF002084F8300242
:102A700007B000F000B830BCBDE8C08F70B50446A8
:102A80000D4616460523324629462046FFF770FDBF
:102A900070BD70472DE9F04F8BB004460F46D4F857
:102AA0003802D0F800B0D4F838020068D4F83812F0
:102AB000898800EB01180A970A9FB9784FF41770BC
:102AC000005BB1EB400F05D0002084F830020BB062
:102AD00000F086B8002129E0B4F85A02084485B213
:102AE000584643460995089500E01030984214D0A6
:102AF000D0E901C9D0F80CA00668CDE905C9CDF828
:102B00001CA00496BDF81260BDF820C0664501D136
:102B1000012600E00026002EE7D00246424503D100
:102B2000002084F83002D2E7481CC1B24FF417707D
:102B3000005B8842D0DC002644E0B4F85A023044FE
:102B400080B206900A98C01C00EB460A58464146DF
:102B5000069A0992049200E0103088420ED090E864
:102B60000C508DE80C50BDF80220BDF810309A4290
:102B700001D1012200E00022002AEDD00546BAF87A
:102B8000000005909AF801009AF8001000EB01206F
:102B900080B2059004F50E70E96800EB6109287BAE
:102BA00000F0010008B9A86805E0D9F80000A9689C
:102BB00008440890006805A907904846079A90477E
:102BC000701CC6B24FF41770005BB042B5DC04F560
:102BD0000E7001F0F5FB002084F8300200BF76E7AC
:102BE00030BCBDE8C08F70B504460D4616460223C2
:102BF00032462946204600F00DFA70BD70B50446F5
:102C00000D461646042332462946204600F006FBB0
:102C100070BD2DE9F04F87B004460E46D4F8380257
:102C2000D0F800A0D4F838020068D4F838128988A7
:102C300000EB01183746F8788DF81400B8788DF855
:102C4000150050464146059A0692049200E0103065
:102C5000884212D090E80C10D0F80C908DE80C103F
:102C6000CDF80C90BDF80220BDF810309A4201D189
:102C7000012200E00022002AE9D00546454519D08E
:102C8000B888039004F50E70E96800EB6109287BB1
:102C900000F0010008B9A86806E0D9F80000A968AA
:102CA00000EB010BDBF8000003A904904846049AEE
:102CB000904700BF002084F8300207B000F000B851
:102CC00030BCBDE8C08F70B504460D4616460623DD
:102CD000324629462046FFF74BFC70BD2DE9F04FE8
:102CE0008BB004460F46D4F83802D0F800B0D4F8C0
:102CF00038020068D4F83812898800EB01180A9766
:102D00000A9FB9784FF41670005BB1EB400F05D005
:102D1000002084F830020BB000F082B8002129E0D6
:102D2000B4F85602084485B25846434609950895BA
:102D300000E01030984214D0D0E901C9D0F80CA0BE
:102D40000668CDE905C9CDF81CA00496BDF812604F
:102D5000BDF820C0664501D1012600E00026002E06
:102D6000E7D00246424503D1002084F83002D2E782
:102D7000481CC1B24FF41670005B8842D0DC0026BC
:102D800044E0B4F85602304480B206900A98C01C61
:102D900000EB460A58464146069A0992049200E022
:102DA000103088420ED090E80C508DE80C50BDF8E1
:102DB0000220BDF810309A4201D1012200E0002229
:102DC000002AEDD00546BAF8000005909AF80100F7
:102DD0009AF8001000EB012080B2059004F50E7007
:102DE000E96800EB6109287B00F0010008B9A868D8
:102DF00005E0D9F80000A96808440890006805A912
:102E000007904846079A9047701CC6B24FF4167058
:102E1000005BB042B5DC002084F8300200BF7AE7E6
:102E200030BCBDE8C08F000070B504460D464FF4BD
:102E30008B702988A4F81411A9780155032104F591
:102E40008A70FDF757FD04F58A71A4F8170140F266
:102E50001510005D012804D106480078401C054982
:102E600008700521204600F05DFC002084F8300247
:102E700070BD0000420D002070B504460D46164698
:102E8000032332462946204600F0C8F970BD70473A
:102E900070B504460D461646102332462946204694
:102EA00000F0A2FA70BD00002DE9F04FA1B0064677
:102EB0000D4691466C22244905A8FDF7F7F9092033
:102EC00004900DF1140A20AF504639462095039521
:102ED00000E00C3088420ED090E80C108DE80C1009
:102EE0009DF80020039B5B789A4201D1012200E00B
:102EF0000022002AEDD00446A7420CD1687840F0A9
:102F0000800068700120A87029463046FFF78CFFCA
:102F100021B000F01BB8A06806EB6008207A00F032
:102F2000010008B9606806E0D8F80000616800EBAD
:102F3000010BDBF800004A46294603904046039BFC
:102F4000984700BF00BFE3E74CC7000830BCBDE8AE
:102F5000C08F0000F0B587B004461822124901A8BE
:102F6000FDF7A4F994F8300201A901EBC000406814
:102F700004EB600594F8300201EBC000007900F02A
:102F8000010020B994F8300251F8300007E094F8BD
:102F9000301201AA52F831102868461830680746E6
:102FA0002846B84707B0F0BDA0C6000870B5044673
:102FB00094F8341294F82702FFF76AF818B92046FB
:102FC00000F068FB03E0022007F036FF70BD6425C7
:102FD000D4F82812002364220868194608F0AAF9D8
:102FE00001280CD1D4F82C1200231A46086819467F
:102FF00008F0A0F918B9012084F8300208E094F82C
:10300000340210B9204600F065FB002084F830023D
:1030100000BFDBE72DE9FF4F91B005460C46D5F820
:10302000380200681090D5F838020068D5F83812D8
:10303000898800EB01100F90A2469AF803009AF8D5
:10304000021000EB012080B20E909AF805009AF869
:10305000041000EB012086B2012E01DB0A2E0CDDEC
:10306000607840F0800060700320A0702146284600
:10307000FFF7DAFE15B000F0CDB84FF0000923E0FD
:103080000E98484480B20C9000200B900BA85F492A
:10309000039003C9CDE901011498009028460C9BC8
:1030A000DDE90F21FFF7FDFA50B9607840F08000AC
:1030B00060700220A07021462846FFF7B5FED9E7D0
:1030C00009F101001FFA80F9B145D9DB052700207D
:1030D0000D90F00818B1C6F3C7000D9001E0012073
:1030E0000D903844C7B24FF000082278414608F1ED
:1030F000010805F58A7042546278414608F10108DA
:103100004254424608F101080D9981544FF0000BDA
:1031100000200C900B905EE00C990E98084480B251
:103120000690069ADDE90F100A92049200E0103032
:1031300088420ED090E80C508DE80C50BDF802206B
:10314000BDF810309A4201D1012200E00022002A8D
:10315000EDD081460020059005F50E70D9F80C10D1
:1031600000EB6100099099F80C0000F0010010B923
:10317000D9F8080006E009980068D9F80810084452
:103180000890006805A90790079A099890479DF84C
:1031900014000B998840C0B205909DF814004BEACA
:1031A000000B0B98401C80B20B9008280BD14046B6
:1031B000411C01F0FF0805F58A7101F800B00020FC
:1031C0000B90834603E005F58A7000F808B00C9870
:1031D000401C80B20C900C98B0429DDBB81E81B2AE
:1031E00005F58A70FDF786FBB91E05F58A72505207
:1031F00007480078401C064908703946284600F008
:1032000091FA002085F8300200BF33E790C600082D
:103210003D0D002030BCBDE8C08F00002DE9FF4F00
:103220008FB005460C46D5F8380200680E90D5F8E8
:1032300038020068D5F83812898800EB01100D902B
:10324000A14699F8030099F8021000EB012080B222
:103250000C9099F8050099F8041000EB012086B253
:10326000012E01DB0A2E0CDD607840F080006070DA
:103270000320A07021462846FFF7D6FD13B000F0CA
:10328000AFB84FF0000823E00C9840441FFA80FBD1
:1032900000200A900AA85149039003C9CDE9010111
:1032A00012985B4600902846DDE90D21FFF7F9F9F9
:1032B00050B9607840F0800060700220A070214614
:1032C0002846FFF7B1FDD9E708F101001FFA80F8A1
:1032D000B045D9DB4FF0050A7006000E0B900B9835
:1032E000504400F0FF0A0027227839467F1C05F57C
:1032F0008A704254627839467F1C42543A467F1C99
:1033000005F58A710B98885400200A904DE00A99BF
:103310000C98084480B20690069ADDE90D100992D7
:10332000049200E0103088420ED090E80C508DE8F6
:103330000C50BDF80220BDF810309A4201D1012294
:1033400000E00022002AEDD080460020059005F51F
:103350000E70D8F80C1000EB610B98F80C0000F020
:10336000010010B9D8F8080006E0DBF80000D8F832
:10337000081008440890006805A907905846079A65
:1033800090479DF815203846791CCFB205F58A7113
:103390000A549DF814203846791CCFB205F58A717D
:1033A0000A540A98401C80B20A900A98B042AEDBD8
:1033B000AAF1020081B205F58A70FDF79BFAAAF125
:1033C000020105F58A7250525146284600F0AAF9CA
:1033D000002085F8300200BF50E7000090C60008CA
:1033E00030BCBDE8C08F00002DE9F04F8FB005461E
:1033F0000C469946D5F8380200680E90D5F8380288
:103400000068D5F83812898800EB01100D90264627
:10341000F078B17800EB012080B20C9070793179AE
:1034200000EB012087B2B0790B904A463946284616
:10343000FEF7F9FF18B10B98B0EB470F0CD060788E
:1034400040F0800060700320A07021462846FFF7FE
:10345000EBFC0FB000F0AAB84FF0000A22E00C9885
:1034600050441FFA80FB00200A900AA84E4903909E
:1034700003C95B46CDE9009002912846DDE90D21A4
:10348000FFF70FF950B9607840F0800060700220BB
:10349000A07021462846FFF7C7FCDAE70AF10100D1
:1034A00000F0FF0ABA45DADB4FF00008C24661E0DF
:1034B0000C98504480B20790079ADDE90D10ADF8E2
:1034C00028208DF82A900A9A059200E01030884250
:1034D00016D090E80C50CDE903CECDE90123BDF81C
:1034E0000620BDF814309A4207D19DF804209DF8BB
:1034F00016309A4201D1012200E00022002AE5D0D4
:103500008046F01D00EB4A00008880B206909DF8CE
:1035100019009DF8181000EB012080B2069005F507
:103520000E70D8F80C1000EB610B98F80C0000F04E
:10353000010010B9D8F8080006E0DBF80000D8F860
:10354000081008440990006806A908905846089A8F
:10355000904701280AD0607840F080006070042015
:10356000A07021462846FFF75FFC72E70AF10100D0
:1035700000F0FF0ABA459BDB05F580702168C5F8AD
:103580001411A188A5F8181106211430FDF7B2F91D
:103590004FF48D7148530821284600F0C3F80020ED
:1035A00085F8300200BF54E790C6000830BCBDE883
:1035B000C08F00002DE9F84304460E4617461D460D
:1035C000DDE9088943463A4631462046CDF8009069
:1035D00000F0ACFA0446294604F50E7000F064FFD2
:1035E000A0F50E7405490968C4F856120449096823
:1035F000C4F85A122046BDE8F883000098C60008B7
:103600009CC6000810B5044604F50E7000F070FF6B
:10361000A0F50E74204600F0B1FA0446204610BD15
:103620002DE9F04104460F461646022E01D201252F
:1036300005E032463946204600F05BFA0546204652
:1036400004F056FC204600F036FA4FF47A714843F5
:10365000B0FBF1F8404607F0EFFB204600F0B0F871
:1036600040F23321095D88420FD1012D0DD094F82D
:103670003402012806D194F8341294F8270201226A
:10368000FEF718FD0120BDE8F081204600F022F889
:103690000020F8E710B504461121204604F09FFBF6
:1036A00094F827220A4B03EB821294F8343202EB8F
:1036B0004312116994F82722054B03EB821294F808
:1036C000343202EB4312106801F07AFE10BD0000A4
:1036D000C0C7000810B50446204604F009FC94F861
:1036E00027220F4B03EB821294F8343202EB431281
:1036F000116994F827220A4B03EB821294F83432B2
:1037000002EB4312106801F069FE204600F058F801
:10371000C1B240F233200155005D84F8320210BD81
:10372000C0C7000870B504460D4604F2272422786D
:10373000214B03EB8212637B02EB43121068227869
:103740001D4B03EB8212637B02EB431291694A1E0D
:103750001A4B9A5C024452686FF30F022A434B1EC5
:10376000164EF35C03445A6000BF2278124B03EB01
:103770008212637B02EB4312106822780E4B03EB3C
:103780008212637B02EB4312D168884722780A4B8E
:1037900003EB8212637B02EB431291692278064BA2
:1037A00003EB8212637BA4F2272402EB431210681E
:1037B00001F006FE70BD0000C0C70008B8C70008D1
:1037C00010B5014601F227210B780D4C04EB831351
:1037D0004C7B03EB441318680B78094C04EB831300
:1037E0004C7B03EB44131A69531E064CE35C034401
:1037F0005B688B72887AA1F22721C0F1FF0010BDAF
:10380000C0C70008B8C70008014691F836027047E3
:103810002DE9F04395B004461422A04910A8FCF706
:1038200045FD606800682430109004F11500119087
:1038300014229A4914310BA8FCF738FD606800681F
:1038400028300B9004F58A700C9094F82722944B42
:1038500003EB821294F8343202EB4312906894F82E
:1038600027228F4B03EB821294F8343202EB43127F
:10387000516888470B9800900C9801900D98029021
:103880000E98039000200490802005900020069060
:1038900007900F98089002200990C0020A9000BF7C
:1038A00094F827227E4B03EB821294F8343202EB19
:1038B0004312916994F82722794B03EB821294F812
:1038C000343202EB431210686A46FDF76FF90028A4
:1038D000E6D11098009011980190129802901398D8
:1038E0000390149808900220099000BF94F82722B2
:1038F0006B4B03EB821294F8343202EB43121169E2
:1039000094F82722664B03EB821294F8343202EBD0
:10391000431210686A46FDF749F90028E6D194F889
:1039200027025F4B03EB801094F8343200EB431016
:1039300090F91C105B4B1B68C3F302200525002681
:103940000346C3F10708B8F1040F02D94FF0040889
:1039500001E0C3F10708C44603F10408B8F1070FFA
:1039600002D24FF0000801E0A3F1030847464FF0F0
:10397000010808FA0CF8A8F1010808EA050808FA95
:1039800007F84FF0010909FA07F9A9F1010909EA55
:10399000060948EA090200BF002908DA1007050EE7
:1039A00040480C3001F00F031B1FC55403E0100703
:1039B000030E3D48435400BF94F82712384A02EBE7
:1039C000811194F8342201EB421191F91C0000F0AE
:1039D0001F02012191404209920002F1E022C2F847
:1039E000001100BF94F827222D4B03EB821294F8AC
:1039F000343202EB4312106894F82722284B03EB71
:103A0000821294F8343202EB431291694A1E274B1A
:103A10009A5C825842F002034A1E244DAA5C8350ED
:103A200000BF61680868816841F04001816000BFA3
:103A300061680868816841F08001816000BF94F886
:103A40002722174B03EB821294F8343202EB431215
:103A5000116994F82722124B03EB821294F8343246
:103A600002EB4312106801F0ABFC94F827220C4BD8
:103A700003EB821294F8343202EB4312916994F80A
:103A80002722074B03EB821294F8343202EB4312E5
:103A9000106801F0A3FC15B0BDE8F0836CC8000805
:103AA000C0C700080CED00E000E400E0B8C7000863
:103AB00080F8361270470EB501461620029008892C
:103AC00080B200F5FA704FF47A72B0FBF2F080B277
:103AD0000190BDF80800BDF8042090FBF2F080B220
:103AE0000090BDF8000008B901200EBDBDF800002F
:103AF000FBE72DE9F04705460C461646B01E87B297
:103B000039462046FCF7F6FE804634F80790C84553
:103B100006D1207895F83612884204D0207810B16A
:103B20000120BDE8F0870020FBE700002DE9F0410F
:103B300004460F4615461E46DDF8188006230D4A3A
:103B40003946204604F01FFB0446002084F8270273
:103B5000C4F82862C4F82C8284F8300204F500709E
:103B600005490988A4F8321284F834522046BDE889
:103B7000F08100003CC6000868C8000810B5044683
:103B8000204604F014FB0446204610BD2DE9F04108
:103B900080460C460027064803F0FFF805462678C5
:103BA000B54202DB0120BDE8F0810020FBE7000008
:103BB000881B002070B506460C462546024803F0D7
:103BC000C4FA2870012070BD881B00202DE9F04147
:103BD00080460D462F4600260A4803F0D3FA0446D5
:103BE000012007E004F0010101B1064400EB80016F
:103BF0004800640814B1B0F57A7FF3D93E80012003
:103C0000BDE8F081881B002070B506460C462546AD
:103C1000024804F013F82880012070BD881B0020A2
:103C200070B506460C46208805B269B2014803F01B
:103C3000CDFF70BD881B002070B506460C4620885D
:103C400005B2E9B2014803F0DDFF70BD881B00201A
:103C500003460A46002010700120704770B50646E2
:103C60000C46208805B2E9B2014803F0F2FF70BDAE
:103C7000881B002070B506460C462546024803F016
:103C8000CAF82880012070BD881B002070B5064648
:103C90000C462546024803F0C9F82870012070BD83
:103CA000881B002070B506460C462546024803F0E6
:103CB000CAF82870012070BD881B002070B5064628
:103CC0000C462546024803F0CBF82880012070BD41
:103CD000881B002070B506460C462546024803F0B6
:103CE000A7F92880012070BD881B002003460A46E2
:103CF0004FF60140108001207047000070B5064665
:103D00000C46208805B22946014803F0FAF870BD38
:103D1000881B002070B506460C462546024803F075
:103D200025FA2870012070BD881B002070B506465A
:103D30000C462546024803F030FA2870012070BD79
:103D4000881B002070B506460C462546024803F045
:103D500062FB2870012070BD881B002070B52DED1E
:103D6000028B06460C462546084803F061FBB0EE80
:103D7000408A05F01DFFBDEEC00A10EE100A00B229
:103D800028800120BDEC028B70BD0000881B002044
:103D900070B506460C462546024803F054FB2880C1
:103DA000012070BD881B002070B506460C462546D4
:103DB000024803F0A8FC2870012070BD881B002079
:103DC00070B506460C46208805B20DB1012000E012
:103DD00000200146024803F0BCFA012070BD00003B
:103DE000881B0020F8B506460C46054803F0E2F9AA
:103DF0008DED000A2546BDF8020028800120F8BD9F
:103E0000881B0020F8B506460C46054803F0D2F999
:103E10008DED000A2546BDF8000028800120F8BD80
:103E2000881B002070B506460C462546024803F064
:103E3000B9FB2880012070BD881B002070B50646A4
:103E40000C462546024803F0DDFB2880012070BDAA
:103E5000881B002070B506460C462546024803F034
:103E600045FC2870012070BD881B0020F8B506466F
:103E70000C46054803F0EBFC8DED000A2546BDF825
:103E8000020028800120F8BD881B0020F8B50646F6
:103E90000C46054803F0DBFC8DED000A2546BDF815
:103EA000000028800120F8BD881B002070B5064660
:103EB0000C462546024803F0A3FA2880012070BD75
:103EC000881B002070B504460D4629882182D4F84D
:103ED0000E0000EE100A024803F059FA012070BDEE
:103EE000881B002002460888D0810120704700000E
:103EF00070B506460C46208805B2E9B2014803F0C9
:103F00008CFB70BD881B002070B506460C462088CF
:103F100005B2E9B2014803F0CDFB70BD881B00205B
:103F200070B506460C46208805B22946024803F0C3
:103F300030FB012070BD0000881B002070B50646D4
:103F40000C46208805B2E9B2024803F0FEFB0120CE
:103F500070BD0000881B002070B506460C46254643
:103F6000024803F007FC2880012070BD881B002058
:103F700070B506460C462546024803F01EFB288015
:103F8000012070BD881B0020F8B506460C46054888
:103F900003F01BF98DED000A2546BDF802002880CC
:103FA0000120F8BD881B0020F8B506460C460548E0
:103FB00003F00BF98DED000A2546BDF800002880BE
:103FC0000120F8BD881B00202DE9F04705460E466C
:103FD00031882983204803F025FD044684B3D5F8B1
:103FE000160000EE100A1C4803F047FC1A49A068AE
:103FF00001EB6007207A00F0010008B9606805E075
:104000003868616800EB0108D8F80000814638463E
:10401000C847D5F8160000EE900AB4EE600AF1EE3B
:1040200010FA08D121780C4802F0D1FE5A210A4832
:1040300003F0BAFB03E00A21074803F0B5FB04E0F4
:10404000FFE70A21044803F0AFFB0021024803F018
:10405000EDFC0120BDE8F087881B0020024608889F
:10406000D082012070470000F8B506460C4605488E
:1040700003F0BDFA8DED000A2546BDF80200288048
:104080000120F8BD881B0020F8B506460C460548FF
:1040900003F0ADFA8DED000A2546BDF8000028803A
:1040A0000120F8BD881B002070B506460C4620880C
:1040B00005B2A9B2014803F0EFF870BD881B0020DB
:1040C00070B504460D462988A182D4F8120000EE8E
:1040D000100A024803F073F9012070BD881B00200C
:1040E00002460888508201207047000070B50646DD
:1040F0000C462588E9B2024803F01AFA012070BD87
:10410000881B0020F8B506460C46254608A0006826
:104110000090084803F0A6FB0746064803F042FA61
:104120001DF9000017FB00F028800120F8BD0000F9
:104130000101FF01881B002070B504460D46298847
:10414000A183D4F81A0000EE100A024803F09AFA8C
:10415000012070BD881B0020024608885083012082
:10416000704700002DE9F04107460C46208805B253
:104170000DB1012000E0002006463146024803F060
:1041800053FB0120BDE8F081881B002070B5064676
:104190000C46208805B2A9B2024803F05AFA012061
:1041A00070BD0000881B0020F8B506460C46254669
:1041B00008A000680090084803F0ACFB07460648DA
:1041C00003F0F0F91DF9000017FB00F02880012032
:1041D000F8BD0000010101FF881B002070B50646F4
:1041E0000C462546024803F0A0FB2880012070BD44
:1041F000881B002070B506460C462546024803F091
:10420000F3FB2880012070BD881B00202DE9F041C0
:1042100080460D460026288804B2154803F085FB29
:10422000A04201D101261FE0E1B2114803F017FCC2
:10423000C8B1142700231A4619460E48006807F033
:10424000A7F90023142219460B48006807F072F8FA
:10425000012805D1E1B2064803F0AAFB012000E0E5
:104260000020064600E000263046BDE8F081000050
:10427000881B00205C0A0020600A00202DE9F04124
:1042800007460C46254628884AF25A51884207D1EB
:1042900000231A4619460948006807F079F90AE030
:1042A000074803F09AFA0646012E01D1FF2000E0EC
:1042B0000020288000BF0120BDE8F081540A0020C2
:1042C000881B002070B506460C462588E9B20248D6
:1042D00003F06EFB70BD0000881B002070B5064621
:1042E0000C46208805B2E9B2024803F019FC01200F
:1042F00070BD0000881B0020F8B506460C46254618
:104300000D4803F096FB2988884207D100231A46FE
:1043100019460A48006807F03BF90BE0064803F02D
:1043200088FB00909DF801009DF8001000EB012033
:10433000288000BF0120F8BD881B0020600A0020F3
:1043400070B506460C462546024803F07DFB2880E2
:10435000012070BD881B002070B506460C4625461E
:10436000024803F097FB2880012070BD881B0020C5
:1043700070B506460C462546024803F09FFB288090
:10438000012070BD881B002070B506460C46B4F9AC
:10439000005069B2024803F074FB012070BD0000B8
:1043A000881B002070B506460C46208805B269B20D
:1043B000024803F07AFB012070BD0000881B00203A
:1043C00010B5044600231A4619460248006807F053
:1043D000DFF810BD580A002070B506460C46254689
:1043E000024802F0D4FD2870012070BD881B002017
:1043F00070B506460C462546024802F0F2FD2870CC
:10440000012070BD881B002070B506460C4625466D
:10441000024803F09EFB2880012070BD881B00200D
:1044200070B506460C46208805B20DB1012000E0AB
:1044300000200146024802F02AFE012070BD000063
:10444000881B002010B50446034802F0ADFD034967
:1044500051F8200010BD0000881B00200817002024
:1044600070B506460C462546024803F099FB2880A5
:10447000012070BD881B002070B506460C462546FD
:10448000024803F098FB2880012070BD881B0020A3
:1044900070B506460C46208805B2E9B2014803F023
:1044A00063FB70BD881B002070B504460D46256077
:1044B0000A220BA1201DFBF7F9FE9FED0C0A10EE5E
:1044C000100A44F80E0F9FED090A10EE100A606002
:1044D0009FED060A10EE100AA0600E3C204670BD4B
:1044E000424F4F545F4D4F44450000000000000014
:1044F0007047000010B588B00446216888681349E9
:10450000C96C0140814201D1012100E0002169B95B
:10451000216888680D49C96C01430C4AD164114671
:10452000C96C0140019100BF00BF00BF2068406816
:1045300002900120039000200490059006902168CD
:10454000086802A9FCF7A0FC08B010BD00100240EA
:10455000036806CB8A6200BF704710B50446226824
:1045600003CA00F07FFF10BD01607047704701462D
:104570000878704700210170417070477047000053
:104580002DE9F84304460D46204600F073F8E17D1E
:104590006054E07D401CC1B2E175A07D814234D100
:1045A000012020770021E175264604F114082868CF
:1045B00007F0A3FC38B10020009000231A46032125
:1045C000286807F055FC208B4FF47A714843B0FB04
:1045D000F1F90020009000234A460421286807F0E2
:1045E00047FC32464146701C07F008FE18B121789E
:1045F0000C4802F04BFC30464146002701E00770B2
:10460000401C8842FBD100BF00BF07F00FFA0646EE
:1046100000200090002332460121286807F028FC82
:10462000BDE8F883881B00202DE9F0418EB00546D7
:104630002F6A286A00F150083C46464614E01422CE
:10464000214607A8FBF732FEDDE9090188470898F3
:1046500001900020029003900120059001A9079885
:10466000FCF712FC00BF1434B442E8D100BF0EB016
:10467000BDE8F0812DE9F0418AB0054600200890A0
:104680002F6A286A00F150083C46464608A809905F
:1046900006901AE01422214601A8FBF707FEDDE987
:1046A00001100A690240824201D1012200E0002289
:1046B0009DF81500824206D1069800789DF81410E6
:1046C00008440699087000BF1434B442E2D1069839
:1046D00007909DF820000AB0BDE8F081F8B50546C6
:1046E0000C4600202877206807F007FC38B100202E
:1046F000009000231A460321206807F0B9FBA88A1E
:104700004FF47A714843B0FBF1F60020009000238B
:1047100032460421206807F0ABFB07F087F9064614
:1047200000200090002332460121206807F0A0FB02
:10473000F8BD0000044A12684261044A12688261AE
:104740000022027701627047A8C80008ACC80008C0
:10475000704710B50246B2F94C00884203D1B2F856
:104760004C00401C01B2906A08309062801A052407
:10477000B4EBE00F00DC9262906A8180906A00687E
:10478000D06302F1340090640020506402F13400E0
:104790001064106C0068946AA04202D1D2E90F0440
:1047A0002060106C5064106C00681064002346E0B8
:1047B000106C0068946AA04202D1D2E90F04206014
:1047C000106CB0F90400884208DA506C0068946AF2
:1047D0002060546C906A2060B2F94C10906C0068B4
:1047E000906402F12C00146C844200D129E0106C1A
:1047F0005064106C00681064106C0068946AA042E9
:1048000002D1D2E90F042060106CB0F90400884294
:1048100008DA506C0068946A2060546C906A2060DA
:10482000B2F94C1002F12C00146C844200D108E063
:10483000106C5064106C00681064581C83B2052B17
:10484000B6DB00BF906CB0F9040010BD806200229E
:10485000C262018600F12C02426300230387A0F8A4
:104860004C107047704742694A404261704781620C
:10487000704700002DE9F0412DED068B88B04FF018
:10488000050800231A4619467C48006806F080FE99
:104890000023052219467A48006806F04BFD48B906
:1048A00078480078401C7749087008B0BDEC068B4A
:1048B000BDE8F0817449754802F00AF872497348FE
:1048C00002F02EF800287CD00121714803F097F8FF
:1048D00000200590069007906E48059901600699A2
:1048E00041600799816002466749684801F099FF75
:1048F0006848006800EE100A6648406800EE900ABA
:1049000070EE200A6348806800EE100A30EE800ADC
:10491000614880ED000A5F48006802905D48406889
:1049200000EE100A022004F0B1FCF0EE408A594873
:10493000806800EE100A022004F0A8FC38EE800A1D
:10494000B0EE408A04F0B3FC8DED030A5148406894
:1049500000905048006800EE100A022004F096FC17
:10496000F0EE408A4B48806800EE100A022004F006
:104970008DFC38EE800AB0EE408A04F098FC8DED94
:10498000010A9DED031AF0EE410A9DED021AB0EE08
:10499000410A04F0B3FCDFED410A20EE200A10EEDC
:1049A000107A3846FBF744FD41EC1A0B9FED3C0BA7
:1049B00053EC102BFBF7CDFC41EC190BFBF74BFD37
:1049C00000E04EE008EE100AB0EE480A05F0F0F8FC
:1049D000BDEEC00A10EE100A46B231462C4802F075
:1049E00006FD9DED011AF0EE410A9DED001AB0EEB4
:1049F000410A04F083FCDFED290A20EE200A10EEC4
:104A0000107A3846FBF714FD41EC1A0B9FED240B8E
:104A100053EC102BFBF79DFC41EC190BFBF71BFD36
:104A200008EE100AB0EE480A05F0C2F8BDEEC00A62
:104A300010EE100A46B23146154802F07DFB1548CB
:104A4000806800EE100A124802F015FA0E4D05F5C6
:104A50006164002004AA21460490284607F0A1FBC7
:104A600003E000210A4802F0CAFF00231A46194653
:104A70000D48006806F08CFD00BF16E7400A0020D4
:104A8000480A00201D170020FC690020181700208C
:104A9000881B00200C7800202017002000003443E1
:104AA000182D4454FB210940440A00202DE9F04F01
:104AB0008FB04FF44875C826002004210346C82251
:104AC000CDE9001066A16A4806F06CFF044600F0CC
:104AD00043FB06F037FB674908604FF4FA774FF065
:104AE0007D080020032103467D22CDE9001062A14C
:104AF000654806F057FF044600F02EFB06F022FB47
:104B00005C49086040F6746940F29D3A0020052136
:104B1000034640F29D32CDE900105CA15D4806F0ED
:104B200041FF044600F018FB06F00CFB51490860F9
:104B30004FF47A7BFA200E90002004210346FA22DB
:104B4000CDE9001054A1574806F02CFF044600F0B0
:104B500003FB06F0F7FA4749086078000D90FA2049
:104B60000C90002004210346FA22CDE900104EA14A
:104B7000514806F017FF044600F0EEFA06F0E2FA9C
:104B80003C49086078000B90FA200A90002004212C
:104B90000346FA22CDE9001048A14C4806F002FF76
:104BA000044600F0D9FA06F0CDFA324908602846EA
:104BB0000990C8200890002004210346C822CDE9AE
:104BC000001043A1454806F0EDFE044600F0C4FA8B
:104BD00006F0B8FA2749086078000790FA20069096
:104BE000002004210346FA22CDE900103CA13F48F1
:104BF00006F0D8FE044600F0AFFA06F0A3FA1D490D
:104C000008604FF4967005904B200490002003211B
:104C100003464B22CDE9001035A1384806F0C2FE0C
:104C2000044600F099FA06F08DFA124908604FF434
:104C3000967003904B2002900020032103464B22E4
:104C4000CDE900102EA1314806F0ACFE044600F07C
:104C500083FA06F077FA074908600FB000F058B8F9
:104C6000434F44494E475F5357495443480000005F
:104C7000AD1E0008080A00204449534352455445DC
:104C80005F4F555400000000A11E00084D454D53D4
:104C90000000000021200008424153455F544F5F4F
:104CA0005043000065190008424153455F544F5F6F
:104CB00053454E5300000000C91D000853454E5394
:104CC0005F544F5F4D41535445520000611F00082F
:104CD0004445565F4354524C00000000D520000864
:104CE0004C4F474745525F4354524C00351C000817
:104CF0004C45445F544F47474C4500000121000894
:104D0000505553485F425554544F4E00D51C00082F
:104D100030BCBDE8C08F000000B587B0012012494B
:104D2000C96C0143104AD1641146C96C014000911D
:104D300000BF00BF019000200290059001A94FF034
:104D40009040FCF7A1F84FF480700190022002908F
:104D50000020039004900590069001A94FF0904028
:104D6000FCF792F807B000BD0010024038B51B48B0
:104D700000231A460521009019A007F033F81B49BB
:104D80000446086000F0F3F9194800231A4664212C
:104D9000009018A007F026F81A490446086000F0B1
:104DA000E6F94FF4FA7518480023012229460090CD
:104DB00016A007F017F817490446086000F0D7F965
:104DC0001548002301220A21009014A007F00AF8D8
:104DD00015490446086000F0CAF938BD1D1C0008DA
:104DE000436F64655377546D72000000940A00208D
:104DF000491F0008446F556E63616C6962546D729F
:104E000000000000980A00208D2000085064546DB6
:104E1000720000009C0A0020BD1F000842746E54FE
:104E2000696D657200000000A00A002010B5012025
:104E300006F042FA074908600846006800F096F953
:104E4000012006F039FA044908600846006800F0BD
:104E50008DF910BD8C0A0020900A002010B50322A5
:104E60000021012006F039FA93490446086000F059
:104E70009FF903220021012006F02FFA8F490446F2
:104E8000086000F095F903220021012006F025FAC0
:104E90008B490446086000F08BF9032200210120B1
:104EA00006F01BFA87490446086000F081F90322E6
:104EB0000021012006F011FA83490446086000F041
:104EC00077F903220021012006F007FA7F49044602
:104ED000086000F06DF903220021012006F0FDF9C1
:104EE0007B490446086000F063F903220021012099
:104EF00006F0F3F977490446086000F059F90322F7
:104F00000021012006F0E9F973490446086000F029
:104F10004FF903220021012006F0DFF96F49044612
:104F2000086000F045F903220021012006F0D5F9C0
:104F30006B490446086000F03BF903220021012080
:104F400006F0CBF967490446086000F031F9032206
:104F50000021012006F0C1F963490446086000F011
:104F600027F903220021012006F0B7F95F49044622
:104F7000086000F01DF903220021012006F0ADF9C0
:104F80005B490446086000F013F903220021012068
:104F900006F0A3F957490446086000F009F9032216
:104FA0000021012006F099F953490446086000F0F9
:104FB000FFF803220021012006F08FF94F49044633
:104FC000086000F0F5F803220021012006F085F9C1
:104FD0004B490446086000F0EBF803220021012051
:104FE00006F07BF947490446086000F0E1F8032227
:104FF0000021012006F071F943490446086000F0E1
:10500000D7F803220021012006F067F93F49044642
:10501000086000F0CDF803220021012006F05DF9C0
:105020003B490446086000F0C3F803220021012038
:1050300006F053F937490446086000F0B9F8032236
:105040000021012006F049F933490446086000F0C8
:10505000AFF803220021012006F03FF92F49044652
:10506000086000F0A5F803220021012006F035F9C0
:105070002B490446086000F09BF803220021012020
:1050800006F02BF927490446086000F091F8032246
:105090000021012006F021F923490446086000F0B0
:1050A00087F803220021012006F017F91F49044662
:1050B000086000F07DF810BD140A0020180A0020D6
:1050C0001C0A0020200A0020240A0020280A0020B0
:1050D0002C0A0020300A0020340A0020380A002060
:1050E000400A0020440A0020480A00204C0A002000
:1050F000500A0020540A0020580A00205C0A0020B0
:10510000600A00206C0A0020700A0020740A002047
:10511000780A00207C0A0020800A0020840A0020EF
:10512000880A00203C0A0020640A0020680A002047
:1051300010B5002807DA0A07140E054A00F00F031D
:105140001B1FD45403E00A07130E024A135410BD68
:1051500018ED00E000E400E070470000024800683D
:10516000C0F34000704700000010024070477047D5
:10517000F0B503460C4603F00701C1F1070004280F
:1051800001D9042001E0C1F107000646081D0728E7
:1051900001D2002000E0C81E05460120B040401E9C
:1051A0002040A8400127AF407F1E17403843F0BD84
:1051B0007047000002480068C0F3022070470000FA
:1051C0000CED00E038B501203A49096E0143394A37
:1051D00011661146096E0140009100BF00BF032017
:1051E0000246354B19684FF6FF031940334B0B430A
:1051F00043EA0221304B196000BFFFF7DBFF054691
:1052000000221146FFF7B4FF044621466FF00B0061
:10521000FFF78EFFFFF7CEFF054600221146FFF78E
:10522000A7FF044621466FF00A00FFF781FFFFF752
:10523000C1FF054600221146FFF79AFF04462146AA
:105240006FF00900FFF774FFFFF7B4FF0546002277
:105250001146FFF78DFF044621466FF00400FFF76B
:1052600067FFFFF7A7FF054600221146FFF780FF03
:10527000044621466FF00300FFF75AFFFFF79AFF3D
:10528000054600221146FFF773FF044621466FF0E2
:105290000100FFF74DFFFFF78DFF05460022114685
:1052A000FFF766FF044621464FF0FF30FFF740FF4F
:1052B00038BD0000001002400CED00E00000FA05CF
:1052C0008162704710B504462068C169C1F3C021EE
:1052D00009B320680168C1F38061E1B10020616811
:1052E0000860E2686168106806F0A5FA6068006806
:1052F00001280AD16068006838B14FF08050294910
:105300000860BFF34F8FBFF36F8F20684FF40061C9
:10531000016200BF00BF2068C16901F0010121B135
:1053200020680168C1F30021A1B92068816801F0FB
:105330000101002935D02068C169C1F3800149B954
:105340002068C169C1F3C00121B92068C169C1F3F6
:10535000400131B320680121016200BF20680421AF
:10536000016200BF20680821016200BF206802219D
:10537000016200BF0020A16808602269A16810686E
:1053800006F059FAA068006801280AD1A0680068F0
:1053900038B14FF0805003490860BFF34F8FBFF31F
:1053A0006F8F10BD04ED00E04FF400514160704775
:1053B0004FF40011416070474FF000714160704739
:1053C00010B54A1E044B9A5C825842F001034A1EF3
:1053D000014CA25C835010BDB8C7000810B54A1E2E
:1053E000044B9A5C825822F001034A1E014CA25CD5
:1053F000835010BDB8C7000808B50549896C014342
:10540000034A91641146896C0140009100BF08BDB8
:10541000001002402DE9F04704460D46164672B6CC
:105420000F4F384607F1300814E0024694466146B3
:105430000CF118090BE00B46D3F800A0A24505D1EA
:10544000D3F804A0AA4501D11E7206E00C314945EB
:10545000F1D118304045E8D100BF62B6BDE8F08711
:10546000580D0020816170472DE9F04704464FF048
:1054700014092548007858B900231A4619462348CC
:10548000006805F057FF18B902202149087038E07C
:1054900001201F49087000211E4802F097FB0120DF
:1054A000194908701C481D49097820F811401B480B
:1054B0000078401CC0B219490870142821DB164836
:1054C0004088154908800020144908700E4908706A
:1054D000114D05F128060A2714223146284600F00E
:1054E0001FF84FFA80F841460A4802F06FFB08B9EE
:1054F0000A2000E05A2007463946064802F054F9CF
:1055000000BFBDE8F08700002A170020840A0020B1
:10551000040A0020881B0020147D00202B17002087
:105520002DE9F04104460D4621462E4600230AE0AF
:105530001FB2B1F900C007EB0C080FFA88F8474614
:105540003B468F1C3946B142F2D118B2002807DB26
:10555000134602EBD37600EB660696FBF2F606E006
:10556000114602EBD176A0EB660696FBF2F630B25E
:10557000BDE8F08170B5044600250B4802F0A4F99F
:10558000FF2801D1681E00E00020054600232A46BE
:1055900019460648006805F0CDFE012802D12046D4
:1055A00000F0C2F870BD0000881B0020880A0020AF
:1055B00070B504460D464FF47A7068434FF47A7123
:1055C000B0FBF1F6002332461946206805F0B2FE22
:1055D00088B90D480078401CC0B20B490870497862
:1055E000884206DB0020084908700021074801F0C6
:1055F0005EFC002070BD00200349087001210348B3
:1056000001F055FC0120F5E728170020881B002039
:105610002DE9F04F2DED028B93B03D4801F0C2FF14
:10562000834601235A4600213A4802F06DFF39486B
:1056300002F09AFF364801F0FBFEB0EE408A04F01B
:10564000B7FABDEEC00A10EE100A04B22046FFF70A
:105650000BFF14F10F0F06DB14F10A0F08DC2C48C6
:1056600001F0D9FE20B90021294801F072FF4AE07B
:105670000121274801F06DFF254802F06AFA8046B3
:10568000234802F098FA8246444508DCA8EB0A0059
:10569000A04206DC1E4801F0A4FC012801D101252E
:1056A00000E0002529461A4801F00FFD20221A4982
:1056B00009A8FAF7FBFD164801F069FC09A901EBFE
:1056C000001000EBC50103C9CDE91101CDE90101CD
:1056D0000846124901EB6006DDE91101CDE903013D
:1056E00001F0010020B9DDE91101CDE9050106E075
:1056F000DDE91101CDE907013168471838688146B5
:105700003046C84700BF13B0BDEC028B00F008B8AC
:10571000881B0020040A002010C900081017002070
:1057200030BCBDE8C08F00002DE9F84F04464FF0B3
:105730000A0B00203D49086000250026002780460E
:1057400000BF00203949086000BF00231A461946EF
:105750003748006805F01CFF00234FF4FA72194621
:105760003448006805F0E6FD48B90021324801F0F0
:105770007EFD0A21304802F017F800F065B80121DB
:105780002D4801F074FD00231A4621462B4802F0F3
:10579000BBFE294801F04CFC814600230122214632
:1057A000264802F0B1FE244801F042FC824624481B
:1057B0001E49096820F811901C4801680068401CC7
:1057C0001A4A10601F4820F811A000BF1046006858
:1057D0000A28BAD31A4D05F114061A4F07F1140816
:1057E0000A2231462846FFF79BFE4FFA80F94946C8
:1057F000114802F04DF80028A3D00A22414638464D
:10580000FFF78EFE4FFA80F949460B4802F0B4F8D4
:10581000002896D0002069460090074802F090F8D2
:105820005A21054801F0C0FF00BFA6E72C17002051
:10583000480A0020440A0020881B0020040A002097
:105840003C7D0020507D002018BCBDE8E08F0000AA
:105850002DE9F04F93B0544801F0BFFF012804D068
:10586000514801F09AFC01287ED100214E4801F0F8
:10587000DBFF00231A4619464C48006805F088FEF5
:1058800000234FF4FA7219464948006805F052FDAA
:1058900050B90021444801F01FFB0021424802F0AA
:1058A000AEF813B000F08CB83F4802F09DF8002825
:1058B00077D03D4801F076FE834601213A4801F059
:1058C0000BFB01235A4619463A4802F01DFE3648A2
:1058D00001F0AEFB044614F10F0F06DB14F10A0FC2
:1058E00008DC314801F097FD20B900212E4801F075
:1058F00030FE52E001212C4801F02BFE46264FF0ED
:105900000A09B44208DCA6EB0900A04206DC2648DE
:1059100001F067FB012801D1012500E0002529469F
:10592000214801F0D2FB204801F037FC18B9224889
:10593000FEF70EFE30E02022204909A8FAF7B6FC57
:10594000194801F024FB09A901EB001000EBC50187
:1059500003C9CDE91101CDE901010846164901EB62
:105960006007DDE9110100E018E0CDE9030101F075
:10597000010020B9DDE91101CDE9050108E0DDE90B
:105980001101CDE90701396800EB0108D8F80000E2
:1059900082463846D04700BF00BF02E0032005F032
:1059A0004BFA00BF7DE70000881B0020480A00205A
:1059B000440A0020040A00201017002030C9000803
:1059C00030BCBDE8C08F000010B50023642219462A
:1059D0002D48006805F0AEFC20B900212B4801F0ED
:1059E00046FC10BD0121294801F01EFF00231A4684
:1059F00019462748006805F0CBFD4FF496712548FD
:105A0000FFF7D6FD00B9ECE700231A4619462248F5
:105A1000006805F0BDFD00234FF4FA7219461F48D7
:105A2000006805F087FC20B90021184801F01FFC30
:105A3000D7E70121154801F01AFC00231A46194640
:105A40001748006805F0A4FD4FF496711548FFF75C
:105A5000AFFD00B9C5E70D4801F0C6FF18B10B480E
:105A600002F02CF818B900200F49087002E00E4827
:105A7000FFF7CEFD00231A4619460C48006805F0D2
:105A800087FD00BFADE70000400A0020881B002012
:105A90004C0A0020540A0020480A0020440A002032
:105AA000500A0020580A0020301700203C0A00202D
:105AB000016841F0010101607047000010B52A48FB
:105AC000007810B101284BD128E028480078410027
:105AD000274800F017F94FF48061254800F02BF9B2
